:020000040801F1
:1000000000000220816701089567010895670108D3
:1000100095670108956701089567010895670108CC
:1000200095670108956701089567010895670108BC
:1000300095670108956701089567010871690108CE
:10004000956701089567010895670108956701089C
:10005000956701089567010895670108956701088C
:10006000956701089567010895670108956701087C
:10007000956701089567010895670108956701086C
:10008000956701089567010895670108956701085C
:10009000956701089567010895670108956701084C
:1000A000956701089567010895670108956701083C
:1000B000956701089567010895670108956701082C
:1000C000956701089567010895670108956701081C
:1000D0009567010899670108084909488B68094A2A
:1000E0004FF0000C1A4480F808C003F55B03064883
:1000F00003F53A4382608B60012070471C000020AA
:100100002800002000BADB8010000020002070478B
:100110000E4B1888B8B110B40D4A0E4B146893F802
:1001200000C0013810D02346002219460132634432
:1001300082420B60F9D10CFB0242074B0021116097
:100140001C6010BC704770472246F6E7480000204C
:1001500044000020400000203C00002010B48268D1
:10016000D0E90034EFF3108172B6DBB2012B0CD072
:10017000022B04D1226081F3108810BC7047D2B2E8
:10018000227081F3108810BC704792B2228081F3F4
:10019000108810BC704700BF704700BF816982683B
:1001A000CB6810B4C4696340CB6090F8303083F002
:1001B0000103D9074CBFC168016980F830305B0783
:1001C0000A4403D4826010BC012070474369D11AED
:1001D0000029F7DB034A42601A46826010BC012006
:1001E000704700BF4D030108EFF3108C72B614493D
:1001F0000B68834202D110E083420BD01A461B6881
:10020000002BF9D14B68834204BF0E4B4B608CF33B
:100210001088704703681360F4E70B4B026800B561
:10022000D0F808E0C3F808E01A600B604B6883421E
:1002300004BF044B4B608CF310885DF804FB00BFD7
:10024000280000201C0000200400002008B5014602
:1002500072B6014807F094FAB800002008B50420EF
:10026000FFF7F4FF10B58168EFF3108E72B6174CEC
:1002700023689A688A1A002A0BDB9C461B689A68D6
:100280008A1A002AF9DA0360CCF800008EF310888D
:1002900010BD0F4A52688A1A002A11DB0D4A934298
:1002A00008BF1B68036091604FF0E0230A491060AB
:1002B00022604FF0806000225A619A614860E5E751
:1002C000A27A002AEAD10320FFF7C0FF280000200D
:1002D000001000E00400002000ED00E070B50E4DBD
:1002E000296891B90D4E047833680D4803EBC40CAE
:1002F00084454FEAC4020BD898183060184607F0BE
:1003000047FA084A2860147070BD0A20FFF79EFF64
:100310001120FFF79BFF00BF88010020B0000020E4
:1003200000FE01208C01002008B50820FFF78EFF99
:1003300008B5054A937A23B1022B1CBF00239372A0
:1003400008BD0220FFF782FF28000020836A70B5F5
:10035000002B00F092809A68196881624A49866988
:10036000C4690D68002A14BF4FF0010C4FF0000C57
:1003700022D1240434611D600B6090F83030856A0E
:1003800003F01004C3F3001383F00103B2FA82F107
:10039000DBB2490999422BD0036A4BB381684CF018
:1003A000040C0B44002D3ED14CEA040C436180F850
:1003B00030C08360012070BD34611D600B60436AF2
:1003C0009342DAD9056A866A8168D5B10D44002E58
:1003D00047D190F83030456103F0100343F0070334
:1003E00080F8303011444B1B002B38DA436A13E09D
:1003F0005DBB4CEA0404002380F83040436118469A
:1004000070BD90F8304004F010047EBB44F003044B
:100410004661114480F830401C4C9B1AC0E90141F0
:10042000C0E90323C6E76D685B1B002B28DB90F84F
:100430003030456103F0100343EA0C031CF0020F57
:1004400080F83030CED12B46B3E76D6845614CF073
:10045000040C44EA0C0480F830402B46A9E7856080
:10046000A8E72B464FF0070C7568DDE77568456116
:1004700044F0070480F83040B4E71520FFF7E6FEAB
:100480001320FFF7E3FE00BF3C0000209D010108A0
:100490000FB42DE9F04FDFF8349285B099F80040A1
:1004A0000E9FE4B224B105B0BDE8F04F04B0704730
:1004B000874E012389F8003033780FAD0395DBB206
:1004C000DFF810A29AF800805FFA88F843450ED34F
:1004D0008AF80040B8783470602840F2D480002355
:1004E00089F8003005B0BDE8F04F04B07047B87827
:1004F00008EB00016029024640F2CA80C91A60294F
:10050000EDD88AF800403178C9B2734BA8EB0108E6
:1005100042461944184607F0ADF8034634705FFAB6
:1005200088F28AF800206D4A42F2AC01D160B878B6
:1005300003EB08010246052874D93A8805388C1C5B
:100540007F2A04EB0006F8787F6804D9D40964F0A8
:100550007F048C70CC1C02F07F0204F8012B002871
:100560005DD007EB000B2246CDF800805C462846A4
:1005700001938B4617E0063B012B00F2A380054652
:10058000134655F8081BB21A8A4228BF0A4603F8D8
:10059000012B41681846904607F07AF900EB0802F3
:1005A0002846A74236D09642C0F08C8017F8013B0F
:1005B000052B71D0DFD850F8043B03F120017F29CF
:1005C00022D903F58051B1F5804F18D303F50021EE
:1005D000B1F5001F0ED303F18061B1F1805F04D348
:1005E000190F61F07F0102F8011B590D61F07F01C5
:1005F00002F8011B990B61F07F0102F8011BD90978
:1006000061F07F0102F8011B03F07F03A74202F8AB
:10061000013BC8D1DDF80080019B14465946641A9D
:10062000E21CD0B203F808002D4B1B784B70D31E90
:1006300045D0CE180D464FF6FF7415F8017B674084
:1006400087EA0717FFB2240A4FEAC70C44EA0724D7
:100650008CEA17177C40B54227B2EED1240AFFB2CC
:10066000CC54114440447E2301F8027C01F8013C43
:10067000C0B21A4B8AF8000042F2AC02DA600023E2
:1006800089F800302EE7144BA0460246194652E77F
:10069000114B03EB08014EE750F8045B2B78511C1B
:1006A0002BB909E001F8013B15F8013F0BB18E426F
:1006B000F8D88B1A013BDBB213700A4671E7FF27AB
:1006C0003C46CDE70620FFF7C1FD00BFB400002087
:1006D000AD000020AC0000204C000020003801409C
:1006E00000000020000000002DE98048944BDFF856
:1006F00054825C68DFF850B297B0944991F90830A1
:10070000002B00F008868E4B5A6872B691F90830BB
:10071000002B40F02D8762B6894B5B689B1A2344FF
:1007200006938B4B89491B780122DBB20A72D3B145
:10073000884B894F864903931A4600230B70107823
:100740003B687F4DFF240134E1B203EBC10107E0B8
:100750000A4652F8086B464500F0E2831146013420
:10076000E4B2A042F4D87D4B1B78DBB2CBB1794B1D
:10077000794F7A4903931A4600230B7010783B682F
:10078000FF240134E1B203EBC10107E00A4652F84D
:10079000085B5D4500F0DC8411460134E4B2A04200
:1007A000F4D86F4B1B78DBB2D3B16A4B6A4F6C49FC
:1007B00003931A463E6810786A4C00230B70FF259D
:1007C0000135EAB206EBC20207E0134653F8081BF4
:1007D000A14200F0D1831A460135EDB2A842F4D807
:1007E000614B1B78DBB2D3B15A4B5B4F5E4903932D
:1007F0001A463E6810785D4D00230B70FF240134CB
:10080000E2B206EBC20207E0134653F8081BA94206
:1008100000F0CD831A460134E4B2A042F4D8544B20
:100820001B78DBB2D3B14B4B4B4F514903931A4664
:1008300000230B7010783B684E4DFF240134E1B269
:1008400003EBC10107E00A4652F8086BAE4200F024
:10085000C78311460134E4B28442F4D3464B1B787B
:10086000DBB2D3B13B4B44493B4F03931A460023C1
:100870000B7038681178414DFF240134E2B200EB6F
:10088000C20207E0134653F8086BAE4200F0C5837E
:100890001A460134E4B28C42F4D3394B1B78DBB2F4
:1008A000C3B12C4B2C4F364A1D783F68354E002380
:1008B0001370FF240134E2B207EBC20207E01346D3
:1008C00053F8081BB14200F059811A460134E4B2D2
:1008D000AC42F4D32C4B1B78DBB2DBB12A4A1E4F5F
:1008E0002A4D002313701B4B0393FF24039BD7F85F
:1008F00000C018780134E2B20CEBC20207E01346E4
:1009000053F8081BA94200F045811A460134E4B2AD
:100910008442F4D31E4B1B78DBB2002B47D01C4A19
:100920000D4F1C4D002313700A4B0393FF24039BB0
:10093000D7F800C018780134E2B20CEBC20233E001
:10094000001000E0CD2901082D2801082800002012
:10095000580100208C010020880100205C0100204B
:1009600060010020293E0108640100206141010866
:1009700068010020E94001086C010020814F010856
:10098000700100203D4D010874010020DD4F010879
:1009900078010020894D0108134653F8081BA9422D
:1009A00000F025821A460134E4B28442F4D3914B1C
:1009B0001B78DBB2DBB18F4A8F4F904D0023137051
:1009C0008F4B0393FF24039BD7F800C018780134A2
:1009D000E2B20CEBC20207E0134653F8081BA9422F
:1009E00000F03D821A460134E4B28442F4D3854BD0
:1009F0001B78DBB2F3B1834A7F4FDFF80CA2049778
:100A0000002313707E4B0393FF231C46039B18782F
:100A1000049B1E680134E2B206EBC20207E01346F3
:100A200053F8081B514500F013811A460134E4B213
:100A30008442F4D3754B1B78DBB2DBB1734A6E4F43
:100A4000734D002313706E4B0393FF24039BD7F861
:100A500000C018780134E2B20CEBC20207E0134682
:100A600053F8081BA94200F070811A460134E4B221
:100A70008442F4D3674B1B78DBB203B3604B5E4F09
:100A8000644903931A463E681578DFF88CA1002369
:100A90000B704FF0FF0909F101095FFA89F206EBCB
:100AA000C20208E0134653F8081B514500F00F82BC
:100AB0001A4609F101095FFA89F9A945F2D3574BA2
:100AC0001B78DBB223B1554A0023137005F046FCB6
:100AD000534A544B4AF6AA2111605A6872B65249D9
:100AE0000B689B1A002BB8BF0A6062B64F4B1A788E
:100AF000D2B21546002A00F0D2834D4B1C78E10794
:100B000019D4042A40F2CB834A490E78731F3B2B39
:100B100000F2A6834B7823F00F01102907D1B242CF
:100B2000C0F0BD83444FB95D7E2900F0B585404BD0
:100B300044F001041C703F487E2106F049FF30B1AB
:100B40003C4BC01A3A4B04F0FE041C70451CA30732
:100B500006D4374A44F0020313703848FFF798FC74
:100B6000202D07D1364933482A4606F063FE002877
:100B700000F0C0852E464FF0FF3777E3506800281D
:100B80003FF4A8AE037DDA077FF594AE214605F069
:100B900043FB8FE65668002E3FF4BCAE737DDB0747
:100BA0007FF5A8AEF37D2F2B40F2BD84317D002967
:100BB00000F00C85012900F0A98506F11D093023FC
:100BC000328B337721461F48CDF80090FFF760FC49
:100BD000F37D328B303BDBB2002101322F2B31779A
:100BE000F375328340F22384174B1972174A01239D
:100BF00013707BE67C01002088010020D54D0108A0
:100C00008C01002080010020255B01088401002068
:100C1000D15B010890010020C14E01089401002021
:100C200000300040001000E0980100206002002029
:100C30009C010020A00100209F010020A88801083D
:100C4000707A0108B888010828000020740100208B
:100C50005568002D3FF4EEAE6B7B002B3FF4DAAE0F
:100C600005F1200393E80300D5E906C709AB95F821
:100C70000CE0BB4ACDF814E083E803000EF1170640
:100C80004FF00009BE4672B6DDE90907C3687B4034
:100C9000C36051681C3153685B1A002BFBDBC368CF
:100CA0007B40C360DCF8080000EA0E00003818BF83
:100CB000012062B651681C3153685B1A002BFBDBC4
:100CC000013E40EA4909DED2DDF814E072B60023A5
:100CD0006A7B6B7362B6012329FA0EF603FA0EF3F0
:100CE000310203F1FF3348BF46F07F4633EA090380
:100CF00000F0F6834FF0004380266B610023184616
:100D00001946002261F3070260F30F2263F31742D2
:100D100095F82C30E9180433DBB266F31F622F2BF1
:100D2000C1F82D2085F82C307FF670AE05F12D012D
:100D30002A8D8C4800912146FFF7AAFB002385F8F5
:100D40002C302B8D01332B8560E65668002E3FF446
:100D500091AE337F002B3FF47DAE09AB4FF000091D
:100D6000ADF8249083F80290B0690322012102F0CB
:100D70006FF986F81C909DF825309DF824209DF889
:100D80002690B06D1B0243EA024343EA09091902A7
:100D900048BF49F07F4978B190F83030DA070BD579
:100DA0006F4A0021526842615B0780F8341000F1FD
:100DB0003B84494605F06EFE96F82230F218043363
:100DC000DBB22F2BC2F8239086F822307FF63EAE9E
:100DD00006F12301F28B634800912146FFF758FB8F
:100DE000002386F82230F38B0133F3832EE6566816
:100DF000002E3FF4DCAD337EDA077FF59CADF38A3D
:100E00002F2B40F224830DF1240974234A468DF8D8
:100E1000243006F11F09302301213069CDF80090FC
:100E200003F0CAFC03F024FCF28A4E483023303A27
:100E3000B377F2822146728BCDF80090FFF728FB42
:100E4000738B01337383F38A00222F2BB27740F226
:100E50001E83454B1A72454A0123137067E5566895
:100E6000002E3FF4C4AD337EDB077FF5B0ADF38ACF
:100E70002F2B40F28E820DF1240972234A468DF801
:100E8000243006F11F09302301213069CDF800908C
:100E900003F092FC03F0ECFBF28A32483023303A44
:100EA000B377F2822146728BCDF80090FFF7F0FA0B
:100EB000738B01337383F38A00222F2BB27740F2B6
:100EC0008882294B1A722A4A012313707BE55468E1
:100ED000002C3FF4F4AD237DD9077FF5DCAD4FF056
:100EE000180309AE20698DF820300096022308AA65
:100EF000012103F061FCBDF824305BBA05469BB2CA
:100F000072B6227D22F00102227562B6002840F0FE
:100F10001A821B0700F13581039B3E681D78BAE5F4
:100F2000496800293FF41FAC91F8202056077FF54F
:100F30000AAC686872B691F8202091F8213022F04E
:100F4000040681F8206062B6009002F001020948B0
:100F50002146FFF79DFA039B18783B68FFF7F3BB28
:100F6000001000E0B8880108280000207801002067
:100F70007C01002018890108516800293FF430AC39
:100F80000B7FFF2B7FF41CAC72B68B7C002B00F028
:100F9000D4814A7F0A7762B6CA7EAC481331009189
:100FA0002946FFF775FA039B3E68187808E45368F2
:100FB000002B3FF434AC1A7F11077FF520AC72B6DA
:100FC0001A7F22F008021A7762B69A7FA048283367
:100FD000D2082146FFF75CFA039B3E6818780EE4BE
:100FE000496800293FF43AAC91F82020D2077FF5F8
:100FF00025AC72B691F820308A6823F0010381F89D
:101000002030D1E9063162B6924800912146FFF7BF
:101010003FFA039B18783B6810E45668002E3FF4B3
:101020003CACF37FDB077FF528AC72B6F37FD6F8D4
:1010300008A023F00103F37762B6B37F032B18D81F
:10104000DFE803F0704C1C020023ADF82430B069D7
:1010500009AB0222012101F0FBFFBDF8243000940E
:101060005ABA1B0A5146304603F0060392B205F005
:10107000A7F8039B38681978FFF7FFBB0121099196
:101080000DF124094B46B069032201F0E1FF099AF2
:101090004B4692FA82F90722ADF824204FEA192C28
:1010A000B069CDF810C00121022201F0D1FFDDF8B6
:1010B00010C09DF8253000940CF0010CC9F30F29E5
:1010C00023F003035146304643EA0C034A4605F039
:1010D00077F8039B38681978FFF7CFBB0C23099387
:1010E0000DF124094B46B0690422012101F0B0FF43
:1010F000099A0F21ADF824104B46B06992FA82F993
:101100000121022201F0A4FF9DF8253000945146F0
:10111000304629F07F4205F053F8039B3868197870
:10112000FFF7ABBB00230993B06909AB042201218F
:1011300001F08EFF099A0094C2F3026351463046D3
:1011400012BA05F03DF8039B38681978FFF795BB94
:101150004A68002A3FF425AB92F82A5092F82B10E7
:101160008D427FF40EAB72B692F82A1092F82B30B3
:101170008B4200F0D38062B6039B18783B68FFF780
:1011800000BBA37E07931B33E3188DF8240032467F
:101190002069049300930121022303F00DFB3246E2
:1011A000049E05900121B31C8DF824102069009342
:1011B000022303F001FB059B94F85C20034302F03B
:1011C0000406184640F07681079B2344DD7E049B8D
:1011D000597805EA0103FF2B00F02D82F6B104983F
:1011E000C37843EA056343EA0143817843EA012374
:1011F00023F080506FF07C41884280F0A98216492C
:101200009507486823F0704300F1C081216E8B423E
:1012100000F2C58102F0FD0284F85C20A37E039AEF
:101220003E6815780433DBB22F2BA3767FF633AC00
:1012300004F11B01E28A094800914946FFF728F9A9
:101240000023A376E38A0133E38224E4F8880108CB
:10125000F0880108E0880108001000E0B888010863
:101260007E2E7FF464AC01264FF0FF370020B44B94
:101270001C78E4B2A51B40F09A81EFF3108272B69D
:10128000AF4B1B78DBB29C4240F09D81AC4B1D7094
:1012900082F31088012F02D1AA48FFF7F9F8AA4B70
:1012A000AA4DAB4E5C68069B29683268A4EB030A22
:1012B00001315244BAF5803F296032605DD2A54FBA
:1012C0000AFB0AFA38680AF1FF0300EB1323834292
:1012D00038BF4FF0FF33DFF88092A048D9F800A064
:1012E0003B60A4EB0A0C84457FF607AA9C48FFF7F5
:1012F000CFF8A24503D99B4A1368013313609A497A
:10130000C9F8004000233B6033602B6091F908303E
:10131000002B7FF4F8A90694FFF703BA013382F893
:101320002A30138B526962B690482146FFF7B0F815
:10133000039B18783B68FFF724BA62B6039B3E68AC
:101340001878FFF73DBA94F85C305A0709D594F83D
:101350005E10A06D01310023C9B284F85C3001F049
:10136000C3FDA27E02F11B032244FF212344D17658
:101370000122A3F80110DA7050E7BAF5801F754F0B
:1013800080F0958038680AF1FF031B0A0AFB03030B
:101390009DE770230DF1240930698DF8203008AAEB
:1013A00002230121CDF8009003F006FA03F060F962
:1013B0009DF824209DF82530B08A120202F4F852DC
:1013C00043EA0201884238BFB1822F29F1823FF7F8
:1013D00054AD337E23F00103337672B65A4B5A680C
:1013E000F3681344B3603046FEF73CFF62B6FFF784
:1013F000EABAAF23ADF82430306909AB02220121EB
:1014000001F026FE9DF82530580602D5728B013278
:101410007283B27D012A00F0248103F03F0303EBC5
:1014200043035B00DBB22F2BF3753FF6BFAB737D3D
:1014300023F00103737572B6434B5A68F368134483
:10144000B3603046FEF70EFF62B6FFF74FBA722365
:101450000DF1240930698DF8203008AA02230121FA
:10146000CDF8009003F0A8F903F002F99DF82420CC
:101470009DF82530B08A120202F4F85243EA0201C4
:10148000884238BFB1822F29F1823FF7BEAC337E4C
:1014900023F00103337672B62B4B5A68F36813447A
:1014A000B3603046FEF7DEFE62B6FFF740BA4FF09B
:1014B000FF3310E746B194F85E10A06D84F85C50DD
:1014C0000231C9B201F010FDA27E02F11B032244D9
:1014D000FF212344D1760222A3F80110DA709DE6A1
:1014E000920703D54FF08043402606E46A69002A3C
:1014F00040F05581286E70B190F83010CB070AD5B6
:10150000114B4F075B68436180F8342000F1BE80C7
:10151000314605F0BFFAF1B2C6F30720C6F3074320
:10152000360EFFF7EEBB337D00228DF82020002B16
:101530003FF45FAF012B00F09A80F27577E700BFB0
:1015400060020020A8880108001000E0740200205A
:10155000700200206C02002068020020FF53EA2A7B
:101560005889010864020020280000201089010821
:1015700091494FF6FF730B8162B630BF72B68E4B46
:1015800093F90830002BF7D1FFF7C5B8616E411A07
:101590000029FFF643AE216E8B427FF63BAE6066BC
:1015A00094F85D10A06D01F09FFC002234E6834B9F
:1015B00081192A1A1944184406F05CF87E4A00235F
:1015C0001372284659E682F3108850E609AB31229F
:1015D000184606F0DDF8B27D012A14BFA822E822E1
:1015E0008DF82420034631220121306906F11D09BE
:1015F00001F02EFD0DF125034A460DF15501D3F8FA
:1016000000E0D3F804C09868D3F80CA0C2F80CA08E
:1016100010338B42C2F800E0C2F804C0906002F1BF
:101620001002ECD1FFF7CBBAC369D21A8A42BFF6D7
:10163000C0ABFFF7C1BB46B194F85E1084F85C0004
:101640000331A06DC9B201F04FFCA27E02F11B0371
:101650002244FF212344D1760322A3F80110DA703B
:10166000DCE5990640F195800023F375DFE62F2233
:101670008DF8242008AA19463069009209AA03F0BF
:101680009BF802F0F5FF9DF82030BDE6C2699B1A79
:10169000002BBFF63DAF3EE7791EA6F1030E0137E2
:1016A00011F806C017F80E104CEA012CBE440FFAD0
:1016B0008CFC4FF6FF7117F8010B484080EA0010D0
:1016C000C0B2090A4FEAC00941EA002189EA1010B4
:1016D0004140BE4508B2EED184457FF428AA384A7D
:1016E00024F002041470374A1178994225D0354607
:1016F000FFF733BA4FF000614B689A1EA3F109005F
:1017000022F0070290422CD005F0EEFB28238DF842
:101710002430B37D012B04BFA8238DF8243006F1BB
:101720001D093069CDF80090302309AA012103F08A
:1017300043F802F09DFFFFF742BA013303F00F03B5
:1017400043F0100330461370012705F0FFFE8DE5CE
:10175000002394F85E10A06D84F85C3001F0C4FBA7
:101760005CE553F8095C184C184A53F8053C934261
:1017700008BFA542C8D10B68DA1D22F007029342C8
:10178000C2D172B60AA1D1E90001C3E9000105F096
:10179000ABFB03F01F0303EB43035B0043E6D1B253
:1017A000C2F30720C2F30743160EFFF7AABA00BF21
:1017B0009B58A16CFAE3845928000020A001002066
:1017C0009C0100200000002043616E426F6F742175
:1017D000A449A54DA54A21F003012DE9884800241C
:1017E000296045F2555040F6FF711060A04B5460DF
:1017F00091604CF6CC411160D3F8FC109D4A41F049
:101800008071C3F8FC10116841F00101116054604F
:10181000EFF3108172B64FF0E0222025072083F805
:1018200023501061546194614FF080625A6081F3DB
:101830001088914805F02EFA8F49904B40F23912EA
:101840008A6042F22C02CA6083F825435D6001225F
:1018500072210A2005F07AFB22467221092005F048
:1018600075FB8748FEF714FE72B6864805F082FFC6
:1018700010B962B6FEF738FF72B6834B7D499A7A8B
:10188000D1F804A0002A00F01E82804B804998689D
:101890007D4A88607F48116053600B6018604FF08C
:1018A000E021734B0224947200274FF080624F6155
:1018B0008F615A60784B794E1F70FEF729FC784A89
:1018C000784B15781C684FF0FF0C4FF0110E0CF19F
:1018D0000101C9B204EBC101634605E00A4652F8B2
:1018E000080BB04215D011460133DBB2AB42F5D341
:1018F0003A468AB192F83030D2E9060113F010036B
:1019000015BF734609040161016182F830309762A6
:10191000DDE74A689C46ECE7634E4FF0FF08174648
:1019200008F10101C9B204EBC101434605E00A46D2
:1019300052F8080BB0420CD011460133DBB29D4285
:10194000F5D8384640B1002141633C3000F0B6FC88
:10195000E6E748689846F5E7DFF850814FF0FF0961
:10196000064609F10101C9B204EBC1014B4605E08D
:101970000A4652F8080B40451CD011460133DBB231
:101980009D42F5D83746C7B13846FEF72DFC07F122
:101990000C00FEF729FCFB6933B100211A461B68D5
:1019A000C2E90011002BF9D10023FB6187F8223036
:1019B0003B84D6E74F689946E5E7DFF8E4903C4E74
:1019C0004FF0FF08DFF8DCE0BC46DEF8005099F885
:1019D000004008F10101C9B205EBC101434605E031
:1019E0000A4652F8080BB0421FD011460133DBB251
:1019F000A342F5D362464AB3136AEFF3108172B67D
:101A00001C68E00614D481F3108892F82B30002B68
:101A1000DBD00133D16882F82A3053690B4453611B
:101A200093601046FEF71EFCCCE74A689846E2E752
:101A30001C6824F002041C601C6824F010041C6064
:101A40009C6824F4A0049C60DB6CDCE7194E4FF02A
:101A5000FF0C96460CF10101C9B205EBC1016346CA
:101A600030E000BF7F020020B000002000300040C6
:101A700000ED00E0001000E00038014000E100E06F
:101A800078890108B8000020280000201C000020F0
:101A90000400002010000020B400002039200108BC
:101AA0008C01002088010020851F0108CD29010834
:101AB0002D280108411F01080A4652F8080BB042C0
:101AC00010D011460133DBB29C42F5D8774667B19E
:101AD0003B7CDA07BED5D7E90212180748BF1204CB
:101AE0000A61B7E74F689C46F1E7784E4FF0FF0870
:101AF00008F10101C9B205EBC101424605E00B4600
:101B000053F8080BB0420DD019460132D2B29442BC
:101B1000F5D83B464BB11A7918680021053301F01E
:101B200097FAE5E74B689046F4E7694EDFF8A4E1E1
:101B30004FF0FF0C1F460CF10101C9B205EBC101CA
:101B4000634605E00A4652F8080BB04213D011462E
:101B50000133DBB29C42F5D8394679B10B690A8B67
:101B600003FB02F202F58042CB68D20B1A60C1F887
:101B700004E0CF61DFE749689C46EEE7564E4FF040
:101B8000FF080F4608F10101C9B205EBC101434648
:101B900005E00A4652F8080BB0421AD0114601334C
:101BA000DBB29C42F5D8B946B9F1000F19D099F8CB
:101BB0001C309B0611D5D9E90301012205F0E4FA96
:101BC00099F81C3003F0300343F0010389F81C300E
:101BD000D8E7D1F804909846E6E7D9E903321A61CC
:101BE000EEE73E4EFF27791CC9B205EBC1013B462B
:101BF00005E00A4652F8080BB0420FD011460133F7
:101C0000DBB29C42F5D84A465AB11369D168180430
:101C10009369526908611B041361E4E74A681F462F
:101C2000F2E72F49FF239146581CC0B205EBC000D4
:101C300005E0024652F8086B8E421DD01046013373
:101C4000DBB29C42F5D8EFF30383C3F308034BB137
:101C50004FF080736FF0060208B402A102B41FB502
:101C6000104700BF1F4B01229A7262B61E48DA7AF3
:101C70005146FEF70DFCFCE54268002AE3D01069EE
:101C8000D2F80CB09769166A4FEA004E906A4FEA94
:101C9000004C106B4FEA0048906BCBF810E0D2F884
:101CA00014E03F04CEF81070D76936043E61566ADE
:101CB000C6F810C0D66AC6F81080566B00043061B2
:101CC00082F80890B0E7D872DFE500BF8D2C0108DC
:101CD0006D3E0108BD3801086141010869420108F3
:101CE000FD420108280000206889010800B50A4B60
:101CF0000A4A9B7A11880A4A0A48126883B0003B54
:101D0000009118BF0123003918BF0121FEF7C0FB65
:101D100003B05DF804FB00BF28000020480000204D
:101D20003800002040890108024B03485968FEF73B
:101D3000AFBB00BF001000E048890108064A074910
:101D4000074B526809681B680648914294BF1946C0
:101D5000591CFEF79DBB00BF001000E06802002088
:101D60006402002050890108016840F6B853994286
:101D70000DD8027940F6B9535018984202D9C1F1F2
:101D8000B902D2B2054B06480B44FEF781BB034BA8
:101D9000034800220B44FEF77BBB00BFEC7A01082E
:101DA00060890108D0E90031EFF3108272B6DBB22E
:101DB000012B0ED0022B05D1096882F31088084848
:101DC000FEF766BB0978C9B282F310880448FEF7B3
:101DD0005FBB098889B282F310880148FEF758BBBF
:101DE00030890108034602485A681978FEF750BB4B
:101DF0003889010838B50A4D0A4B2C6821189942D8
:101E00000BD8C31C23F003030246234400212046C1
:101E10002B6005F0BDFC204638BD1120FEF716FAF8
:101E2000B000002000FE012038B50D4B93F800C033
:101E30008445034610D910460A4A126852F83340C6
:101E400002EBC30544B9084C24882CB942F833107E
:101E5000FFF7D0FF686038BD0B20FEF7F7F900BF31
:101E60008C010020880100204800002008B50F20C8
:101E7000FEF7ECF908B50E20FEF7E8F970B5164E3E
:101E800033882BBB154B16491A78032A9CBF0422B2
:101E90001A70144B05461868002403469C461344E8
:101EA0008B420FD80134B4F5806FF7D1181AFFF7C1
:101EB000A1FF0D4B34801860FEF72AF90B4B2A68FE
:101EC0001A6070BD6346002CF0D11020FEF7BEF9F9
:101ED0000D20FEF7BBF900BF4800002040000020A5
:101EE00000FE0120B0000020440000203800002047
:101EF00008B50C20FEF7AAF990F8202008490346FF
:101F000042F00402002083F8202008729A68D3F877
:101F100018C004490120624408709A60704700BFED
:101F2000280000205801002000B5034683B0D3E903
:101F30000012684605F056F903B05DF804FB00BFD7
:101F4000F0B5054683B00E4900781422FFF76CFF08
:101F5000AF686968B7FA87F204465209684605F027
:101F600041F9DDE9000104F1080383E80300002FD3
:101F7000237C0CBF012209221343237403B0F0BD5C
:101F8000411F0108F0B505462749007883B0482273
:101F9000FFF74AFFEF68002F04462EDD042280F889
:101FA00044206968684605F01DF9DDE9000104F187
:101FB000200383E803000022A968684605F012F9AF
:101FC000DDE9000104F1280383E80300174B4FF01B
:101FD0004042198822632A69E2610023C4E90D3373
:101FE00001BB134B19780F299CBF10211970002FCA
:101FF00009DB104B636003B0F0BD0ED190F84420B4
:1020000002F00402CDE7122AF3D894F8443043F0EA
:10201000200384F8443003B0F0BD102380F844302E
:102020000022BEE7FFF726FF851F010848000020B9
:1020300040000020A92D010830B5D0E90112044666
:10204000003A83B018BF0122684605F0CBF8154965
:1020500020783422FFF7E8FE0346DDE9000103F1B2
:10206000180282E803001049E2680D880020111A66
:10207000A26818BF0121121A18BF012242EA0112F8
:1020800083F8302022691A62C3E90A003DB9074B80
:102090001A780B2A9CBF0C221A7003B030BDFFF7D0
:1020A000E9FE00BF39200108480000204000002060
:1020B00010B50D4B02781B78934210D90B4B0C498D
:1020C0001B6853F832408C4203EBC20307D15B68B4
:1020D00072B69A6A2AB942685A6262B610BDFFF7B0
:1020E00007FF1420FEF7B2F88C01002088010020C1
:1020F0003920010810B5104B02781B78934218D98B
:102100000E4B0F491B6853F832408C4203EBC2025E
:102110000FD143685168003B18BF01235B0072B6C2
:1021200091F8442022F00202134381F8443062B651
:1021300010BDFFF7DDFE00BF8C01002088010020EC
:10214000851F010810B5114B02781B78934217D9EF
:102150000F4B10491B6853F832408C4203EBC2030B
:102160000ED15B68416872B65A695AB993F8442037
:10217000996022F00802996183F8442062B610BD8C
:10218000FFF7B6FE1620FEF761F800BF8C010020B5
:1021900088010020851F010810B5184B027893F8BC
:1021A00000C0624524D2164B1B6853F8321003EB73
:1021B000C20E144A91421BD10179DEF80420614518
:1021C00016D253F831401048844203EBC1030FD1BB
:1021D0005B6802F13C00EFF3108172B6146C4CB9ED
:1021E0000A4C1464DC69D463D86181F3108810BD93
:1021F000FFF77EFE1920FEF729F800BF8C010020B2
:1022000088010020851F0108CD290108BD22010891
:1022100038B5254B02781B7893423FD9234B24498C
:102220001B68054653F83200884203EBC20335D1E0
:102230005C682046FDF7D8FFA36A8BBB2A7994F827
:102240003030D4E90650002A08BF0004286103F0AA
:102250001000C3F30013B2FA82F283F001034FEAD5
:102260005212DBB214BF012100219A4201D0236A2D
:102270001BB9014384F8301038BD0E4A5268084338
:10228000134440F004000C4A84F83000C4E90123F0
:1022900063612046BDE83840FDF7E4BFFFF728FE44
:1022A0001220FDF7D3FF00BF8C0100208801002021
:1022B00039200108001000E04D030108F8B504467C
:1022C0003C38FDF791FF227A54F8101C54F80C3C6E
:1022D00054F8287C54F8146C002502F0340012F0F5
:1022E000100C44F8345C44F8245C40F008004FEAD9
:1022F00001411BD0DB1B002BC8BF5B4244F8285CAC
:1023000044F80C3C2072316154F8083C6BB1114820
:10231000016800E013461A6844F8082C196003604D
:1023200054F8082C1946002AF4D1F8BDA3EB570342
:10233000002BC8BF5B4244F80C3C54F8183C207298
:10234000520754F81C0C44F828CC58BF1B043161C8
:102350000361D9E73C000020F8B5224E02783378BB
:1023600093423CD9204F21493B68054653F832003F
:10237000884203EBC20332D15C682046FDF734FF8C
:102380006B68A360AB68A3612B7B84F8253013B323
:102390002969616184F826306B6932781449002B11
:1023A0000CBF0223032384F824302B7E61609A4201
:1023B00015D93A6802EBC30152F833200D4B9A420B
:1023C0000DD1EB694A6884F8273022622046BDE8C7
:1023D000F840FDF747BF84F824302362F8BDFFF7CB
:1023E00087FD00BF8C010020880100205D290108C5
:1023F0009D2F0108CD29010838B51D4B02781B78A7
:10240000934233D91B4B1C491B68054653F83200D5
:10241000884203EBC20329D15C6872B62046FDF7FF
:10242000E3FE04F10C00FDF7DFFEE36933B10021A8
:102430001A461B68C2E90011002BF9D100220123C2
:1024400084F8222023846B68A360AB68C4E9063259
:1024500023B9EB6884F8223062B638BD2046FDF718
:1024600001FFEB6884F8223062B638BDFFF740FD0B
:102470008C01002088010020CD29010870B5124B85
:1024800002781B7893421DD9104B11491B680446F2
:1024900053F83200884203EBC20313D15D6872B671
:1024A00095F82030DB0701D462B670BD05F10C064B
:1024B0003046FDF799FE63686B613046FDF7D2FE4A
:1024C00062B670BDFFF714FD8C010020880100206A
:1024D000CD29010838B5234B02781B7893423FD9A8
:1024E000214B22491B68054653F83200884203EB12
:1024F000C20335D15C682046FDF776FE236AEFF310
:10250000108272B61968C9061CD482F310886B68F1
:102510006361A360AB6823612B7B84F82B305A1C6A
:1025200084F82A202A69E260D5E90501EA6984F87D
:1025300029206083A18303B938BD2046BDE8384017
:10254000FDF790BE196821F002011960196821F0A9
:1025500010011960996821F4A0019960DB6CD4E73F
:10256000FFF7C6FC8C010020880100202D280108FF
:1025700038B5284B02781B78934246D9264B274919
:102580001B6853F832408C4203EBC2033DD15C68B8
:10259000EFF3108172B6224A1368002B37D01D6802
:1025A000156081F3108845685D6082689A6072B634
:1025B000A26A0021196022B1E26A1360E36262B686
:1025C00038BD94F830205107C4E90A3316D442F0DC
:1025D000040384F83030930765610AD42046FDF780
:1025E00003FE104B2046C4E90135FDF73BFE62B601
:1025F00038BDA3685B1B002BF9DBEFE763695B1B4E
:10260000002BE4DA1320FDF721FEFFF771FCFFF742
:102610002DFC00BF8C01002088010020392001081A
:102620003C0000204D030108D0E908311A6810B5BC
:10263000D4063AD5920702D55A6B8A4205D08368F0
:1026400003F534638360012010BD1A6822F0020292
:102650001A601A6822F010021A609A6822F4A00226
:102660009A6090F82A2090F82B10DB6C8A429BB27B
:102670003CD301229142038380F82A2041D8428B27
:102680009A425ED8828B9A425BD3364B002280F806
:10269000282000221A72344A4369C4680121234465
:1026A000117043618360012010BDC9B2122941D06D
:1026B00009292CD81A6901EB41044FF0070C0CFAD8
:1026C00004FC22EA0C0C0422A24042EA0C021A6129
:1026D0005A6B22F01F020A435A639A6842F00102C1
:1026E0009A609A6842F4A0029A60A8E7B0F818C00D
:1026F0000132D2B263449BB29142038380F82A2014
:10270000BDD98368026913448360012010BDA1F123
:102710000A02DC6802EB42024FF0070C0CFA02FCE2
:1027200024EA0C0E4FF0040C0CFA02F242EA0E02FC
:10273000DA60CDE7DA6D22F0070242F00402DA65D2
:10274000C6E790F8283090F829200133DBB29A428E
:1027500080F82830034B9CD89A7A002A96D11A2008
:10276000FDF774FD280000205C01002008B5134B24
:1027700001781B788B421ED9114B124A1B6853F803
:102780003100904203EBC10315D15B6872B693F838
:1027900044001A6B5B69C0064CBFD21AA2EB53020D
:1027A00062B6002AB8BF5242BDE80840064802F1AE
:1027B0004042FDF76DBEFFF79BFB00BF8C01002080
:1027C00088010020851F01082889010810B5134BD6
:1027D00001781B788B4282B01DD9114B114A1B68BE
:1027E00053F83100904203EBC10314D1586872B61C
:1027F00090F82420C36962B6D0E90340A46804407D
:10280000003C18BF012408480094C2F34002FDF7C1
:102810003FFE02B010BDFFF76BFB00BF8C01002034
:10282000880100205D2901082089010870B5404A0F
:1028300005460023406802E00133802B73D012F874
:10284000011B8842F8D15A11012A68D0022A68D0A7
:10285000032A6BD1374E384A03F01F04D36A6FF353
:10286000080343F00703D362536943F47043536191
:10287000736823F4702323F480737360B2682F4B62
:10288000134043F46023B360F36A23F47003F362EC
:102890000123B360B36D9906FCD5B36D23F08003BB
:1028A000B365274BD3F8FC20D2010AD4D3F8FC201F
:1028B00042F08072C3F8FC20224A136843F00103FF
:1028C000136020494A6802F5B4624B689B1A002BDA
:1028D000FBDB0523B360B26812F00402FBD1FE28D3
:1028E00019D1194A936843F400039360A2F5FC32AE
:1028F000D2F8203843F48063C2F820382C221349E0
:102900002878FFF791FA0123114A80F82A30C0E9AC
:102910000864426070BD032104F018FBEEE70D4E21
:1029200099E70D4E97E73920FDF790FC064E92E7A8
:10293000C8890108001C024000100240FDF7F1FFA9
:1029400000ED00E0001000E0000802402D28010822
:1029500029260108000C024000180240F8B5282280
:10296000044618490078FFF75FFAD4E901326F2B6B
:1029700026D815490646180951F8205005B303F02A
:102980000F0301279F400439002351F8044FA5424B
:102990000ED00133072BF8D10020EFF3108472B66C
:1029A000002104F0D3FA84F31088C6E90357F8BD78
:1029B00097FAA7F11020B1FA81F113FB0010ECE7B0
:1029C00004F0C0FA5D290108488A010838B50F4BA8
:1029D0001A7803789A4216D90D4C226852F83310AF
:1029E000DD0081B90B49098869B90B4942F83310F8
:1029F0002420FFF7FFF923680849094A2B4458604F
:102A00004160026138BD0B20FDF720FC8C010020E5
:102A10008801002048000020CD290108F91E010886
:102A2000D92F010838B50D4B1A7803789A4212D97C
:102A30000B4C226852F83310DD0061B9094909884E
:102A400049B9094942F833101420FFF7D3F9236834
:102A50002B44586038BD0B20FDF7F8FB8C0100209B
:102A60008801002048000020411F010838B50D4BA7
:102A70001A7803789A4212D90B4C226852F8331014
:102A8000DD0061B90949098849B9094942F833109B
:102A90000C20FFF7AFF923682B44586038BD0B209A
:102AA000FDF7D4FB8C0100208801002048000020A5
:102AB0006D2A01082DE9F8432F4B02781B789342C9
:102AC00051D92E4B2E491B6853F832408C4203EBF0
:102AD000C20348D1047A5D68032C49D82B7C13F0DB
:102AE000060F45D14368C768032B3ED8254A03EB40
:102AF000430302EB830952F82360304604F0C6F921
:102B00008046A8B1204800231946013320FA03F279
:102B1000974226D2082BF7D138212B7C0C4343F067
:102B2000040344F451742B74C5E90064BDE8F883D0
:102B3000304604F0AFF899F8071099F80400012224
:102B400004F004FA99F8081099F80500424604F0D8
:102B5000FDF999F8091099F80600424604F0F6F9D3
:102B6000D0E7C900D9E7FFF7C3F93A20FDF76EFBBC
:102B70001B20FDF76BFB00BF8C01002088010020AB
:102B8000411F01089889010800A24A042DE9F04775
:102B90003A4A03781278077B9A4269D9384A126810
:102BA00002EBC30152F83320364B9A4260D1D0F881
:102BB00004804D68B8F1020F5CD8DFF8CC9059F86A
:102BC0003840204604F062F9064640B12B7A2C606A
:102BD00043F002037F002B722F71BDE8F08709EBF1
:102BE000C809204604F056F899F804A099F8058021
:102BF000012240F20111504604F0A8F9012240F2EE
:102C00000111404604F0A2F94FF0FF3240F20111E9
:102C1000404604F09BF94FF0FF3240F2011150465C
:102C200004F094F9012240F20111504604F08EF9AB
:102C3000012240F20111404604F088F95046012279
:102C40004FF4A17104F082F9012240464FF4A171C2
:102C500004F07CF94FF400432360482326604FF4CE
:102C6000B47263604923E261236201232360ADE70C
:102C7000FFF73EF93C20FDF7E9FA00BF8C01002088
:102C8000880100206D2A01088089010870B5114B68
:102C900002791B7893421AD90F4B10491B680446DE
:102CA00053F83200884203EBC20310D1257A0C4955
:102CB00020785E6805F10802FFF7B6F80571E16853
:102CC00006602A460530BDE8704004F0E1BDFFF71C
:102CD0000FF900BF8C01002088010020411F01086E
:102CE0008D2C01080346406B08B95861704770B5D8
:102CF00002682A4CB0F908105A63426890F80CC078
:102D000026680660458920601982186B11441CF002
:102D10000104D96093F8441018BF404228448E063D
:102D20001863986805D5104498605D6134BB012034
:102D300070BD9E6911F0100132445E699A6108BF4E
:102D40006D009A605D61002EF0D0121A1DD4002C27
:102D5000EDD021B112494A68121A002AFBDBD3E9EF
:102D60000A14CA680E486240CA604268D869996805
:102D70000244891A0029B8BF9A60D8E7D3E90A212A
:102D8000D3684B40D360012070BD064DAA42A8BF56
:102D90009860DCDA1820FDF759FA00BF3C000020EB
:102DA000001000E080CDFDFF30B4D0E90814CA68FF
:102DB0006240144CCA6041696268C469CD0722440C
:102DC000034601F1FF3408D490F84410C90605D435
:102DD0005C61012030BC9A6070477CB1DD68996904
:102DE000B3F9100029442844D860881A0028996152
:102DF000EEDB5C61012030BC9960704730BC8260C2
:102E0000FFF770BF001000E038B5334B02781B7835
:102E1000934259D9314B32491B6853F832408C42A6
:102E200003EBC20350D15C68EFF3108272B62D4DF4
:102E30002B68002B4DD01968296082F310884268F6
:102E40005A6002895A81002A40D0C1681981002243
:102E50001A7372B694F84420C2F3400002F00101E4
:102E6000884205D0197B41F0010182F001021973FB
:102E70006169B9B912F0080104D02A681A602B60A0
:102E800062B638BD606B84F844201960A8B1A26BAB
:102E90001360A3632046FFF725FF2046FDF7E2F904
:102EA00062B638BD616B84F844200020186039B1E7
:102EB000A26B1360A36362B638BDC4E90D33E9E7C2
:102EC000C4E90D3362B638BDFFF712F81720FDF7DD
:102ED000BDF9FEF7CBFF00BF8C0100208801002068
:102EE000851F01083C000020F8B5EFF3108772B68B
:102EF00090F82030DA071CD5044623F00503C0699A
:102F000084F8211043F004030E4684F8203050B1B9
:102F10000025D0E900233146E261C0E90055984719
:102F2000E0690028F5D1044B00221A72034B0122FC
:102F30001A7087F31088F8BD28000020580100207F
:102F4000D0E90332996890F8243011421CBFDB436A
:102F500003F00103DB070ED410B590F82630013BD7
:102F600013F0FF0411D08368826980F8264013446F
:102F70008360012010BDC269074990F8253080F8B0
:102F80002630C0E901120120704790F82710006A2E
:102F9000FFF7AAFF204610BD9D2F010810B4D0E90D
:102FA000022301699C6890F82430D0F814C00C42C8
:102FB0001CBFDB4303F00103DB07624403D58260DF
:102FC00010BC01207047034B10BCC2614360FFF787
:102FD000B7BF00BF412F010808B503460C38997DE3
:102FE000FFF782FF002008BD30B5154B05781B7830
:102FF000AB4283B022D9134B134A1B6853F83510E8
:10300000914203EBC50319D15C6872B60179204681
:10301000FFF76AFF2046FDF7E7F804F10C00FDF723
:10302000E3F8002294F8213084F8202062B60748A3
:1030300000922946FDF72CFA03B030BDFEF758FF89
:103040008C01002088010020CD2901081889010881
:103050002DE9F04F90F810B01BF0060F85B036D078
:103060001BF0020F1C46064603680F4632D1196852
:103070004068814204D021F040011960196818604D
:103080001BF00101019140F00E81224494420DD2C7
:10309000013C511E14F8012F1A739A68D207FCD50F
:1030A0001A7BD2B207B12270A142F3D19A6802F022
:1030B0008202022AFAD1019B4BB10BF00809D6E932
:1030C00002E1B9F1000F40F0D280CEF8101005B047
:1030D000BDE8F08F197FDFF8E8C19869D3E904A84B
:1030E000890756BF4FEA0841CAF81080CAF8101085
:1030F000DCF804500544DCF80410491B0029FADB15
:103100001BF00101019140F0B680DCF80410450885
:1031100001EB500CA0EB5000002AD8D0013ACDE9C9
:1031200002B654FA82FE5146654ABA46013C0F4641
:10313000197F14F8016F11F001014FF008094CD00C
:103140000021D2F804B0ABEB0C0BBBF1000FF8DBA5
:10315000EFF3108B72B6D7F80CC088EA0C0CC7F8E6
:103160000CC08BF31088D3E902C716F0800F08BF9C
:103170003F04CCF81070576876004900F6B25FFA49
:1031800081FB07445168C91B0029FBDBD3E90478A4
:10319000EFF3108C72B6F96881EA0801F9608CF3DC
:1031A000108819688F6859680F40002F0CBF594666
:1031B0004BF001015768B9F1010907EB050C03D089
:1031C000D3E90478BDE7009CBAF1000F00D021706C
:1031D000744549D0D3E90478AAE70094D2F804B042
:1031E000ABEB0C0BBBF1000FF8DBD3E902BC3406F0
:1031F00058BF4FEA0C4CCBF810C0EFF3108B72B6EF
:10320000D7F80CC08CEA080CC7F80CC08BF31088F8
:103210005768009C76004900F6B2C9B207EB000C73
:103220005768A7EB0C07002FFADB1F680094BF68F4
:103230005C682740002F18BF41F00101D3E904C7A3
:10324000EFF3108B72B6DCF80C8087EA0807CCF835
:103250000C708BF310885768B9F1010907EB050C66
:10326000B1D0D3E90478B9E7DDE902B623E7090470
:10327000CEF810102BE71BF0080FD6E902E10BF097
:10328000080919D10D04CEF810500D4D6D6805EBED
:10329000500C4508A0EB5000002A7FF43FAFB9F175
:1032A000000FE4D111E71BF0080FD6E902E100D1CD
:1032B0000904CEF81010E8E6CEF81010E5E700BFDC
:1032C000001000E070B5104B04781B78A34218D9A9
:1032D0000E4B0F4A196851F83450954201EBC40166
:1032E0000FD186680579486833462A460121FFF7E1
:1032F000AFFE33462A4621460648BDE87040FDF73A
:10330000C7B8FEF7F5FD00BF8C0100208801002042
:10331000411F01080889010870B50C4B02781B7821
:10332000934210D90A4B0B4C196851F83250A54200
:1033300001EBC20107D1836802794868BDE870409B
:103340000021FFF785BEFEF7D3FD00BF8C010020F2
:1033500088010020411F010870B4867F84467EB139
:1033600000EBC600634600260122D3E908148D68ED
:103370000833254218BF164351008342CAB2F4D124
:103380009CF81030B34209D09CF8111081EA060273
:10339000D243D2B283EA0600024215D19CF91C2026
:1033A0009CF81C308CF81160002A05DB013BDBB275
:1033B000FF2B24D08CF81C30DCE9023213440120AE
:1033C00070BCCCF80830704723EA02039CF8122046
:1033D00031400B43072A8CF81030DFD8511C62446F
:1033E0008CF812100949D37400230B72084A8CF828
:1033F00011600121FF2311708CF81C30DCE7034AB7
:1034000000211172024A01211170D3E72800002027
:1034100060010020D0E9032170B5D368446A4B40B5
:10342000D360427F90F81CE0C57F0132D2B28EF0AB
:10343000010EAA4280F81CE0264605D317E05FFA89
:103440008CF2AA42264412D200EBD20302F007010A
:1034500093F828300B418EEA0303DB0702F1010CDD
:10346000EDD58368427733448360012070BD836863
:10347000024A426033448360012070BD313C010840
:10348000D0E9032110B4D368154C4B40D360437F7F
:10349000017F646882680133DBB281F00101012B96
:1034A00001774377016A17D0042B04D81144816057
:1034B00010BC01207047436A1344E41AA31C48BFA0
:1034C000631D01EBA30114444162064B4360214498
:1034D000816010BC01207047A41A4462E6E700BF77
:1034E000001000E015340108D0E909219268034674
:1034F0000A4080699968003A18BF012200F0010C67
:1035000062455A6918BF0130A2EB010218BFC3E936
:103510000601002A04DBDA680A4401209A60704739
:1035200010B41A6993F82000094C0A4440F00100D5
:103530005A61002283F820002272064A996801200D
:103540001070DA6810BC0A4401209A60704700BF0E
:10355000280000206801002030B500F10C0203466D
:103560008C4692E8030085B004AA143302E90300F4
:1035700093E803001F4ACDE9000108211CF0800FE9
:1035800029D150681C3053681B1A002BFBDBDDE986
:103590000205EFF3108472B6C3686B40C36084F316
:1035A000108850681C3053681B1A002BFBDB4FEA55
:1035B0004C0CDDE902045FFA8CFCEFF3108E72B65E
:1035C000C3686340C3608EF31088013911F0FF01B6
:1035D000D4D105B030BDDDE90003EFF3108472B63D
:1035E000C5686B40C36084F310886FEA0C0C5FFA07
:1035F0008CFCC6E7001000E02DE9F84F17460D4699
:1036000017F801BBD0F800A04668194C0BF0F00188
:1036100091468046FFF7A0FF6368A3EB0A039E4232
:10362000FAD84FEA0B1101F0F0014046FFF794FF82
:10363000012D6468D8F8086016D0A9440C4D17F81D
:1036400001AB40460AF0F001FFF786FF6B681B1BD9
:103650009E42FBD84FEA0A1101F0F0014046FFF705
:103660007BFF4F456C68EAD1C8F80040BDE8F88F91
:10367000001000E02DE9F04F00F1140302460F4660
:1036800093E8030097B00AAE02F11C0386E803003A
:1036900093E8030008AD02F1240385E8030093E8F2
:1036A000030006AC02F12C0384E8030093E8030056
:1036B0000DF1100E02F134038EE8030093E80300CD
:1036C0000DF1080C8CE8030096E803000DF1500999
:1036D00089E8030095E803000DF14808137A88E8AB
:1036E000030094E803000DF1400A8AE80300DDE9D5
:1036F00014B001909EE803000DF1380A8AE8030037
:103700009CE803000DF1300A8AE803007B40EFF3E8
:10371000108A72B6DBF80C1001984840CBF80C0008
:103720008AF31088D90661D498066CD4590677D4E8
:103730001B0600F183805E4B586821305968091AD6
:103740000029FBDBDDE9140BEFF3108A72B6C168C8
:1037500081EA0B01C1608AF310883901C9B2117284
:103760005A685348263243689B1A002BFBDB81EAD8
:10377000070396E8030089E8030095E8030088E85A
:10378000030094E8030010AA82E803009EE8030007
:103790000EAA82E803009CE803000CAA82E803005A
:1037A000149C1598EFF3108172B6E2684240E26013
:1037B00081F31088D8066FD4990662D45A0649D48A
:1037C0001B0653D43A494A6821324B689B1A002B96
:1037D000FBDBDDE91423EFF3108172B6D0684340C0
:1037E000D36081F3108817B0BDE8F08FDDE9120BCC
:1037F000EFF3108A72B6C16881EA0B01C1608AF3E7
:103800001088980692D5DDE9100BEFF3108A72B696
:10381000C16881EA0B01C1608AF31088590687D517
:10382000DDE90E0BEFF3108A72B6C16881EA0B0175
:10383000C1608AF310881B067FF57DAFDDE90C1AA5
:10384000EFF3108072B6CB6883EA0A03CB6080F393
:10385000108870E7DDE90E14EFF3108072B6CA68C5
:103860006240CA6080F310881B06ABD5DDE90C23EB
:10387000EFF3108172B6D0684340D36081F31088B3
:10388000A0E7DDE91014EFF3108072B6CA68624059
:10389000CA6080F3108891E7DDE91214EFF310801D
:1038A00072B6CA686240CA6080F3108884E700BFBD
:1038B000001000E008B52120FCF7C8FCC1690269CE
:1038C000B1F808C002FB0CF208B502F580420346CD
:1038D000C068D1F800E0C3F81CE0D20B0260104AC7
:1038E00010680860D86911601A8B50B9944507D0E8
:1038F000586928B19A680B490244C3E901120120B2
:1039000008BD9445416801D05A690AB99960F6E743
:1039100098680244521A002AF8DA2020FCF796FC34
:103920003C000020B538010810B5184B02781B7810
:10393000934228D9164B17491B6853F832408C42E2
:1039400003EBC2031FD15C680379E27E1A44E2767E
:1039500072B6A27C9A4205D80022FE23A274237775
:1039600062B610BDD21AD0B2123304F1120223444F
:1039700002EB000C13F8011F02F8011F6245F9D198
:10398000A07462B610BDFEF7B3FA00BF8C01002030
:1039900088010020293E010838B50F4B02781B78BA
:1039A000934217D90D4B0E491B68044653F8320059
:1039B000884203EBC2030DD15D68F8212846FFF76A
:1039C000CBFD217901B938BDA2682846BDE8384051
:1039D000FFF712BEFEF78CFA8C0100208801002050
:1039E0006942010838B50F4B02781B78934217D90A
:1039F0000D4B0E491B68044653F83200884203EB16
:103A0000C2030DD15D68FA212846FFF7A5FD217993
:103A100001B938BDA2682846BDE83840FFF7ECBDC3
:103A2000FEF766FA8C010020880100206942010837
:103A30002DE9F843194B02781B7893422CD9184B87
:103A400018491B6853F832408C4203EBC20323D160
:103A50005F68D7E903231B0413610179D0F808904C
:103A60004B1ED7E90025DBB299B109F101060E4CD6
:103A700006EB03084B46B146197863689B1A9D42D2
:103A8000FBD83846FFF7F6FD4645626801D001369F
:103A9000F0E73A60BDE8F883FEF72AFA8C010020CF
:103AA00088010020FD420108001000E02DE9F843E4
:103AB000194B02781B7893422BD9184B18491B6875
:103AC00053F832408C4203EBC20322D15F68D7E93E
:103AD00003321A610179D0F808904B1ED7E900250E
:103AE000DBB299B109F101060E4C06EB03084B4617
:103AF000B146197863689B1A9D42FBD83846FFF798
:103B0000B9FD4645626801D00136F0E73A60BDE88C
:103B1000F883FEF7EDF900BF8C010020880100203A
:103B2000FD420108001000E038B50446437F4069BB
:103B3000D4F818C0856804EBD30003F00702012114
:103B4000914090F8282015EA0C0F1ABF0A43D2B210
:103B50008A4380F82820A27F0133DBB29A4206D93B
:103B6000A268616A63770A44A260012038BD237F9E
:103B70009A060ED4D4E9032111610A4A03F03003F6
:103B800043F00903002023771072074B01221A70BB
:103B900038BD04F10C0393E80300012203F0F4FAAA
:103BA000237FEAE72800002064010020D0E90531E6
:103BB00010B59B68027F0B4004460DD042F0040212
:103BC0000277637F5A1C3F2B62770ED8A368626A24
:103BD00013440120A36010BD5107F2D5114A437769
:103BE000BDE810404260FFF79FBF237F0022A2770D
:103BF0009A0613D504F10C0393E80300012203F0A5
:103C0000C3FA237F084A03F0300343F0090300207E
:103C100023771072054B01221A7010BDD4E90321DD
:103C20001161EFE7293B0108280000206401002012
:103C300038B5027F817F044602F0200309B353B9EF
:103C4000A368606A224A002103EB80036177C4E91C
:103C50000123012038BD45691E4902F010020023EE
:103C600051F8040FA84225D00133072BF8D10020CA
:103C7000EFF3108572B6002103F068F985F3108820
:103C8000DEE773B9D0E903311961134B02F030025A
:103C900042F00902002022771872104B01221A709C
:103CA00038BD00F10C03012293E8030003F06CFA25
:103CB000227FEAE7A06990FAA0F10028B1FA81F129
:103CC0004FF0100008BF4FF0FF3113FB0010CFE79B
:103CD000AD3B0108448A010828000020640100204F
:103CE0002DE9F04F4B4B04781B78A34283B040F290
:103CF0008F80494B494A1B6853F83410914203EBBB
:103D0000C40340F085805D684548D5E903124368E7
:103D10005B1A9A42FBD895E8030002AB03E9030063
:103D2000AE8A3F4BD5F808C05F6805F1160E9EB30A
:103D300006EB0E0B1EF8011B08200A0630D55A6848
:103D4000D21BB32AFBD972B6DDF800A0D3F80480E9
:103D5000019EDAF80C207240CAF80C2062B6A8EB7B
:103D60000707BC4545D949005A68A2EB0802732AE7
:103D7000FAD972B6DDE90092D9F80C707A40C9F828
:103D80000C2062B65F685A68D21B1C2AFBD9013826
:103D90004746D2D1DE45CDD1214B01225B682FE0D1
:103DA0005A68D21BB32AFBD972B6DDF80090D3F85B
:103DB0000480DDF804A0D9F80C208AEA0202C9F8D0
:103DC0000C205A68A2EB08021C2AFAD9D9F80C2058
:103DD0008AEA0202C9F80C2062B6A8EB0707BC45C4
:103DE00007D901384FEA41014746A6D1DE45A1D1A6
:103DF000D2E7DDE900130A4A1B040B615368002275
:103E00000848EB60214603B0BDE8F04FFCF740BB2B
:103E1000FEF76EF88C010020880100202142010885
:103E2000001000E0E888010810B50479082C09D8D2
:103E3000221D06490078D200FDF7F6FF044B847777
:103E4000436010BD2420FCF701FA00BF293E0108A1
:103E50005933010800B5014683B0D1E90123684612
:103E6000097803F05FFA03B05DF804FB30B504464F
:103E700083B0D0E902230179684603F053FA11496F
:103E800020782422FDF7D0FF0346DDE9000103F18D
:103E90000C0282E803000C49D4E904040988188361
:103EA00000220A485C61C3E90722586039B9084B0F
:103EB0001A780B2A9CBF0C221A7003B030BDFDF794
:103EC000D9FF00BF6D3E010848000020BD38010841
:103ED0004000002038B51A4B02781B78934229D94C
:103EE000184B19491B68054653F83200884203EB0A
:103EF000C2031FD15C682046FCF776F96A68A260AD
:103F0000A868E0602A7C00210B4662F3070362F395
:103F10000F234FF47E42A1742382A4F81B20EB6888
:103F200063771B0608D400B938BD2046BDE8384089
:103F3000FCF798B9FDF7DCFF2220FCF787F900BFFA
:103F40008C01002088010020293E010838B5104B63
:103F500002781B78934219D90E4B0F491B6805460E
:103F600053F83200884203EBC2030FD15C6820464D
:103F7000FCF73AF96B68A360AA68E260EA68204639
:103F8000C4E90423BDE83840FCF76CB9FDF7B0FF85
:103F90008C01002088010020E940010838B5234B3E
:103FA00002781B7893423CD9214B22491B6853F875
:103FB00032408C4203EBC20333D15D68EFF31082D1
:103FC00072B61D4B1C68002C2DD02168196082F33D
:103FD0001088436863608368238172B6EB690022AE
:103FE000226023B12B6A1C602C6262B638BDC5E921
:103FF000074462B62846FCF7F7F8104A6968636818
:10400000914207D00E4A2846C5E90123BDE8384051
:10401000FCF728B9AA68D21A002AF3DA2020FCF7A4
:1040200015F9FDF765FFFDF721FF00BF8C010020AA
:10403000880100206D3E01083C000020B5380108D1
:10404000BD3801082DE9F041234B02781B789342DB
:1040500040D9224B22491B6853F832408C4203EB73
:10406000C20337D15D680679AB7FB3422FD9D0E95F
:1040700002326F2B4FEA131027D81A4951F820400B
:104080001CB303F00F0301279F400439002351F8AC
:10409000040F844211D00133072BF8D10020EFF335
:1040A000108872B6002102F051FF88F3108805EBEA
:1040B000C605C5E90847BDE8F08197FAA7F11020C9
:1040C000B1FA81F113FB0010E9E702F03BFF232076
:1040D000FCF7BCF8FDF70CFF8C01002088010020E4
:1040E000293E0108488A0108F8B52C2204461949DE
:1040F0000078FDF799FED4E901326F2B28D81649D4
:104100000646180951F8205015B303F00F03012794
:104110009F400439002351F8044FA54210D00133C9
:10412000072BF8D10020EFF3108472B6002102F0C3
:104130000DFF84F31088094B7360C6E90957F8BD79
:1041400097FAA7F11020B1FA81F113FB0010EAE70A
:1041500002F0F8FEE9400108488A0108E934010844
:104160002DE9F04F064634222B49007883B0FDF745
:104170005BFE96F808A07768D6F80C90BAF10002BA
:1041800018BF01226F2F45D824493B0951F823401D
:10419000002C3FD007F00F034FF0010808FA03F896
:1041A00005460439002351F8040F84422AD0013314
:1041B000072BF8D10020EFF3108B72B6002102F02C
:1041C000C5FE8BF31088012249466846C5E90548BB
:1041D00003F008F8DDE9000105F10C0383E80300B2
:1041E000A7EB0907BAF1000FB7FA87F732692A621D
:1041F0000CBF012311237F0943EA47132B7703B038
:10420000BDE8F08F98FAA8F11020B1FA81F113FB04
:104210000010D0E702F096FE61410108488A0108CB
:1042200030B5044683B041680022684602F0DAFFE8
:10423000A3681A0413D49DB205F118020949207825
:1042400092B2FDF7F1FD03469DE8030083E8030009
:10425000E2689A6022699D821A6103B030BD27200E
:10426000FBF7F4FF21420108F0B5224983B005466F
:104270001C220078FDF7D8FDA96804460022684694
:1042800002F0B0FFDDE9000104F10C0383E8030054
:104290000022E968684602F0A5FFDDE9000104F1AB
:1042A000140383E8030001226968684602F09AFF5C
:1042B0002046F821FFF750F920212046FFF74CF95E
:1042C00072B60D4F002120467E68FFF745F97B68E6
:1042D00062B6236029699A1B8A4202D2F01A01440D
:1042E000616069698A4202D2F61A0E44A66003B080
:1042F000F0BD00BF69420108001000E0F0B52E4992
:1043000083B005463C220078FDF78EFD69680646BD
:104310000022684602F066FFDDE9000106F10C03A9
:1043200083E803000022A968684602F05BFFDDE92C
:10433000000106F1140383E803000022E9686846DF
:1043400002F050FFDDE9000106F11C0383E80300E1
:1043500000222969684602F045FFDDE9000106F107
:10436000240383E8030000226969684602F03AFFEB
:10437000DDE9000106F12C0383E803000022A969AE
:10438000684602F02FFFDDE9000106F1340383E8FF
:10439000030072B6094F002130467C68FFF76AF9C6
:1043A0007A6862B6EB69111B994202D2A41A1C44C6
:1043B000746003B0F0BD00BFFD420108001000E0D2
:1043C0002DE9F041244B02781B7893423FD9234BCF
:1043D00023491B6853F832408C4203EBC20336D1A9
:1043E0005C68257F15F0020801D0BDE8F0810679F0
:1043F0008168077B0A2E2CD80A2F2AD8324604F16E
:10440000280005F0310503F043FA45F00205FF00EE
:10441000F30084F81D802577E377A7772EB194F811
:10442000283003F03F032A2B0FD0226A0D4B626223
:10443000636072B60C4B5B6803F5E1432046A360F2
:10444000FBF710FF62B6BDE8F081084BF0E7FDF71F
:104450004FFD2520FBF7FAFE8C010020880100208B
:104460006141010815340108001000E081340108A1
:1044700010B5124B02781B78934219D9104B114991
:104480001B6853F832408C4203EBC20210D14368E0
:104490005468D0E9022118040CD4A08A03EB020C62
:1044A000844507D81633E018BDE8104003F0F0B992
:1044B000FDF71EFD2620FBF7C9FE00BF8C01002082
:1044C00088010020214201082DE9F04390F8108076
:1044D000D0F81490B8F1030F85B04BD8294B02786F
:1044E0001B789342054648D9274B28491B6853F847
:1044F0003200884203EBC2033FD1254A25491468A4
:104500005F6804F120038B4239D813600021202218
:1045100002AE204603F03CF969680122304602F001
:104520008DFE96E8030084E803000022A96868462F
:1045300002F058FEDDE9000104F1080383E80300FE
:104540000022E968684602F04DFEDDE9000104F151
:10455000100383E8030084F81C80C4F818903B7CA7
:1045600013F0060F06D143F002033C603B7405B024
:10457000BDE8F0831B20FBF769FEFDF7B9FC1120B5
:10458000FBF764FE8C01002088010020411F010818
:10459000B000002000FE01202DE9F0412F4B0278F1
:1045A0001B78934284B054D92D4B2E491B68054685
:1045B00053F83200884203EBC2034AD12A4A2B49FE
:1045C0001468D3F8048004F128038B4243D81360A5
:1045D00000212822204603F0DBF8EB6863622B6998
:1045E0000122934084F8203002AF6968384602F017
:1045F000F9FD97E8030084E8030001226968684632
:1046000002F01CFEDDE9000104F1100383E8030061
:104610000122A968384602F0E5FD97E8030004F19D
:10462000080383E803000122A968684602F006FE39
:10463000DDE9000104F1180383E8030098F808306D
:10464000C8F8004043F0010388F8083004B0BDE822
:10465000F081FDF74DFC1120FBF7F8FD8C010020E7
:10466000880100206D2A0108B000002000FE012012
:10467000013808B503280FD8DFE800F00B08050261
:104680001D20FBF7E3FD1E20FBF7E0FD1C20FBF7E0
:10469000DDFD1F20FBF7DAFD08BD00BF2DE9F0416D
:1046A000414B02781B7893427BD9404B40491B68B1
:1046B00053F832408C4203EBC20372D15B681A7A22
:1046C0001D68D607D0E901841BD595F8201028462F
:1046D00001F09CFC0646002861D154FA88F806E0F7
:1046E00014F8011B284601F0A7FB002851D14445CE
:1046F000F6D1284601F002FD3046BDE8F041FFF753
:10470000B7BF2C4F19797E6806F52F265FFA88F817
:1047100006F5486633464246284602F0BFFD08F1DA
:10472000FF33012808BF0320DBB2B8F1000F16D019
:1047300004F1010C9C4490B9214611F8013B2B6116
:104740006A69140606D4520521D47A68921B002A9D
:10475000F6DB02208C4502D00C460028ECD040F25B
:10476000012314492B6005E0530514D44A68921BB9
:10477000002A12DA6A6912F08003F5D11E46002879
:1047800018BF06463046BDE8F041FFF771BF012073
:10479000E0E70126ADE70126F1E70226EFE7032671
:1047A000A7E7FDF7A5FB00BF8C01002088010020D2
:1047B0006D2A0108001000E02DE9F04F9A46037AB7
:1047C000046883B0DE071546DDF830900A4640F1F4
:1047D000A880002940F01C8194F82010204641F068
:1047E000010101F013FC0746002840F063810AF143
:1047F000FF385FFA88F8BAF1000F00F08B80B04DF7
:1048000001904FF0100ADFF8BCB2A0695A460023AD
:1048100052F8041F814200F02F810133072BF7D19A
:104820000020EFF3108672B60122002102F08EFB09
:1048300086F3108808270026CDF800806A68636A2E
:104840001A446B689B1A002BFBDB21695B46002036
:1048500053F8042F8A4200F0EF8001300728F7D187
:104860000020EFF3108872B60122002102F06EFBE7
:1048700088F310886A68636A1A446B689B1A002B75
:10488000FBDBD4E906329B687600134094E8030012
:104890000022F6B2934218BF46F0010602F074FC03
:1048A000013FCBD1DDF80080B8F1000F40F0D0809F
:1048B0006A68636A1A446B689B1A002BFBDB2169E8
:1048C00000235BF8042F8A4200F0CA800133072BD3
:1048D000F7D1EFF3108B72B601223846002102F0B7
:1048E00035FB8BF310886A68636A1A446B689B1AFD
:1048F000002BFBDB08F1FF3894E8030000225FFA8D
:1049000088F802F041FCB8F1FF0F09F8016B7FF461
:104910007AAF019F204601F0F1FB384603B0BDE8B5
:10492000F08F674E0179736803F52F2B41F0010872
:104930000BF5486B002A3DD141465B465246204666
:1049400002F0ACFC0128074600F0B680002840F0D9
:10495000AD800AF1FF32D2B2BAF1000F1BD0584835
:1049600040F20125636913F4886F04D14368A3EB17
:104970000B03002BF6DBEFF3108172B62369012ADB
:10498000DBB200F0878081F31088013AD2B2FF2AAF
:1049900009F8013BE6D14A4A05E05368A3EB0B0353
:1049A000002B80F28B8063695D06B6D55805F4D57F
:1049B0000127B2E75B462046009202F06FFC009AA6
:1049C000012807462A4408BF03278FB915F8013B81
:1049D00023616369190607D45B0562D47368A3EB8E
:1049E0000B03002BF5DB0227AA42EED1002FA3D048
:1049F00040F20123324A236006E05B058DD4536800
:104A0000A3EB0B03002B88DA6369190685D5F4E75D
:104A10000091204694F8201001F0F8FAC0BB009AEB
:104A2000AE1805E015F8011B01F006FA00283FD189
:104A3000B5422046F6D1CFE6626992FAA2F3002A87
:104A4000B3FA83F308BF4FF0FF3310FB0A3008E7D7
:104A500004F1080393E803003A4602F095FB27E7C8
:104A60006769002F97FAA7F7B7FA87F708BF4FF0E3
:104A7000FF3713FB0A772CE7E269002A92FAA2F2C9
:104A8000B2FA82F208BF4FF0FF3213FB0A20C8E6E9
:104A900003273FE7256081F31088002209F8013BD6
:104AA00060E7AA424FF001078FD19FE702279FE7F7
:104AB00001272FE704272DE7042799E702272CE792
:104AC000001000E0448A0108F0B5164B83B01B7853
:104AD0000478A34202AF22D9134B144A1B68014643
:104AE00053F83400904203EBC40318D10D7B58688F
:104AF000EB1D03F4FC73ADEB030D02AE00968A6868
:104B000009792B46FFF758FEFFF7B2FD08483346F8
:104B10002A462146FBF7BCFC0437BD46F0BDFDF735
:104B2000E7F900BF8C010020880100206D2A0108F0
:104B300000890108074B00221A72C27F8368D0F8EF
:104B40000CC00549634442F00102C2778360012032
:104B500008707047280000206C010020027D054984
:104B6000034642F0010200201A750872024B01222E
:104B70001A7070472800002070010020427D05490E
:104B8000034642F0010200205A750872024B0122CE
:104B90001A7070472800002074010020027E054929
:104BA000034642F0010200201A760872024B0122ED
:104BB0001A7070472800002078010020027E054905
:104BC000034642F0010200201A760872024B0122CD
:104BD0001A707047280000207C010020427B016988
:104BE000D20703460AD5428D032001325A855873F5
:104BF00089009A680A4401209A607047D0E906202B
:104C000092680240F5D110B4064C0120587322720C
:104C1000054A10709A6810BCC9000A4401209A60C5
:104C2000704700BF2800002080010020027FC1687B
:104C3000034642B1028C0132890002849A680A4418
:104C400001209A607047D0E9042092680240F5D1B3
:104C500010B4064C012018772272054A10709A6829
:104C600010BCC9000A4401209A6070472800002047
:104C700084010020027D0346D00702D5198B013143
:104C80001983910704D5D3E914018068084208D13B
:104C9000074942F0010200201A750872054A0121F5
:104CA0001170D3E902210A4401209A60704700BFC5
:104CB0002800002090010020027D510703460ED5F8
:104CC000C27D0132C275084A002111729A68D3F878
:104CD0000CC006490120624408709A60704742F097
:104CE00004020275EFE700BF2800002094010020B5
:104CF00030B5847D521A24B1651E0121A9400A44B1
:104D0000E240017FFE2A01F1030C01F101045FFA88
:104D10008CFC01F1020E0DD8DDB2D2B2C3F3072331
:104D200001444A770219557700EB0E02537780F859
:104D30001CC030BDFF2201250023F1E710B50D494D
:104D4000044650220078FDF76FF80B4B22791B7850
:104D50000A49416093420BD9094B0A491B6853F831
:104D600032408C4203EBC20302D15B68036110BD89
:104D7000FDF7BEF83D4D01088C0100205D4B010898
:104D800088010020411F010810B50D490446542236
:104D90000078FDF749F80B4B22791B780A494160EE
:104DA00093420BD9094B0A491B6853F832408C4295
:104DB00003EBC20302D15B68036110BDFDF798F8F5
:104DC000894D01088C0100209D4B010888010020BD
:104DD0006D2A010810B50D49044654220078FDF7EC
:104DE00023F80B4B22791B780A49416093420BD977
:104DF000094B0A491B6853F832408C4203EBC2034B
:104E000002D15B68036110BDFDF772F8D54D010852
:104E10008C010020BD4B0108880100206D2A01088B
:104E200010B50F4B027819788A4217D20D4B1B68C8
:104E300053F8324003EBC20C0B4A94420ED1027974
:104E4000DCF804008A4209D253F8324007498C4208
:104E500003EBC20302D15B68036610BDFDF748F89F
:104E60008C01002088010020255B0108DD5D010820
:104E700010B50F4B027819788A4217D20D4B1B6878
:104E800053F8324003EBC20C0B4A94420ED1027924
:104E9000DCF804008A4209D253F8324007498C42B8
:104EA00003EBC20302D15B68836510BDFDF720F8F8
:104EB0008C01002088010020D15B0108DD5D010824
:104EC00010B50D49044668220078FCF7ADFF0B4B86
:104ED00022791B780A49416093420BD9094B0A4950
:104EE0001B6853F832408C4203EBC20302D15B686B
:104EF000036110BDFCF7FCFFC14E01088C010020CE
:104F0000754C0108880100206D2A010810B5184B66
:104F100093F800C00378634528D2164A116851F807
:104F2000334001EBC302144B9C421FD1526883688B
:104F300013661BB982F85C30936510BD43685366F5
:104F4000037B634512D201EBC30451F833100B4BC2
:104F500099420BD10369616882F85D30436982F838
:104F60005E30062382F85C30916510BDFCF7C0FF0F
:104F70008C01002088010020C14E0108CD290108C4
:104F800038B5057A032D1BD80F4904462022007836
:104F9000FCF74AFF0D4B0E491A78237941609A427B
:104FA0000CD90C4A126802EBC30152F833200A4BA9
:104FB0009A4203D14B688577836138BDFCF798FF2F
:104FC0002920FBF743F900BF814F01088C01002025
:104FD000354B010888010020411F010870B550229F
:104FE00004461B490078FCF71FFFA368194A42607A
:104FF000BBB1012B25D1184A217912788A421ED9DA
:10500000164A174D126852F83160AE4202EBC102E7
:1050100015D152680375E3680261012B14D88375BA
:1050200070BD0D4A217912788A4208D90B4A0D4D7C
:10503000126852F83160AE4202EBC102E9D0FCF7CF
:1050400057FF2B20FBF702F92A20FBF7FFF800BFE0
:10505000DD4F01087D4B01088C01002088010020F4
:105060006D2A0108411F010838B5057A052D1ED8A3
:105070001249044650220078FCF7D6FE104B114925
:105080001A78237941609A420FD90F4A126802EBCD
:10509000C30152F833200D4B9A4206D14B6803618D
:1050A0001B7CDB0706D5457538BDFCF721FF30209A
:1050B000FBF7CCF82F20FBF7C9F800BF69500108B7
:1050C0008C010020B94C010888010020411F010813
:1050D00008B53120FBF7BAF810B5124B02781B78EF
:1050E00093421AD9104B11491B6853F832408C4235
:1050F00003EBC20311D15A680379117899420ED398
:1051000053708368C3F11F03DBB20120591E00FAFC
:1051100001F19370D070516010BDFCF7E9FEFFF70C
:10512000D7FF00BF8C01002088010020415D0108ED
:1051300010B5134B02781B7893421DD9114B1249BD
:105140001B6853F832408C4203EBC20314D15B68F6
:105150000022DA701978027991420FD9C2EBC202AB
:1051600003EB82030433021D183052F8041F43F886
:10517000041F8242F9D110BDFCF7BAFEFFF7A8FF69
:105180008C01002088010020415D010810B5134BFF
:1051900002781B7893421DD9114B12491B6853F8B2
:1051A00032408C4203EBC20314D15A680023D370FF
:1051B0001178037999420FD9C3EBC30102EB810146
:1051C00001338468CC61C3EBC30302EB8302C36881
:1051D000536010BDFCF78CFEFFF77AFF8C010020B6
:1051E00088010020415D010838B5144B02781B7816
:1051F000934220D9124B13491B68044653F83200DE
:10520000884203EBC20316D15D682846FAF7ECFF2B
:105210006368AB60A368EB6003B938BDE3682B61DA
:1052200023696B6162692A7700236B772846BDE8A2
:105230003840FBF717B8FCF75BFE00BF8C0100207D
:1052400088010020814F010838B5144B02781B7883
:10525000934221D9124B13491B68054653F832007B
:10526000884203EBC20317D15C682046FAF7BCFF03
:10527000002323756A6802B938BDE260C4F81630AD
:10528000A37672B6084AE368526813442046A360C6
:10529000FAF7E8FF62B638BDFCF72AFE8C01002061
:1052A000880100203D4D0108001000E038B5144B86
:1052B00002781B78934221D9124B13491B6805468B
:1052C00053F83200884203EBC20317D15C682046D2
:1052D000FAF78AFF002363756A6802B938BDE26095
:1052E000E375A361237772B6084AE36852681344F2
:1052F0002046A360FAF7B6FF62B638BDFCF7F8FDAA
:105300008C01002088010020DD4F0108001000E022
:1053100038B5154B02781B78934222D9134B1449A8
:105320001B68054653F83200884203EBC20318D1CC
:105330005C682046FAF758FF002323766A6802B9B2
:1053400038BDE260C4F81A30A377636172B6094AC7
:10535000E368526813442046A360FAF783FF62B6FD
:1053600038BDFCF7C5FD00BF8C010020880100207E
:10537000894D0108001000E038B5154B02781B7804
:10538000934222D9134B14491B68054653F8320047
:10539000884203EBC20318D15C682046FAF724FF69
:1053A000002323766A6802B938BDE260C4F81A3077
:1053B000A377636172B6094AE368526813442046D2
:1053C000A360FAF74FFF62B638BDFCF791FD00BF4E
:1053D0008C01002088010020D54D0108001000E05C
:1053E00038B5174B02781B78934227D9154B1649CD
:1053F0001B68054653F83200884203EBC2031DD1F7
:105400005C682046FAF7F0FE002363736361696805
:105410002161D4E9080279B112040261A36284F81F
:105420002C3072B6094A2369526813442046A3609F
:10543000FAF718FF62B638BD026138BDFCF758FDB7
:105440008C01002088010020255B0108001000E08D
:1054500038B5154B02781B78934222D9134B144967
:105460001B68054653F83200884203EBC20318D18B
:105470005C682046FAF7B8FE002222776B68E3608A
:1054800003B938BDC4F81E2084F8222072B6094A38
:10549000E368526813442046A360FAF7E3FE62B65D
:1054A00038BDFCF725FD00BF8C01002088010020DD
:1054B000D15B0108001000E038B5164B02781B786C
:1054C000934224D9144B15491B68054653F8320002
:1054D000884203EBC2031AD15C682046FAF784FEC7
:1054E000237D23F0010323756B6803B938BD0022C7
:1054F000E360C4F81620A27672B6094AE3685268DF
:1055000013442046A360FAF7ADFE62B638BDFCF73F
:10551000EFFC00BF8C01002088010020C14E010873
:10552000001000E038B5134B02781B7893421FD966
:10553000114B12491B68044653F83200884203EBB2
:10554000C20315D15D682846FAF74EFE00232B757D
:10555000A26802B938BD6268AA60A268EA602B77C7
:10556000E268AA75AB612846BDE83840FAF77ABE12
:10557000FCF7BEFC8C010020880100206950010866
:1055800010B5164B01781B788B4284B023D9144B8D
:10559000144A1B6853F83100904203EBC1031AD13F
:1055A000586872B6104A83695268C4699B68234080
:1055B00062B6448D029490F82CC0B3FA83F35B0971
:1055C0000CEB83030193038D009308480023FAF743
:1055D0005FFF04B010BDFCF78BFC00BF8C01002006
:1055E00088010020255B0108001000E0C088010848
:1055F00010B5164B01781B788B4284B023D9144B1D
:10560000144A1B6853F83100904203EBC1031AD1CE
:10561000586872B6104A0369526844699B6823400F
:1056200062B6048C029490F822C0B3FA83F35B094B
:105630000CEB83030193C38B009308480023FAF714
:1056400027FF04B010BDFCF753FC00BF8C01002005
:1056500088010020D15B0108001000E0C08801082B
:1056600010B50E4B01681B78CAB2934213D90C4B8C
:105670000C481B6853F83240844203EBC2030AD142
:105680005B68094893F85C205B6EBDE81040C2F38C
:105690008002FAF7FDBEFCF72BFC00BF8C01002056
:1056A00088010020C14E0108D0880108F0B51B4BCD
:1056B00002781B78934287B02DD9194B19491B6882
:1056C000044653F83200884203EBC20323D15D68DD
:1056D000154E2869B923ADF81430022205AB01211B
:1056E0007768FDF7B5FC9DF81520736822F08002FD
:1056F000202A0ED8288B21780290A87E02EB820CFB
:1057000060440190EC8A09480094DB1B3A46FAF7A2
:10571000BFFE07B0F0BDFCF7EBFB00BF8C01002023
:10572000880100203D4D0108001000E0C0880108FC
:105730002DE9F0432A4B04781B78A34285B04CD95D
:10574000284B294A1B6853F83410914203EBC403D9
:1057500043D15B68057993F8158086681869B8F1BC
:10576000020F1DD0DFF8849033462A460121D9F874
:105770000470FDF76DFCD9F80420D31BB3F5E15F8D
:1057800094BF2B460023B8F1010F08BF17461848F5
:1057900000963A462146FAF77BFE05B0BDE8F08355
:1057A000083003C804AA02E90300039A1204026144
:1057B0000E4A506890305168411A0029FBDA72B6DF
:1057C000DDE902100861576862B6012118692A46AE
:1057D0003346FDF73DFC2B46D9E7FCF789FB00BFBC
:1057E0008C0100208801002069500108001000E0B1
:1057F000C8880108F0B5384B02781B78934287B00F
:1058000068D9364B1B68064653F832403448844208
:10581000114603EBC2035DD15C68237D00228DF845
:105820001320DBB1012B42D0A37D608B012B1546E9
:10583000134635D002F03F0202EB42025200D2B2D0
:105840001646E2750290207F30440190248B254853
:1058500000942A46FAF71CFE07B0F0BDAF23ADF85E
:105860001430214F20697D68022205AB0121FDF72C
:10587000EFFB9DF815207F688DF813207B1B5706E2
:10588000608B58BF317803D5013080B231786083A6
:10589000A67D012ECED1960602D500263246D0E74F
:1058A00002F01F0202EB420252001646C9E70E4FF9
:1058B0002F228DF814200DF113027D6820690092CB
:1058C000194605AAFEF778FFFEF7D2FE7F689DF81D
:1058D0001320D3E7FCF70CFB8C010020880100208B
:1058E000DD4F0108C0880108001000E0F0B5284B2A
:1058F00002781B78934289B048D9264B26491B6809
:10590000054653F83200884203EBC2033ED15C687F
:105910000DF11B0101233A2220698DF81820009116
:1059200006AA1946FEF748FFFEF7A2FE9DF81B30B7
:10593000DB0602D5A38B0133A383184F20697223A2
:105940008DF8143007AB7E68009305AA022301216D
:10595000FEF732FFFEF78CFE9DF81CC0A28B7B6821
:105960009DF81D0002924FEA0C2C2978A57F0CF4BB
:10597000F85C40EA0C0028440190648B08480094CD
:105980009B1B3246FAF784FD09B0F0BDFCF7B0FA74
:105990008C01002088010020894D0108001000E0E2
:1059A000C0880108F0B5284B02781B78934289B073
:1059B00048D9264B26491B68054653F832008842D1
:1059C00003EBC2033ED15C680DF11B0101231B22D6
:1059D00020698DF81820009106AA1946FEF7ECFE02
:1059E000FEF746FE9DF81B301B0702D0A38B013348
:1059F000A383184F206970238DF8143007AB7E689D
:105A0000009305AA02230121FEF7D6FEFEF730FE21
:105A10009DF81CC0A28B7B689DF81D0002924FEA86
:105A20000C2C2978A57F0CF4F85C40EA0C00284483
:105A30000190648B084800949B1B3246FAF728FDBE
:105A400009B0F0BDFCF754FA8C0100208801002059
:105A5000D54D0108001000E0C0880108F0B52C4BBE
:105A600002781B78934287B04FD92A4B2A491B688A
:105A7000054653F83200884203EBC20345D15C6807
:105A8000237D9B0727D4254E2069776805AB0093BB
:105A900018238DF813300DF1130202230121FEF7B4
:105AA0008BFE7368BDF8142008B107B0F0BD2978EB
:105AB000258B029550BAA57EC0F34E0000F004007D
:105AC00028440190E48A16480094DB1B3A46FAF712
:105AD000DFFC07B0F0BD72B6104A236D5268616DED
