:020000040801F1
:100000000000022065640108796401087964010830
:100010007964010879640108796401087964010848
:100020007964010879640108796401087964010838
:10003000796401087964010879640108516601084E
:100040007964010879640108796401087964010818
:100050007964010879640108796401087964010808
:1000600079640108796401087964010879640108F8
:1000700079640108796401087964010879640108E8
:1000800079640108796401087964010879640108D8
:1000900079640108796401087964010879640108C8
:1000A00079640108796401087964010879640108B8
:1000B00079640108796401087964010879640108A8
:1000C0007964010879640108796401087964010898
:1000D000796401087D640108084909488B68094A68
:1000E0004FF0000C1A4480F808C003F5DB03064803
:1000F00003F5BA4382608B60012070471C0000202A
:100100002800002000DD6D801000002000207047D6
:100110000E4B1888B8B110B40D4A0E4B146893F802
:1001200000C0013810D02346002219460132634432
:1001300082420B60F9D10CFB0242074B0021116097
:100140001C6010BC704770472246F6E7480000204C
:1001500044000020400000203C00002010B48268D1
:10016000D0E90034EFF3108172B6DBB2012B0CD072
:10017000022B04D1226081F3108810BC7047D2B2E8
:10018000227081F3108810BC704792B2228081F3F4
:10019000108810BC704700BF704700BF816982683B
:1001A000CB6810B4C4696340CB6090F8303083F002
:1001B0000103D9074CBFC168016980F830305B0783
:1001C0000A4403D4826010BC012070474369D11AED
:1001D0000029F7DB034A42601A46826010BC012006
:1001E000704700BF4D030108EFF3108C72B614493D
:1001F0000B68834202D110E083420BD01A461B6881
:10020000002BF9D14B68834204BF0E4B4B608CF33B
:100210001088704703681360F4E70B4B026800B561
:10022000D0F808E0C3F808E01A600B604B6883421E
:1002300004BF044B4B608CF310885DF804FB00BFD7
:10024000280000201C0000200400002008B5014602
:1002500072B6014807F098F8B800002008B50420ED
:10026000FFF7F4FF10B58168EFF3108E72B6174CEC
:1002700023689A688A1A002A0BDB9C461B689A68D6
:100280008A1A002AF9DA0360CCF800008EF310888D
:1002900010BD0F4A52688A1A002A11DB0D4A934298
:1002A00008BF1B68036091604FF0E0230A491060AB
:1002B00022604FF0806000225A619A614860E5E751
:1002C000A27A002AEAD10320FFF7C0FF280000200D
:1002D000001000E00400002000ED00E070B50E4DBD
:1002E000296891B90D4E047833680D4803EBC40CAE
:1002F00084454FEAC4020BD898183060184607F0BE
:100300004BF8084A2860147070BD0A20FFF79EFF62
:100310001120FFF79BFF00BF88010020B0000020E4
:1003200000FE01208C01002008B50820FFF78EFF99
:1003300008B5054A937A23B1022B1CBF00239372A0
:1003400008BD0220FFF782FF28000020836A70B5F5
:10035000002B00F092809A68196881624A49866988
:10036000C4690D68002A14BF4FF0010C4FF0000C57
:1003700022D1240434611D600B6090F83030856A0E
:1003800003F01004C3F3001383F00103B2FA82F107
:10039000DBB2490999422BD0036A4BB381684CF018
:1003A000040C0B44002D3ED14CEA040C436180F850
:1003B00030C08360012070BD34611D600B60436AF2
:1003C0009342DAD9056A866A8168D5B10D44002E58
:1003D00047D190F83030456103F0100343F0070334
:1003E00080F8303011444B1B002B38DA436A13E09D
:1003F0005DBB4CEA0404002380F83040436118469A
:1004000070BD90F8304004F010047EBB44F003044B
:100410004661114480F830401C4C9B1AC0E90141F0
:10042000C0E90323C6E76D685B1B002B28DB90F84F
:100430003030456103F0100343EA0C031CF0020F57
:1004400080F83030CED12B46B3E76D6845614CF073
:10045000040C44EA0C0480F830402B46A9E7856080
:10046000A8E72B464FF0070C7568DDE77568456116
:1004700044F0070480F83040B4E71520FFF7E6FEAB
:100480001320FFF7E3FE00BF3C0000209D010108A0
:100490000FB42DE9F04FDFF8349285B099F80040A1
:1004A0000E9FE4B224B105B0BDE8F04F04B0704730
:1004B000874E012389F8003033780FAD0395DBB206
:1004C000DFF810A29AF800805FFA88F843450ED34F
:1004D0008AF80040B8783470602840F2D480002355
:1004E00089F8003005B0BDE8F04F04B07047B87827
:1004F00008EB00016029024640F2CA80C91A60294F
:10050000EDD88AF800403178C9B2734BA8EB0108E6
:1005100042461944184606F0B1FE034634705FFAAD
:1005200088F28AF800206D4A42F2AC01D160B878B6
:1005300003EB08010246052874D93A8805388C1C5B
:100540007F2A04EB0006F8787F6804D9D40964F0A8
:100550007F048C70CC1C02F07F0204F8012B002871
:100560005DD007EB000B2246CDF800805C462846A4
:1005700001938B4617E0063B012B00F2A380054652
:10058000134655F8081BB21A8A4228BF0A4603F8D8
:10059000012B41681846904606F07EFF00EB0802EA
:1005A0002846A74236D09642C0F08C8017F8013B0F
:1005B000052B71D0DFD850F8043B03F120017F29CF
:1005C00022D903F58051B1F5804F18D303F50021EE
:1005D000B1F5001F0ED303F18061B1F1805F04D348
:1005E000190F61F07F0102F8011B590D61F07F01C5
:1005F00002F8011B990B61F07F0102F8011BD90978
:1006000061F07F0102F8011B03F07F03A74202F8AB
:10061000013BC8D1DDF80080019B14465946641A9D
:10062000E21CD0B203F808002D4B1B784B70D31E90
:1006300045D0CE180D464FF6FF7415F8017B674084
:1006400087EA0717FFB2240A4FEAC70C44EA0724D7
:100650008CEA17177C40B54227B2EED1240AFFB2CC
:10066000CC54114440447E2301F8027C01F8013C43
:10067000C0B21A4B8AF8000042F2AC02DA600023E2
:1006800089F800302EE7144BA0460246194652E77F
:10069000114B03EB08014EE750F8045B2B78511C1B
:1006A0002BB909E001F8013B15F8013F0BB18E426F
:1006B000F8D88B1A013BDBB213700A4671E7FF27AB
:1006C0003C46CDE70620FFF7C1FD00BFB400002087
:1006D000AD000020AC0000204C000020003801409C
:1006E00000000020000000002DE98048A44BDFF846
:1006F00094B25C68DFF890928BB0A44991F908300D
:10070000002B00F0B3859E4B5A6872B691F9083001
:10071000002B40F09C8662B6994B5B689B1A234481
:1007200004939B4B99491B780122DBB20A72D3B127
:10073000984FDFF86482964A3878914D0023137001
:10074000D8F80030FF240134E1B203EBC10107E027
:100750000A4652F8086B5E4500F0F78311460134F3
:10076000E4B28442F4D38D4B1B78DBB2CBB1894F1A
:10077000DFF82482894A387800231370D8F80030D3
:10078000FF240134E1B203EBC10107E00A4652F84D
:10079000085B4D4500F0F98311460134E4B2844210
:1007A000F4D37F4B1B78DBB2D3B17A4FDFF8E8810B
:1007B0007B4A3878D8F800607A4C00231370FF2504
:1007C0000135EAB206EBC20207E0134653F8081BF4
:1007D000A14200F0F3831A460135EDB28542F4D30D
:1007E000714B1B78DBB2D3B16A4FDFF8AC816E4A34
:1007F0003878D8F800606D4D00231370FF24013461
:10080000E2B206EBC20207E0134653F8081BA94206
:1008100000F01C841A460134E4B2A042F4D8644BC0
:100820001B78DBB2D3B15B4FDFF86C81604A38785C
:10083000604D00231370D8F80030FF240134E1B27A
:1008400003EBC10107E00A4652F8086BAE4200F024
:10085000DF8311460134E4B2A042F4D8564B1B7832
:10086000DBB2DBB1DFF830814A4F534A3978D8F830
:100870000000524D00231370FF24C2460134E2B23F
:1008800000EBC20207E0134653F8086BAE4200F0DB
:10089000F7831A460134E4B2A142F4D8484B1B78DE
:1008A000DBB2D3B13B4FDFF8F080454A3D78454E8F
:1008B000D8F8007000231370FF240134E2B207EB74
:1008C000C20207E0134653F8081BB14200F05581FD
:1008D0001A460134E4B2AC42F4D33B4B1B78DBB292
:1008E000D3B12C4FDFF8B080374A3D78374ED8F877
:1008F000007000231370FF240134E2B207EBC20240
:1009000007E0134653F8081BB14200F042811A4633
:100910000134E4B2AC42F4D32D4B1B78DBB2D3B13B
:100920002B4A1C4FDFF870802A4D00231370FF24E0
:100930003878D8F800300134E1B203EBC10107E0A8
:100940000A4652F8086BAE4200F02282114601348A
:10095000E4B28442F4D3204B1B78DBB2002B4AD0A4
:100960001D4A0C4FDFF830801C4D00231370FF240C
:100970003878D8F800300134E1B203EBC10137E038
:10098000001000E009260108F126010828000020D7
:10099000580100208C010020880100205C0100200B
:1009A00060010020813B0108640100201D3E010818
:1009B00068010020E53D01086C010020F94B0108A9
:1009C00070010020B549010874010020554C010850
:1009D00078010020014A01087C0100204D4A0108ED
:1009E0000A4652F8086BAE4200F00A821146013402
:1009F000E4B28442F4D3AA4B1B78DBB2FBB1A94F1B
:100A0000DFF8A482A64ADFF8A4A20023CDE902877A
:100A10001370FF231C46039B1878029B1B6801344C
:100A2000E1B203EBC10107E00A4652F8085B554505
:100A300000F0BB8011460134E4B28442F4D39C4BF5
:100A40001B78DBB2D3B19A4A964FDFF85C82994D9E
:100A500000231370FF243878D8F800300134E1B255
:100A600003EBC10107E00A4652F8086BAE4200F002
:100A70003D8111460134E4B28442F4D38E4B1B789D
:100A8000DBB2DBB1874FDFF820828B4A3978D8F8A8
:100A90000000DFF828A200231370FF240134E2B223
:100AA00000EBC20207E0134653F8085B554500F01F
:100AB000DF811A460134E4B2A142F4D8804B1B789E
:100AC000DBB223B17E4A0023137005F0B9FA7D4AE8
:100AD0007D4B4AF6AA2111605A6872B67B490B68B1
:100AE0009B1A002BB8BF0A6062B6794B1A78D2B253
:100AF0001546002A00F07E83764B1C78E10719D456
:100B0000042A40F2778374490E78731F3B2B00F25E
:100B100052834B7823F00F01102907D1B242C0F065
:100B200069836E4FB95D7E2900F0C584694B44F03E
:100B300001041C7068487E2106F04AFD30B1664B06
:100B4000C01A644B04F0FE041C70451CA30706D4B5
:100B5000604A44F0020313706148FFF799FC202DAE
:100B600007D160495C482A4606F068FC002800F07E
:100B700096842E464FF0FF3723E3506800283FF459
:100B8000ACAE037DDA077FF598AE214605F000F99B
:100B900093E6506800283FF4BFAE437DDB077FF546
:100BA000ABAE214605F096F9A6E64D68002D3FF460
:100BB00046AF6A7B002A3FF432AF05F1200393E889
:100BC0000300D5E906C72B7B05930AAA02E90300B7
:100BD0003D4A03F117064FF00008BE4672B6DDE944
:100BE0000807C3687B40C36051680E3153685B1AC5
:100BF000002BFBDBC3687B40C360DCF8080000EA25
:100C00000E00003818BF012062B651680E315368DB
:100C10005B1A002BFBDB013E40EA4808DED2059B55
:100C200072B60022697B6A7362B6012228FA03F663
:100C300002FA03F3300203F1FF3348BF46F07F4668
:100C400033EA080300F0D0834FF0004380266B6145
:100C5000002318461946002261F3070260F30F22B1
:100C600063F3174295F82C30E9180433DBB266F3CE
:100C70001F622F2BC1F82D2085F82C307FF6CBAECC
:100C800005F12D012A8D184800912146FFF700FC3F
:100C9000002385F82C302B8D01332B85BBE600BF5C
:100CA000800100208C010020880100206957010884
:100CB00084010020CD57010890010020394B010824
:100CC0009401002000300040001000E09801002056
:100CD000600200209C010020A00100209F01002054
:100CE0003084010870760108408401084E68002EA7
:100CF0003FF4C4AE327F002A3FF4B0AE08AB4FF0F1
:100D0000000AADF820A083F802A0B06903220121F7
:100D100002F052F886F81CA09DF821309DF82020A2
:100D20009DF822A0B06D1B0243EA024343EA0A0A7F
:100D3000190248BF4AF07F4A78B190F83030DA079C
:100D40000BD5AC4A0021526842615B0780F8341031
:100D500000F19A83514605F00FFD96F82230F21803
:100D60000433DBB22F2BC2F823A086F822307FF6A3
:100D700072AE06F12301F28B9F4800912146FFF7E6
:100D800087FB002386F82230F38B0133F38362E67E
:100D90004E68002E3FF4DFAD327ED1077FF5CBAD3C
:100DA000F38A2F2B40F2E2820DF1200A742352467F
:100DB0008DF8203006F11F0A302301213069CDF86B
:100DC00000A003F035FB03F08FFAF28A8A48302343
:100DD000303AB377F2822146728BCDF800A0FFF74C
:100DE00057FB738B01337383F38A00222F2BB27767
:100DF00040F2DC82814B1A72814A0123137097E51D
:100E00004E68002E3FF4F7AD327ED2077FF5B3ADCA
:100E1000F38A2F2B40F27A820DF1200A7223524678
:100E20008DF8203006F11F0A302301213069CDF8FA
:100E300000A003F0FDFA03F057FAF28A6E4830235F
:100E4000303AB377F2822146728BCDF800A0FFF7DB
:100E50001FFB738B01337383F38A00222F2BB2772E
:100E600040F27482654B1A72664A012313707FE563
:100E70005568002D3FF422AE2B7DDE077FF50EAEC8
:100E80004FF0180328698DF81C3008AB02930093CB
:100E900007AA0223012103F0CBFA03F025FABDF8DB
:100EA00020305BBA9BB272B62A7D22F001022A750D
:100EB00062B6190745D5AB7E2869029A039303F100
:100EC0001B062E444FF0000102238DF820100096DF
:100ED000012103F0ADFA03F007FAB31C0121029AD5
:100EE0002869009302238DF8201003F0A1FA03F083
:100EF000FBF9AB7E95F85C100433DBB24A07AB76A6
:100F00001CD5039A2A44D07EF27842EA00627078B7
:100F100042EA0042B07842EA0022B2F1805F80F0FB
:100F2000558234484668880700F17F82286E8242E5
:100F300000F2848201F0FD0185F85C102F2B00F295
:100F4000B9813978D8F80000A8E5496800293FF44C
:100F50000AAC91F8202056077FF5F5AB686872B6A9
:100F600091F8202091F8213022F0040681F82060C9
:100F700062B6009002F0010223482146FFF788FA8A
:100F80003878D8F80030FFF7DEBB4A68002A3FF413
:100F900008AC92F82A5092F82B108D427FF4F1ABF6
:100FA00072B692F82A1092F82B308B4200F06181D1
:100FB00062B63878D8F80030FFF7E3BB51680029F3
:100FC0003FF40EAC0B7FFF2B7FF4FAAB72B68B7C39
:100FD000002B00F05D814A7F0A7762B6CA7E0B481B
:100FE000133100912946FFF753FA3878D8F800609A
:100FF000FFF7E6BB001000E0408401082800002055
:10100000780100207C010020A08401088084010870
:10101000496800293FF422AC91F82020D2077FF5DF
:101020000DAC72B691F820308A6823F0010381F884
:101030002030D1E9063162B6A54800912146FFF77C
:1010400027FA3878D8F80030FFF7F8BB5368002B40
:101050003FF4E5AB1A7F11077FF5D1AB72B61A7F6B
:1010600022F008021A7762B69A7F9A482833D2088B
:101070002146FFF70DFA3878D8F80060FFF7BFBBBC
:101080005668002E3FF40AACF37FDB077FF5F6AB22
:1010900072B6F37F23F00103F377B368029362B66D
:1010A000B37F032B18D8DFE803F0704C1C02002339
:1010B000ADF82030B06908AB0222012101F07CFEBE
:1010C000BDF82030029900945ABA1B0A304603F04A
:1010D000060392B204F030FE3978DAF80000FFF728
:1010E000CDBB012108910DF120084346B0690322D0
:1010F00001F062FE089A434692FA82F80722ADF8A0
:1011000020204FEA182CB069CDF80CC00121022232
:1011100001F052FEDDF80CC09DF8213002990094D8
:101120000CF0010CC8F30F2823F0030330464246AD
:1011300043EA0C0304F000FE3978DAF80000FFF708
:101140009DBB0C2308930DF120084346B06904228F
:10115000012101F031FE089A0F21ADF8201043461D
:10116000B06992FA82F80121022201F025FE02996B
:101170009DF821300094304628F07F4204F0DCFDD9
:101180003978DAF80000FFF779BB00230893B069DB
:1011900008AB0422012101F00FFE089A0299009485
:1011A0003046C2F3026312BA04F0C6FD3978DAF8A9
:1011B0000000FFF763BB7E2E7FF4B8AC01264FF032
:1011C000FF370020444B1C78E4B2A51B40F04D8152
:1011D000EFF3108272B6404B1B78DBB29C4240F0BA
:1011E00050813D4B1D7082F31088012F02D13B4886
:1011F000FFF74EF93A4B3B4D3B4E5C68049B296828
:101200003268A4EB030A01315244BAF5803F2960E9
:10121000326043D2354F0AFB0AFA38680AF1FF03FD
:1012200000EB1323834238BF4FF0FF33DFF8C08059
:101230003048D8F800A03B60A4EB0A0C84457FF648
:101240005CAA2D48FFF724F9A24503D92B4A13685D
:10125000013313602A49C8F8004000233B60336023
:101260002B6091F90830002B7FF44DAA0494FFF70E
:1012700058BA013382F82A30138B526962B621487A
:101280002146FFF705F93878D8F80030FFF779BA2A
:1012900062B63878D8F80060FFF792BABAF5801FC6
:1012A000124F80F09E8038680AF1FF031B0A0AFB88
:1012B0000303B7E705F11B01EA8A134800912146B1
:1012C000FFF7E6F80023AB76EB8A0133EB8238E6D2
:1012D00068840108788401086002002030840108D5
:1012E000001000E074020020700200206C02002058
:1012F00068020020FF297515E084010864020020BF
:1013000028000020988401084084010870230DF112
:10131000200A30698DF81C3007AA02230121CDF87C
:1013200000A003F085F802F0DFFF9DF820209DF873
:101330002130B08A120202F4F85243EA02018842D4
:1013400038BFB1822F29F1823FF768AD337E23F099
:101350000103337672B6864B5A68F3681344B36060
:101360003046FEF77FFF62B6FFF702BB72230DF136
:10137000200A30698DF81C3007AA02230121CDF81C
:1013800000A003F055F802F0AFFF9DF820209DF873
:101390002130B08A120202F4F85243EA0201884274
:1013A00038BFB1822F29F1823FF700AD337E23F0A1
:1013B0000103337672B66E4B5A68F3681344B36018
:1013C0003046FEF74FFF62B6FFF7B2BA4FF00003A8
:1013D00085F85C3095F85E10A86D01F039FCAB7EA5
:1013E000ACE54FF0FF3321E78A0703D54FF0804388
:1013F00040262CE46A69002A40F0AE80286E68B16D
:1014000090F83010CB0709D5594B4F075B68436103
:1014100080F834203ED4314605F0AEF9F1B2C6F37F
:101420000720C6F30743360E15E4686E301A00280D
:10143000FFF684AD286E82427FF67CAD95F85D1094
:10144000A86D6E6601F004FCAB7E002174E549498D
:101450004FF6FF730B8162B630BF72B6454B93F9FE
:101460000830002BF7D1FFF756B9434B81192A1AE0
:101470001944184405F002FF3E4A0023137228461F
:10148000A6E682F310889DE6C369D21A8A42BFF6A7
:1014900061AC62E4C2699B1A002BBCDABEE74FF074
:1014A00000614B689A1EA3F1090022F007029042E6
:1014B0003AD005F08BFB791EA6F1030E013711F827
:1014C00006C017F80E104CEA012CBE440FFA8CFC33
:1014D0004FF6FF7117F8010B484080EA0010C0B2C8
:1014E000090A4FEAC00841EA002188EA1010414089
:1014F000BE4508B2EED184457FF418AB1F4A24F0F4
:10150000020414701E4A1178994202D03546FFF742
:1015100023BB013303F00F0343F010033046137075
:10152000012705F017FE4CE653F8095C154C164AE6
:1015300053F8053C934208BFA542BAD10B68DA1DA7
:1015400022F007029342B4D172B607A1D1E900019B
:10155000C3E9000105F03AFBD1B2C2F30720C2F3A0
:101560000743160EFFF777BB9B58A16CFAE384592B
:10157000001000E028000020A00100209C010020B5
:101580000000002043616E426F6F7421A349A44D97
:10159000A44A21F003012DE988480024296045F27E
:1015A000555040F6FF7110609F4B546091604CF6AF
:1015B000CC411160D3F8FC109C4A41F08071C3F813
:1015C000FC10116841F0010111605460EFF31081CB
:1015D00072B64FF0E0222025072083F823501061D7
:1015E000546194614FF080625A6081F31088904892
:1015F00005F0C2F98E498F4B9C228A6042F22C0280
:10160000CA6083F825435D60012272210A2005F03B
:101610000BFB22467221092005F006FB8648FEF7E7
:1016200037FF72B6854805F0A9FE10B962B6FFF71C
:101630005BF872B6824B7D499A7AD1F804A0002AF1
:1016400000F017827F4B804998687D4A88607F4808
:10165000116053600B6018604FF0E021724B022460
:10166000947200274FF080624F618F615A60784B0F
:10167000784E1F70FEF74CFD774A784B15781C6842
:101680004FF0FF0C4FF0110E0CF10101C9B204EB49
:10169000C101634605E00A4652F8080BB04215D076
:1016A00011460133DBB2AB42F5D33A468AB192F828
:1016B0003030D2E9060113F0100315BF7346090458
:1016C0000161016182F830309762DDE74A689C462B
:1016D000ECE7634E4FF0FF08174608F10101C9B26D
:1016E00004EBC101434605E00A4652F8080BB0423C
:1016F0000CD011460133DBB29D42F5D8384640B1DB
:10170000002141633C3000F043FBE6E7486898461F
:10171000F5E7DFF850814FF0FF09064609F10101B6
:10172000C9B204EBC1014B4605E00A4652F8080B6A
:1017300040451CD011460133DBB29D42F5D83746F7
:10174000C7B13846FEF750FD07F10C00FEF74CFD1F
:10175000FB6933B100211A461B68C2E90011002B56
:10176000F9D10023FB6187F822303B84D6E74F682C
:101770009946E5E7DFF8E0903B4E4FF0FF08DFF8D1
:10178000DCE0BC46DEF8005099F8004008F10101A9
:10179000C9B205EBC101434605E00A4652F8080B01
:1017A000B0421FD011460133DBB2A342F5D36246EB
:1017B0004AB3136AEFF3108172B61C68E00614D4C2
:1017C00081F3108892F82B30002BDBD00133D168E5
:1017D00082F82A3053690B44536193601046FEF738
:1017E00041FDCCE74A689846E2E71C6824F0020411
:1017F0001C601C6824F010041C609C6824F4A00485
:101800009C60DB6CDCE7194E4FF0FF0C96460CF148
:101810000101C9B205EBC10163462FE07F02002040
:10182000B00000200030004000ED00E0001000E0BB
:101830000038014000E100E000850108B800002008
:10184000280000201C0000200400002010000020C0
:10185000B40000209D1C01088C010020880100209C
:101860006524010809260108F1260108DD22010886
:101870000A4652F8080BB04210D011460133DBB2D1
:101880009C42F5D8774667B13B7CDA07BFD5D7E9EC
:101890000212180748BF12040A61B8E74F689C4655
:1018A000F1E7754E4FF0FF0808F10101C9B205EBF1
:1018B000C101424605E00B4653F8080BB0420DD07B
:1018C00019460132D2B29442F5D83B464BB11A794F
:1018D00018680021053301F06FFAE5E74B68904680
:1018E000F4E7664EDFF898E14FF0FF0C1F460CF16D
:1018F0000101C9B205EBC101634605E00A4652F891
:10190000080BB0420DD011460133DBB29C42F5D832
:101910003A464AB1D368918A1960C2F804E09761E7
:10192000E5E74A689C46F4E7564E4FF0FF08174635
:1019300008F10101C9B205EBC101434605E00A46C1
:1019400052F8080BB0421AD011460133DBB29C4268
:10195000F5D8B946B9F1000F19D099F81C309B069B
:1019600011D5D9E90301012205F076FA99F81C3066
:1019700003F0300343F0010389F81C30D8E7D1F8B5
:1019800004909846E6E7D9E903321A61EEE73E4E45
:10199000FF27791CC9B205EBC1013B4605E00A46A9
:1019A00052F8080BB0420FD011460133DBB29C4213
:1019B000F5D84A465AB11369D16818049369526937
:1019C00008611B041361E4E74A681F46F2E72F49E8
:1019D000FF239146581CC0B205EBC00005E002464B
:1019E00052F8086B8E421DD010460133DBB29C4288
:1019F000F5D8EFF30383C3F308034BB14FF08073C3
:101A00006FF0060208B402A102B41FB5104700BF70
:101A10001F4B01229A7262B61E48DA7A5146FEF7CF
:101A200037FD03E64268002AE3D01069D2F80CB013
:101A30009769166A4FEA004E906A4FEA004C106BA5
:101A40004FEA0048906BCBF810E0D2F814E03F0466
:101A5000CEF81070D76936043E61566AC6F810C0D9
:101A6000D66AC6F81080566B0004306182F8089080
:101A7000B0E7D872E6E500BFF5290108B93B0108D7
:101A8000253601081D3E0108E13E0108753F0108A9
:101A900028000020F084010800B50A4B0A4A9B7A0E
:101AA00011880A4A0A48126883B0003B009118BFA7
:101AB0000123003918BF0121FEF7EAFC03B05DF8ED
:101AC00004FB00BF28000020480000203800002050
:101AD000C8840108024B03485968FEF7D9BC00BF0F
:101AE000001000E0D0840108064A0749074B5268FD
:101AF00009681B680648914294BF1946591CFEF7B5
:101B0000C7BC00BF001000E0680200206402002093
:101B1000D8840108016840F6415399420DD80279F2
:101B200040F642535018984202D9C1F14202D2B253
:101B3000054B06480B44FEF7ABBC034B03480022A1
:101B40000B44FEF7A5BC00BFEC760108E884010851
:101B5000D0E90031EFF3108272B6DBB2012B0ED068
:101B6000022B05D1096882F310880848FEF790BC63
:101B70000978C9B282F310880448FEF789BC098845
:101B800089B282F310880148FEF782BCB88401084C
:101B9000034602485A681978FEF77ABCC0840108E7
:101BA00038B50A4D0A4B2C68211899420BD8C31C32
:101BB00023F0030302462344002120462B6005F056
:101BC000EBFB204638BD1120FEF740FBB0000020A3
:101BD00000FE012038B50D4B93F800C08445034644
:101BE00010D910460A4A126852F8334002EBC30576
:101BF00044B9084C24882CB942F83310FFF7D0FFC1
:101C0000686038BD0B20FEF721FB00BF8C0100206F
:101C1000880100204800002008B50F20FEF716FBC1
:101C200008B50E20FEF712FB70B5164E33882BBB9D
:101C3000154B16491A78032A9CBF04221A70144BBC
:101C400005461868002403469C4613448B420FD86F
:101C50000134B4F5806FF7D1181AFFF7A1FF0D4BCF
:101C600034801860FEF754FA0B4B2A681A6070BD76
:101C70006346002CF0D11020FEF7E8FA0D20FEF7A5
:101C8000E5FA00BF480000204000002000FE0120CF
:101C9000B0000020440000203800002030B5D0E91A
:101CA00001120446003A83B018BF0122684605F0CD
:101CB00001F9154920783422FFF78CFF0346DDE94E
:101CC000000103F1180282E803001049E2680D8860
:101CD0000020111AA26818BF0121121A18BF012290
:101CE00042EA011283F8302022691A62C3E90A002D
:101CF0003DB9074B1A780B2A9CBF0C221A7003B00F
:101D000030BDFFF78DFF00BF9D1C0108480000207B
:101D10004000002008B50C20FEF798FA10B50D4BD6
:101D200002781B78934210D90B4B0C491B6853F86F
:101D300032408C4203EBC20307D15B6872B69A6AE9
:101D40002AB942685A6262B610BDFFF7E3FF142059
:101D5000FEF77CFA8C010020880100209D1C010800
:101D600090F820200849034642F00402002083F83E
:101D7000202008729A68D3F818C0044901206244F0
:101D800008709A60704700BF2800002058010020AA
:101D9000F8B504463C38FEF727FA227A54F8101CAE
:101DA00054F80C3C54F8287C54F8146C002502F0CC
:101DB000340012F0100C44F8345C44F8245C40F019
:101DC00008004FEA01411BD0DB1B002BC8BF5B4260
:101DD00044F8285C44F80C3C2072316154F8083C0B
:101DE0006BB11148016800E013461A6844F8082CEA
:101DF0001960036054F8082C1946002AF4D1F8BD84
:101E0000A3EB5703002BC8BF5B4244F80C3C54F8CB
:101E1000183C2072520754F81C0C44F828CC58BFC8
:101E20001B0431610361D9E73C00002038B5284B21
:101E300002781B78934246D9264B27491B6853F8F2
:101E400032408C4203EBC2033DD15C68EFF310815A
:101E500072B6224A1368002B37D01D68156081F3D3
:101E6000108845685D6082689A6072B6A26A002137
:101E7000196022B1E26A1360E36262B638BD94F879
:101E800030205107C4E90A3316D442F0040384F821
:101E90003030930765610AD42046FEF7A5F9104B50
:101EA0002046C4E90135FEF7DDF962B638BDA36806
:101EB0005B1B002BF9DBEFE763695B1B002BE4DAAC
:101EC0001320FEF7C3F9FFF725FFFFF7A5FE00BFBC
:101ED0008C010020880100209D1C01083C0000208E
:101EE0004D03010838B5254B02781B7893423FD942
:101EF000234B24491B68054653F83200884203EB04
:101F0000C20335D15C682046FEF76EF9A36A8BBB2D
:101F10002A7994F83030D4E90650002A08BF00042A
:101F2000286103F01000C3F30013B2FA82F283F0C9
:101F300001034FEA5212DBB214BF012100219A4281
:101F400001D0236A1BB9014384F8301038BD0E4A12
:101F500052680843134440F004000C4A84F83000EF
:101F6000C4E9012363612046BDE83840FEF77AB931
:101F7000FFF7D0FE1220FEF769F900BF8C010020A8
:101F8000880100209D1C0108001000E04D0301089D
:101F900010B5104B02781B78934218D90E4B0F499D
:101FA0001B6853F832408C4203EBC2020FD14368E6
:101FB0005168003B18BF01235B0072B691F84420C2
:101FC00022F00202134381F8443062B610BDFFF7DD
:101FD000A1FE00BF8C0100208801002065240108BB
:101FE00010B5114B02781B78934217D90F4B10494B
:101FF0001B6853F832408C4203EBC2030ED15B687E
:10200000416872B65A695AB993F84420996022F02F
:102010000802996183F8442062B610BDFFF77AFE8A
:102020001620FEF713F900BF8C0100208801002064
:102030006524010810B5184B027893F800C062457A
:1020400024D2164B1B6853F8321003EBC20E144A0D
:1020500091421BD10179DEF80420614516D253F874
:1020600031401048844203EBC1030FD15B6802F199
:102070003C00EFF3108172B6146C4CB90A4C146436
:10208000DC69D463D86181F3108810BDFFF742FE8C
:102090001920FEF7DBF800BF8C010020880100202A
:1020A0006524010809260108911D0108F8B5224E92
:1020B0000278337893423CD9204F21493B6805464A
:1020C00053F83200884203EBC20332D15C682046E9
:1020D000FEF78AF86B68A360AB68A3612B7B84F87A
:1020E000253013B32969616184F826306B69327831
:1020F0001449002B0CBF0223032384F824302B7EC9
:1021000061609A4215D93A6802EBC30152F8332054
:102110000D4B9A420DD1EB694A6884F82730226250
:102120002046BDE8F840FEF79DB884F824302362CD
:10213000F8BDFFF7EFFD00BF8C01002088010020F3
:10214000D9250108052D01080926010838B51D4BC0
:1021500002781B78934233D91B4B1C491B680546F8
:1021600053F83200884203EBC20329D15C6872B68F
:102170002046FEF739F804F10C00FEF735F8E36964
:1021800033B100211A461B68C2E90011002BF9D1B6
:102190000022012384F8222023846B68A360AB68AB
:1021A000C4E9063223B9EB6884F8223062B638BD40
:1021B0002046FEF757F8EB6884F8223062B638BD47
:1021C000FFF7A8FD8C0100208801002009260108E6
:1021D00070B5124B02781B7893421DD9104B1149F0
:1021E0001B68044653F83200884203EBC20313D144
:1021F0005D6872B695F82030DB0701D462B670BD19
:1022000005F10C063046FDF7EFFF63686B61304661
:10221000FEF728F862B670BDFFF77CFD8C01002048
:10222000880100200926010838B5234B02781B7865
:1022300093423FD9214B22491B68054653F832008F
:10224000884203EBC20335D15C682046FDF7CCFF22
:10225000236AEFF3108272B61968C9061CD482F3A0
:1022600010886B686361A360AB6823612B7B84F883
:102270002B305A1C84F82A202A69E260D5E905012E
:10228000EA6984F829206083A18303B938BD204618
:10229000BDE83840FDF7E6BF196821F0020119607A
:1022A000196821F010011960996821F4A001996062
:1022B000DB6CD4E7FFF72EFD8C01002088010020A5
:1022C000F126010800B5034683B0D3E90012684641
:1022D00004F0F0FD03B05DF804FB00BFF0B5054667
:1022E00083B00E4900781422FFF774FCAF68696868
:1022F000B7FA87F204465209684604F0DBFDDDE9CF
:10230000000104F1080383E80300002F237C0CBFC5
:10231000012209221343237403B0F0BDDD2201081A
:10232000D0E908311A6810B5D4063AD5920702D51B
:102330005A6B8A4205D0836803F5B4638360012039
:1023400010BD1A6822F002021A601A6822F0100208
:102350001A609A6822F4A0029A6090F82A2090F8F5
:102360002B10DB6C8A429BB23CD301229142038347
:1023700080F82A2041D8428B9A425ED8828B9A42BA
:102380005BD3364B002280F8282000221A72344A90
:102390004369C468012123441170436183600120B3
:1023A00010BDC9B2122941D009292CD81A6901EBF4
:1023B00041044FF0070C0CFA04FC22EA0C0C042236
:1023C000A24042EA0C021A615A6B22F01F020A4331
:1023D0005A639A6842F001029A609A6842F4A00235
:1023E0009A60A8E7B0F818C00132D2B263449BB239
:1023F0009142038380F82A20BDD98368026913447F
:102400008360012010BDA1F10A02DC6802EB4202E8
:102410004FF0070C0CFA02FC24EA0C0E4FF0040CEF
:102420000CFA02F242EA0E02DA60CDE7DA6D22F02F
:10243000070242F00402DA65C6E790F8283090F807
:1024400029200133DBB29A4280F82830034B9CD814
:102450009A7A002A96D11A20FDF7F8FE280000206B
:102460005C010020F0B505462749007883B048227A
:10247000FFF7B0FBEF68002F04462EDD042280F842
:1024800044206968684604F015FDDDE9000104F1A7
:10249000200383E803000022A968684604F00AFDCF
:1024A000DDE9000104F1280383E80300174B4FF036
:1024B0004042198822632A69E2610023C4E90D338E
:1024C00001BB134B19780F299CBF10211970002FE5
:1024D00009DB104B636003B0F0BD0ED190F84420CF
:1024E00002F00402CDE7092AF3D894F8443043F00F
:1024F000200384F8443003B0F0BD102380F844304A
:102500000022BEE7FFF78CFB65240108480000208D
:1025100040000020112B010808B5134B01781B78EF
:102520008B421ED9114B124A1B6853F8310090425E
:1025300003EBC10315D15B6872B693F844001A6BC4
:102540005B69C0064CBFD21AA2EB530262B6002AE6
:10255000B8BF5242BDE80840064802F14042FDF7CC
:1025600097BFFFF7D7FB00BF8C0100208801002038
:1025700065240108B084010810B5134B01781B785D
:102580008B4282B01DD9114B114A1B6853F83100A0
:10259000904203EBC10314D1586872B690F824201E
:1025A000C36962B6D0E90340A4680440003C18BF88
:1025B000012408480094C2F34002FDF769FF02B00D
:1025C00010BDFFF7A7FB00BF8C0100208801002091
:1025D000D9250108A884010870B50A4982B00546CA
:1025E00028220078FFF7F6FAD5E90112044668467A
:1025F00004F08EFCDDE9000104F10C0383E8030024
:1026000002B070BDD925010838B50F4B1A78037890
:102610009A4216D90D4C226852F83310DD0081B968
:102620000B49098869B90B4942F833102420FFF798
:10263000B7FA23680849094A2B445860416002618F
:1026400038BD0B20FDF702FE8C0100208801002020
:102650004800002009260108611D0108412D0108DC
:1026600038B50D4B1A7803789A4212D90B4C226870
:1026700052F83310DD0061B90949098849B909499F
:1026800042F833101420FFF78BFA23682B4458606C
:1026900038BD0B20FDF7DAFD8C01002088010020F9
:1026A00048000020DD22010838B50D4B1A78037868
:1026B0009A4212D90B4C226852F83310DD0061B9EE
:1026C0000949098849B9094942F833100C20FFF734
:1026D00067FA23682B44586038BD0B20FDF7B6FD20
:1026E0008C0100208801002048000020A926010854
:1026F00070B5404A05460023406802E00133802B54
:1027000073D012F8011B8842F8D15A11012A68D0FF
:10271000022A68D0032A6BD1374E384A03F01F04CF
:10272000D36A6FF3080343F00703D362536943F49A
:1027300070435361736823F4702323F480737360D0
:10274000B2682F4B134043F46023B360F36A23F461
:102750007003F3620123B360B36D9906FCD5B36DCA
:1027600023F08003B365274BD3F8FC20D2010AD4B1
:10277000D3F8FC2042F08072C3F8FC20224A136890
:1027800043F00103136020494A6802F534724B6834
:102790009B1A002BFBDB0523B360B26812F0040226
:1027A000FBD1FE2819D1194A936843F400039360C2
:1027B000A2F5FC32D2F8203843F48063C2F8203806
:1027C0002C2213492878FFF705FA0123114A80F8D3
:1027D0002A30C0E90864426070BD032104F024FA85
:1027E000EEE70D4E99E70D4E97E73A20FDF72EFDE7
:1027F000064E92E760850108001C0240001002406E
:10280000FDF7F1FF00ED00E0001000E000080240DD
:10281000F126010821230108000C024000180240A3
:102820002DE9F8432F4B02781B78934251D92E4B58
:102830002E491B6853F832408C4203EBC20348D147
:10284000047A5D68032C49D82B7C13F0060F45D120
:102850004368C768042B3ED8254A03EB430302EBC9
:10286000830952F82360304604F082F98046A8B10B
:10287000204800231946013320FA03F2974226D25A
:10288000082BF7D138212B7C0C4343F0040344F48C
:1028900051742B74C5E90064BDE8F883304604F038
:1028A0006BF899F8071099F80400012204F0BCF9BC
:1028B00099F8081099F80500424604F0B5F999F81E
:1028C000091099F80600424604F0AEF9D0E7C900B5
:1028D000D9E7FFF71FFA3B20FDF7B8FC1B20FDF7F7
:1028E000B5FC00BF8C01002088010020DD2201081A
:1028F00020850108005125022DE9F047394A037867
:102900001278077B9A4268D9374A126802EBC301F2
:1029100052F83320354B9A425FD1D0F804804D688D
:10292000B8F1020F5BD8DFF8C89059F8384020465C
:1029300004F01EF9064640B12B7A2C6043F00203E6
:102940007F002B722F71BDE8F08709EBC809204684
:1029500004F012F899F804A099F80580012240F2D9
:102960000111504604F060F9012240F20111404685
:1029700004F05AF94FF0FF3240F20111404604F0E2
:1029800053F94FF0FF3240F20111504604F04CF978
:10299000012240F20111504604F046F9012240F2B2
:1029A0000111404604F040F9504601224FF4A17154
:1029B00004F03AF9012240464FF4A17104F034F9D1
:1029C0004FF40043236024232660B4226360252350
:1029D000E261236201232360AEE7FFF79BF93D200C
:1029E000FDF734FC8C01002088010020A926010895
:1029F0000885010870B5114B02791B7893421AD9EA
:102A00000F4B10491B68044653F83200884203EB11
:102A1000C20310D1257A0C4920785E6805F10802BE
:102A2000FFF7D8F80571E16806602A460530BDE871
:102A3000704004F031BDFFF76DF900BF8C0100203C
:102A400088010020DD220108F52901080346406BBA
:102A500008B95861704770B502682A4CB0F908107F
:102A60005A63426890F80CC0266806604589206069
:102A70001982186B11441CF00104D96093F84410BA
:102A800018BF404228448E061863986805D5104444
:102A900098605D6134BB012070BD9E6911F010012A
:102AA00032445E699A6108BF6D009A605D61002ED4
:102AB000F0D0121A1DD4002CEDD021B112494A6871
:102AC000121A002AFBDBD3E90A14CA680E486240D6
:102AD000CA604268D86999680244891A0029B8BF57
:102AE0009A60D8E7D3E90A21D3684B40D36001202C
:102AF00070BD064DAA42A8BF9860DCDA1820FDF729
:102B0000A5FB00BF3C000020001000E0C0E6FEFF77
:102B100030B4D0E90814CA686240144CCA604169F4
:102B20006268C469CD072244034601F1FF3408D42A
:102B300090F84410C90605D45C61012030BC9A604D
:102B400070477CB1DD689969B3F9100029442844C5
:102B5000D860881A00289961EEDB5C61012030BCE6
:102B60009960704730BC8260FFF770BF001000E0D2
:102B700038B5334B02781B78934259D9314B3249DF
:102B80001B6853F832408C4203EBC20350D15C689F
:102B9000EFF3108272B62D4D2B68002B4DD01968C3
:102BA000296082F3108842685A6002895A81002A9B
:102BB00040D0C168198100221A7372B694F844207B
:102BC000C2F3400002F00101884205D0197B41F0B8
:102BD000010182F0010219736169B9B912F00801AB
:102BE00004D02A681A602B6062B638BD606B84F826
:102BF00044201960A8B1A26B1360A3632046FFF7BD
:102C000025FF2046FDF72EFB62B638BD616B84F8C8
:102C100044200020186039B1A26B1360A36362B630
:102C200038BDC4E90D33E9E7C4E90D3362B638BDF8
:102C3000FFF770F81720FDF709FBFEF7EDFF00BF67
:102C40008C01002088010020652401083C00002040
:102C5000F8B5EFF3108772B690F82030DA071CD57C
:102C6000044623F00503C06984F8211043F00403EF
:102C70000E4684F8203050B10025D0E900233146BB
:102C8000E261C0E900559847E0690028F5D1044B9E
:102C900000221A72034B01221A7087F31088F8BDC4
:102CA0002800002058010020D0E90332996890F8EC
:102CB000243011421CBFDB4303F00103DB070ED4B9
:102CC00010B590F82630013B13F0FF0411D0836853
:102CD000826980F8264013448360012010BDC269D8
:102CE000074990F8253080F82630C0E9011201200C
:102CF000704790F82710006AFFF7AAFF204610BD22
:102D0000052D010810B4D0E9022301699C6890F8F0
:102D10002430D0F814C00C421CBFDB4303F0010385
:102D2000DB07624403D5826010BC01207047034B6F
:102D300010BCC2614360FFF7B7BF00BFA92C0108F8
:102D400008B503460C38997DFFF782FF002008BDC7
:102D500030B5154B05781B78AB4283B022D9134BA5
:102D6000134A1B6853F83510914203EBC50319D180
:102D70005C6872B601792046FFF76AFF2046FDF7CE
:102D800033FA04F10C00FDF72FFA002294F82130F9
:102D900084F8202062B6074800922946FDF778FBA8
:102DA00003B030BDFEF7B6FF8C0100208801002083
:102DB00009260108A08401082DE9F04F90F810B011
:102DC0001BF0060F85B036D01BF0020F1C460646DE
:102DD00003680F4632D119684068814204D021F05F
:102DE00040011960196818601BF00101019140F061
:102DF0000E81224494420DD2013C511E14F8012F41
:102E00001A739A68D207FCD51A7BD2B207B1227026
:102E1000A142F3D19A6802F08202022AFAD1019B00
:102E20004BB10BF00809D6E902E1B9F1000F40F00F
:102E3000D280CEF8101005B0BDE8F08F197FDFF812
:102E4000E8C19869D3E904A8890756BF4FEA084149
:102E5000CAF81080CAF81010DCF804500544DCF8F9
:102E60000410491B0029FADB1BF00101019140F01D
:102E7000B680DCF80410450801EB500CA0EB5000C4
:102E8000002AD8D0013ACDE902B654FA82FE514662
:102E9000654ABA46013C0F46197F14F8016F11F0DC
:102EA00001014FF008094CD00021D2F804B0ABEB7F
:102EB0000C0BBBF1000FF8DBEFF3108B72B6D7F8F9
:102EC0000CC088EA0C0CC7F80CC08BF31088D3E94F
:102ED00002C716F0800F08BF3F04CCF81070576887
:102EE00076004900F6B25FFA81FB07445168C91BBE
:102EF0000029FBDBD3E90478EFF3108C72B6F96894
:102F000081EA0801F9608CF3108819688F685968A4
:102F10000F40002F0CBF59464BF001015768B9F123
:102F2000010907EB050C03D0D3E90478BDE7009C49
:102F3000BAF1000F00D02170744549D0D3E904786C
:102F4000AAE70094D2F804B0ABEB0C0BBBF1000F76
:102F5000F8DBD3E902BC340658BF4FEA0C4CCBF87F
:102F600010C0EFF3108B72B6D7F80CC08CEA080CC7
:102F7000C7F80CC08BF310885768009C7600490096
:102F8000F6B2C9B207EB000C5768A7EB0C07002F8D
:102F9000FADB1F680094BF685C682740002F18BFE9
:102FA00041F00101D3E904C7EFF3108B72B6DCF8EE
:102FB0000C8087EA0807CCF80C708BF310885768F0
:102FC000B9F1010907EB050CB1D0D3E90478B9E7F1
:102FD000DDE902B623E70904CEF810102BE71BF059
:102FE000080FD6E902E10BF0080919D10D04CEF85B
:102FF00010500D4D6D6805EB500C4508A0EB5000CE
:10300000002A7FF43FAFB9F1000FE4D111E71BF0C4
:10301000080FD6E902E100D10904CEF81010E8E665
:10302000CEF81010E5E700BF001000E070B5104BBF
:1030300004781B78A34218D90E4B0F4A196851F82F
:103040003450954201EBC4010FD186680579486878
:1030500033462A460121FFF7AFFE33462A46214672
:103060000648BDE87040FDF713BAFEF753FE00BFF7
:103070008C01002088010020DD22010890840108D5
:1030800070B50C4B02781B78934210D90A4B0B4C4D
:10309000196851F83250A54201EBC20107D183688B
:1030A00002794868BDE870400021FFF785BEFEF751
:1030B00031FE00BF8C01002088010020DD220108C4
:1030C00070B4867F84467EB100EBC600634600265E
:1030D0000122D3E908148D680833254218BF16432E
:1030E00051008342CAB2F4D19CF81030B34209D0E7
:1030F0009CF8111081EA0602D243D2B283EA06009C
:10310000024215D19CF91C209CF81C308CF81160EF
:10311000002A05DB013BDBB2FF2B24D08CF81C30EE
:10312000DCE902321344012070BCCCF8083070474F
:1031300023EA02039CF8122031400B43072A8CF843
:103140001030DFD8511C62448CF812100949D37436
:1031500000230B72084A8CF811600121FF231170C3
:103160008CF81C30DCE7034A00211172024A01216D
:103170001170D3E72800002060010020D0E903216E
:1031800070B5D368446A4B40D360427F90F81CE02E
:10319000C57F0132D2B28EF0010EAA4280F81CE047
:1031A000264605D317E05FFA8CF2AA42264412D2D3
:1031B00000EBD20302F0070193F828300B418EEAAE
:1031C0000303DB0702F1010CEDD58368427733443A
:1031D0008360012070BD8368024A4260334483608B
:1031E000012070BD89390108D0E9032110B4D368EA
:1031F000154C4B40D360437F017F64688268013384
:10320000DBB281F00101012B01774377016A17D00E
:10321000042B04D81144816010BC01207047436A1C
:103220001344E41AA31C48BF631D01EBA30114441B
:103230004162064B43602144816010BC012070470D
:10324000A41A4462E6E700BF001000E07D310108E7
:10325000D0E90921926803460A4080699968003ADA
:1032600018BF012200F0010C62455A6918BF0130F5
:10327000A2EB010218BFC3E90601002A04DBDA68E9
:103280000A4401209A60704710B41A6993F820002C
:10329000094C0A4440F001005A61002283F82000E2
:1032A0002272064A996801201070DA6810BC0A443C
:1032B00001209A60704700BF2800002068010020AC
:1032C00030B500F10C0203468C4692E8030085B04D
:1032D00004AA143302E9030093E803001F4ACDE96E
:1032E000000108211CF0800F29D150680E3053686E
:1032F0001B1A002BFBDBDDE90205EFF3108472B62D
:10330000C3686B40C36084F3108850680E30536804
:103310001B1A002BFBDB4FEA4C0CDDE902045FFAC1
:103320008CFCEFF3108E72B6C3686340C3608EF3FB
:103330001088013911F0FF01D4D105B030BDDDE9AD
:103340000003EFF3108472B6C5686B40C36084F36A
:1033500010886FEA0C0C5FFA8CFCC6E7001000E0E6
:103360002DE9F84F17460D4617F801BBD0F800A01D
:103370004668194C0BF0F00191468046FFF7A0FF1C
:103380006368A3EB0A039E42FAD84FEA0B1101F0DF
:10339000F0014046FFF794FF012D6468D8F80860FB
:1033A00016D0A9440C4D17F801AB40460AF0F001C5
:1033B000FFF786FF6B681B1B9E42FBD84FEA0A1182
:1033C00001F0F0014046FFF77BFF4F456C68EAD102
:1033D000C8F80040BDE8F88F001000E02DE9F04F7C
:1033E00000F1140302460F4693E8030097B00AAEBB
:1033F00002F11C0386E8030093E8030008AD02F124
:10340000240385E8030093E8030006AC02F12C03D3
:1034100084E8030093E803000DF1100E02F1340379
:103420008EE8030093E803000DF1080C8CE803001C
:1034300096E803000DF1500989E8030095E80300C0
:103440000DF14808137A88E8030094E803000DF1B1
:10345000400A8AE80300DDE914B001909EE8030009
:103460000DF1380A8AE803009CE803000DF1300AE8
:103470008AE803007B40EFF3108A72B6DBF80C1089
:1034800001984840CBF80C008AF31088D90661D423
:1034900098066CD4590677D41B0600F183805E4BE6
:1034A000586810305968091A0029FBDBDDE9140B54
:1034B000EFF3108A72B6C16881EA0B01C1608AF32A
:1034C00010883901C9B211725A68534813324368DF
:1034D0009B1A002BFBDB81EA070396E8030089E8CF
:1034E000030095E8030088E8030094E8030010AAAD
:1034F00082E803009EE803000EAA82E803009CE82D
:1035000003000CAA82E80300149C1598EFF31081C5
:1035100072B6E2684240E26081F31088D8066FD448
:10352000990662D45A0649D41B0653D43A494A68CC
:1035300010324B689B1A002BFBDBDDE91423EFF301
:10354000108172B6D0684340D36081F3108817B001
:10355000BDE8F08FDDE9120BEFF3108A72B6C16897
:1035600081EA0B01C1608AF31088980692D5DDE9E3
:10357000100BEFF3108A72B6C16881EA0B01C160CB
:103580008AF31088590687D5DDE90E0BEFF3108A10
:1035900072B6C16881EA0B01C1608AF310881B060C
:1035A0007FF57DAFDDE90C1AEFF3108072B6CB68C2
:1035B00083EA0A03CB6080F3108870E7DDE90E141C
:1035C000EFF3108072B6CA686240CA6080F3108858
:1035D0001B06ABD5DDE90C23EFF3108172B6D06882
:1035E0004340D36081F31088A0E7DDE91014EFF3C6
:1035F000108072B6CA686240CA6080F3108891E792
:10360000DDE91214EFF3108072B6CA686240CA6036
:1036100080F3108884E700BF001000E008B5212087
:10362000FCF714FE826903461168C06810B5124C9D
:1036300099611189016020681060986922609A8AF6
:1036400050B9914207D0186928B19A680B490244D1
:10365000C3E90112012010BD9142406801D01A69EE
:103660000AB99860F6E799680A44121A002AF8DA4B
:103670002020FCF7EBFD00BF3C0000201D360108B8
:1036800010B5184B02781B78934228D9164B17496E
:103690001B6853F832408C4203EBC2031FD15C68B5
:1036A0000379E27E1A44E27672B6A27C9A4205D889
:1036B0000022FE23A274237762B610BDD21AD0B2C4
:1036C000123304F11202234402EB000C13F8011F21
:1036D00002F8011F6245F9D1A07462B610BDFEF771
:1036E00019FB00BF8C01002088010020813B0108EC
:1036F00038B50F4B02781B78934217D90D4B0E4902
:103700001B68044653F83200884203EBC2030DD114
:103710005D68F8212846FFF7D3FD217901B938BD4E
:10372000A2682846BDE83840FFF71ABEFEF7F2FA55
:103730008C01002088010020E13E010838B50F4BC4
:1037400002781B78934217D90D4B0E491B6804462B
:1037500053F83200884203EBC2030DD15D68FA21B1
:103760002846FFF7ADFD217901B938BDA26828468A
:10377000BDE83840FFF7F4BDFEF7CCFA8C0100201D
:1037800088010020E13E01082DE9F843194B027839
:103790001B7893422CD9184B18491B6853F83240B8
:1037A0008C4203EBC20323D15F68D7E903231B04D8
:1037B00013610179D0F808904B1ED7E90025DBB2E0
:1037C00099B109F101060E4C06EB03084B46B146D0
:1037D000197863689B1A9D42FBD83846FFF7FEFDB7
:1037E0004645626801D00136F0E73A60BDE8F883EB
:1037F000FEF790FA8C01002088010020753F010837
:10380000001000E02DE9F843194B02781B78934231
:103810002BD9184B18491B6853F832408C4203EBE4
:10382000C20322D15F68D7E903321A610179D0F867
:1038300008904B1ED7E90025DBB299B109F10106CA
:103840000E4C06EB03084B46B146197863689B1A89
:103850009D42FBD83846FFF7C1FD4645626801D05E
:103860000136F0E73A60BDE8F883FEF753FA00BF8F
:103870008C01002088010020753F0108001000E045
:1038800038B50446437F4069D4F818C0856804EB16
:10389000D30003F007020121914090F8282015EA97
:1038A0000C0F1ABF0A43D2B28A4380F82820A27FA5
:1038B0000133DBB29A4206D9A268616A63770A448F
:1038C000A260012038BD237F9A060ED4D4E90321DB
:1038D00011610A4A03F0300343F009030020237703
:1038E0001072074B01221A7038BD04F10C0393E8E3
:1038F0000300012203F0B0FA237FEAE7280000204A
:1039000064010020D0E9053110B59B68027F0B40AF
:1039100004460DD042F004020277637F5A1C3F2B0D
:1039200062770ED8A368626A13440120A36010BDB9
:103930005107F2D5114A4377BDE810404260FFF7C6
:103940009FBF237F0022A2779A0613D504F10C03B0
:1039500093E80300012203F07FFA237F084A03F073
:10396000300343F00903002023771072054B012236
:103970001A7010BDD4E903211161EFE78138010805
:10398000280000206401002038B5027F817F0446B2
:1039900002F0200309B353B9A368606A224A0021E8
:1039A00003EB80036177C4E90123012038BD456939
:1039B0001E4902F01002002351F8040FA84225D03E
:1039C0000133072BF8D10020EFF3108572B60021E8
:1039D00003F02AF985F31088DEE773B9D0E90331E3
:1039E0001961134B02F0300242F0090200202277E5
:1039F0001872104B01221A7038BD00F10C0301221D
:103A000093E8030003F028FA227FEAE7A06990FA1E
:103A1000A0F10028B1FA81F14FF0100008BF4FF07B
:103A2000FF3113FB0010CFE705390108DC850108E1
:103A300028000020640100202DE9F04F4B4B047852
:103A40001B78A34283B040F28F80494B494A1B68E0
:103A500053F83410914203EBC40340F085805D6855
:103A60004548D5E9031243685B1A9A42FBD895E8AA
:103A7000030002AB03E90300AE8A3F4BD5F808C050
:103A80005F6805F1160E9EB306EB0E0B1EF8011BC8
:103A900008200A0630D55A68D21B592AFBD972B6BB
:103AA000DDF800A0D3F80480019EDAF80C20724003
:103AB000CAF80C2062B6A8EB0707BC4545D94900F7
:103AC0005A68A2EB08022E2AFAD972B6DDE90092F2
:103AD000D9F80C707A40C9F80C2062B65F685A6851
:103AE000D21B0E2AFBD901384746D2D1DE45CDD1B3
:103AF000214B01225B682FE05A68D21B592AFBD95F
:103B000072B6DDF80090D3F80480DDF804A0D9F88F
:103B10000C208AEA0202C9F80C205A68A2EB0802BB
:103B20000E2AFAD9D9F80C208AEA0202C9F80C2028
:103B300062B6A8EB0707BC4507D901384FEA410137
:103B40004746A6D1DE45A1D1D2E7DDE900130A4AF6
:103B50001B040B61536800220848EB60214603B048
:103B6000BDE8F04FFCF794BCFEF7D4F88C010020C0
:103B700088010020993E0108001000E070840108CF
:103B800010B50479082C09D8221D06490078D20006
:103B9000FEF720F8044B8477436010BD2420FCF727
:103BA00055FB00BF813B0108C1300108D0E901127B
:103BB000007803F023BA00BF70B5D0E902120446C2
:103BC000007903F01BFA0E49054620222078FEF703
:103BD00001F80C4A0346D4E9046011880A4CDD6000
:103BE0000022C3E906225C609E82186131B9074B4E
:103BF0001A780B2A9CBF0C221A7070BDFEF710F8C1
:103C0000B93B01084800002025360108400000208B
:103C100038B51A4B02781B78934229D9184B1949A9
:103C20001B68054653F83200884203EBC2031FD1DC
:103C30005C682046FCF7D8FA6A68A260A868E06071
:103C40002A7C00210B4662F3070362F30F234FF433
:103C50007E42A1742382A4F81B20EB6863771B06C5
:103C600008D400B938BD2046BDE83840FCF7FABAA0
:103C7000FEF750F82220FCF7E9FA00BF8C01002083
:103C800088010020813B010838B5104B02781B7871
:103C9000934219D90E4B0F491B68054653F8320061
:103CA000884203EBC2030FD15C682046FCF79CFA04
:103CB0006B68A360AA68E260EA682046C4E904234E
:103CC000BDE83840FCF7CEBAFEF724F88C0100209E
:103CD00088010020E53D010838B5234B02781B78A8
:103CE00093423CD9214B22491B6853F832408C4205
:103CF00003EBC20333D15D68EFF3108272B61D4B44
:103D00001C68002C2DD02168196082F3108843684C
:103D100063608368238172B6AB690022226023B19D
:103D2000EB691C60EC6162B638BDC5E9064462B659
:103D30002846FCF759FA104A69686368914207D02F
:103D40000E4A2846C5E90123BDE83840FCF78ABA87
:103D5000AA68D21A002AF3DA2020FCF777FAFDF7D6
:103D6000D9FFFDF759FF00BF8C010020880100201A
:103D7000B93B01083C0000201D360108253601082A
:103D800070B5154A017812788A4282B01ED9134A5A
:103D90001268034652F831401148844202EBC102D6
:103DA00014D1546893F804C0A27F624510D9D3E9B6
:103DB000021268460CF1040503F0AAF8DDE90001DF
:103DC00004EBC50484E8030002B070BDFDF7A2FF58
:103DD0002320FCF73BFA00BF8C0100208801002063
:103DE000813B010870B50B4982B004462C22007853
:103DF000FDF7F0FED4E901120546684603F088F8A5
:103E0000DDE90001044A05F1240383E803006A6048
:103E100002B070BDE53D0108513201082DE9F043C3
:103E2000044685B01B4900783422FDF7D3FE94F890
:103E300008906668D4F80C80B9F1000202AF05461C
:103E400018BF01223146384603F062F897E80300B4
:103E500005F1140383E8030001224146684603F09C
:103E600029F8DDE9000105F10C0383E80300A6EB66
:103E70000806B9F1000FB6FA86F622692A620CBF6D
:103E800001231123760943EA46132B7705B0BDE8D9
:103E9000F08300BF1D3E010830B5044683B0416881
:103EA0000022684603F006F8A3681A0413D49DB2F2
:103EB00005F118020949207892B2FDF78BFE0346FE
:103EC0009DE8030083E80300E2689A6022699D820E
:103ED0001A6103B030BD2720FCF7B8F9993E0108FC
:103EE000F0B5224983B005461C220078FDF772FE2A
:103EF000A96804460022684602F0DCFFDDE9000103
:103F000004F10C0383E803000022E968684602F02C
:103F1000D1FFDDE9000104F1140383E8030001226D
:103F20006968684602F0C6FF2046F821FFF7C8F925
:103F300020212046FFF7C4F972B60D4F002120461C
:103F40007E68FFF7BDF97B6862B6236029699A1B1A
:103F50008A4202D2F01A0144616069698A4202D23F
:103F6000F61A0E44A66003B0F0BD00BFE13E0108A2
:103F7000001000E0F0B52E4983B005463C220078E1
:103F8000FDF728FE696806460022684602F092FFA7
:103F9000DDE9000106F10C0383E803000022A968B3
:103FA000684602F087FFDDE9000106F1140383E8AB
:103FB00003000022E968684602F07CFFDDE90001A9
:103FC00006F11C0383E8030000222969684602F019
:103FD00071FFDDE9000106F1240383E803000022FC
:103FE0006969684602F066FFDDE9000106F12C030D
:103FF00083E803000022A969684602F05BFFDDE95F
:10400000000106F1340383E8030072B6094F002172
:1040100030467C68FFF7E2F97A6862B6EB69111BFB
:10402000994202D2A41A1C44746003B0F0BD00BFD0
:10403000753F0108001000E02DE9F041244B0278A3
:104040001B7893423FD9234B23491B6853F83240D6
:104050008C4203EBC20336D15C68257F15F0020861
:1040600001D0BDE8F08106798168077B0A2E2CD843
:104070000A2F2AD8324604F1280005F0310503F052
:104080000BFA45F00205FF00F30084F81D80257748
:10409000E377A7772EB194F8283003F03F032A2B5B
:1040A0000FD0226A0D4B6262636072B60C4B5B6884
:1040B00003F561532046A360FCF7D4F862B6BDE86F
:1040C000F081084BF0E7FDF725FE2520FCF7BEF850
:1040D0008C010020880100201D3E01087D3101086F
:1040E000001000E0E931010810B5124B02781B788E
:1040F000934219D9104B11491B6853F832408C4236
:1041000003EBC20210D143685468D0E902211804BD
:104110000CD4A08A03EB020C844507D81633E018B0
:10412000BDE8104003F0B8B9FDF7F4FD2620FCF718
:104130008DF800BF8C01002088010020993E010805
:104140002DE9F04390F81080D0F81490B8F1030FE7
:1041500085B04BD8294B02781B789342054648D945
:10416000274B28491B6853F83200884203EBC203EF
:104170003FD1254A254914685F6804F120038B422A
:1041800039D813600021202202AE204603F004F942
:1041900069680122304602F0BBFE96E8030084E81D
:1041A00003000022A968684602F084FEDDE90001F0
:1041B00004F1080383E803000022E968684602F07E
:1041C00079FEDDE9000104F1100383E8030084F8BF
:1041D0001C80C4F818903B7C13F0060F06D143F006
:1041E00002033C603B7405B0BDE8F0831B20FCF784
:1041F0002DF8FDF78FFD1120FCF728F88C01002029
:1042000088010020DD220108B000002000FE01200E
:104210002DE9F0412F4B02781B78934284B054D99A
:104220002D4B2E491B68054653F83200884203EB9C
:10423000C2034AD12A4A2B491468D3F8048004F1F6
:1042400028038B4243D8136000212822204603F024
:10425000A3F8EB6863622B690122934084F8203055
:1042600002AF6968384602F025FE97E8030084E84B
:10427000030001226968684602F04AFEDDE9000198
:1042800004F1100383E803000122A968384602F014
:1042900011FE97E8030004F1080383E803000122FC
:1042A000A968684602F034FEDDE9000104F1180354
:1042B00083E8030098F80830C8F8004043F0010391
:1042C00088F8083004B0BDE8F081FDF723FD112027
:1042D000FBF7BCFF8C01002088010020A926010803
:1042E000B000002000FE0120013808B503280FD8D7
:1042F000DFE800F00B0805021D20FBF7A7FF1E20DA
:10430000FBF7A4FF1C20FBF7A1FF1F20FBF79EFF7C
:1043100008BD00BF2DE9F041414B02781B78934264
:104320007BD9404B40491B6853F832408C4203EB29
:10433000C20372D15B681A7A1D68D607D0E901847E
:104340001BD595F82010284601F01CFC06460028D5
:1043500061D154FA88F806E014F8011B284601F0F0
:1043600027FB002851D14445F6D1284601F082FCB4
:104370003046BDE8F041FFF7B7BF2C4F19797E6892
:1043800006F5AF265FFA88F806F5C866334642465A
:10439000284602F0EFFD08F1FF33012808BF032093
:1043A000DBB2B8F1000F16D004F1010C9C4490B9B7
:1043B000214611F8013B2B616A69140606D45205A7
:1043C00021D47A68921B002AF6DB02208C4502D0A9
:1043D0000C460028ECD040F2012314492B6005E084
:1043E000530514D44A68921B002A12DA6A6912F043
:1043F0008003F5D11E46002818BF06463046BDE8AA
:10440000F041FFF771BF0120E0E70126ADE701268B
:10441000F1E70226EFE70326A7E7FDF77BFC00BFE5
:104420008C01002088010020A9260108001000E06E
:104430002DE9F04F9A46037A046883B0DE071546EB
:10444000DDF830900A4640F1A880002940F01C8138
:1044500094F82010204641F0010101F093FB07463B
:10446000002840F063810AF1FF385FFA88F8BAF15A
:10447000000F00F08B80B04D01904FF0100ADFF874
:10448000BCB2A0695A46002352F8041F814200F0D2
:104490002F810133072BF7D10020EFF3108672B67E
:1044A0000122002102F0C0FB86F3108808270026B5
:1044B000CDF800806A68636A1A446B689B1A002B07
:1044C000FBDB21695B46002053F8042F8A4200F091
:1044D000EF8001300728F7D10020EFF3108872B683
:1044E0000122002102F0A0FB88F310886A68636A49
:1044F0001A446B689B1A002BFBDBD4E906329B68DD
:104500007600134094E803000022F6B2934218BFED
:1045100046F0010602F0A0FC013FCBD1DDF800809F
:10452000B8F1000F40F0D0806A68636A1A446B6883
:104530009B1A002BFBDB216900235BF8042F8A42C6
:1045400000F0CA800133072BF7D1EFF3108B72B65E
:1045500001223846002102F067FB8BF310886A685D
:10456000636A1A446B689B1A002BFBDB08F1FF3867
:1045700094E8030000225FFA88F802F06DFCB8F1BD
:10458000FF0F09F8016B7FF47AAF019F204601F01D
:1045900071FB384603B0BDE8F08F674E0179736850
:1045A00003F5AF2B41F001080BF5C86B002A3DD194
:1045B00041465B465246204602F0DCFC0128074695
:1045C00000F0B680002840F0AD800AF1FF32D2B290
:1045D000BAF1000F1BD0584840F20125636913F46B
:1045E000886F04D14368A3EB0B03002BF6DBEFF3DA
:1045F000108172B62369012ADBB200F0878081F353
:104600001088013AD2B2FF2A09F8013BE6D14A4AA2
:1046100005E05368A3EB0B03002B80F28B806369EA
:104620005D06B6D55805F4D50127B2E75B462046AE
:10463000009202F09FFC009A012807462A4408BF16
:1046400003278FB915F8013B23616369190607D465
:104650005B0562D47368A3EB0B03002BF5DB022729
:10466000AA42EED1002FA3D040F20123324A2360A8
:1046700006E05B058DD45368A3EB0B03002B88DAAF
:104680006369190685D5F4E70091204694F8201057
:1046900001F078FAC0BB009AAE1805E015F8011BCE
:1046A00001F086F900283FD1B5422046F6D1CFE689
:1046B000626992FAA2F3002AB3FA83F308BF4FF0BB
:1046C000FF3310FB0A3008E704F1080393E8030006
:1046D0003A4602F0C1FB27E76769002F97FAA7F770
:1046E000B7FA87F708BF4FF0FF3713FB0A772CE7BD
:1046F000E269002A92FAA2F2B2FA82F208BF4FF0FF
:10470000FF3213FB0A20C8E603273FE7256081F349
:104710001088002209F8013B60E7AA424FF0010728
:104720008FD19FE702279FE701272FE704272DE777
:10473000042799E702272CE7001000E0DC85010838
:10474000F0B5164B83B01B780478A34202AF22D990
:10475000134B144A1B68014653F83400904203EB94
:10476000C40318D10D7B5868EB1D03F4FC73ADEB4B
:10477000030D02AE00968A6809792B46FFF758FEB2
:10478000FFF7B2FD084833462A462146FBF780FE74
:104790000437BD46F0BDFDF7BDFA00BF8C01002017
:1047A00088010020A926010888840108074B0022FF
:1047B0001A72C27F8368D0F80CC00549634442F086
:1047C0000102C27783600120087070472800002032
:1047D0006C010020027D0549034642F001020020E1
:1047E0001A750872024B01221A70704728000020C7
:1047F00070010020427D0549034642F0010200207D
:104800005A750872024B01221A7070472800002066
:1048100074010020027E0549034642F00102002097
:104820001A760872024B01221A7070472800002085
:1048300078010020027E0549034642F00102002073
:104840001A760872024B01221A7070472800002065
:104850007C010020427B0169D20703460AD5428DC4
:10486000032001325A85587389009A680A4401204E
:104870009A607047D0E9062092680240F5D110B4E2
:10488000064C012058732272054A10709A6810BCB9
:10489000C9000A4401209A60704700BF2800002028
:1048A00080010020027FC168034642B1028C0132C0
:1048B000890002849A680A4401209A607047D0E90E
:1048C000042092680240F5D110B4064C01201877FC
:1048D0002272054A10709A6810BCC9000A4401206F
:1048E0009A6070472800002084010020027D034662
:1048F000D00702D5198B01311983910704D5D3E96B
:1049000014018068084208D1074942F001020020E2
:104910001A750872054A01211170D3E902210A446F
:1049200001209A60704700BF2800002090010020FD
:10493000027D510703460ED5C27D0132C275084A79
:10494000002111729A68D3F80CC006490120624414
:1049500008709A60704742F004020275EFE700BFEA
:10496000280000209401002030B5847D521A24B123
:10497000651E0121A9400A44E240017FFE2A01F19F
:10498000030C01F101045FFA8CFC01F1020E0DD859
:10499000DDB2D2B2C3F3072301444A770219557737
:1049A00000EB0E02537780F81CC030BDFF220125BA
:1049B0000023F1E710B50D49044650220078FDF7B9
:1049C00009F90B4B22791B780A49416093420BD9B4
:1049D000094B0A491B6853F832408C4203EBC2036F
:1049E00002D15B68036110BDFDF794F9B549010878
:1049F0008C010020D547010888010020DD22010834
:104A000010B50D49044654220078FDF7E3F80B4B2E
:104A100022791B780A49416093420BD9094B0A4914
:104A20001B6853F832408C4203EBC20302D15B682F
:104A3000036110BDFDF76EF9014A01088C010020E9
:104A40001548010888010020A926010810B50D4964
:104A5000044654220078FDF7BDF80B4B22791B78F1
:104A60000A49416093420BD9094B0A491B6853F824
:104A700032408C4203EBC20302D15B68036110BD7C
:104A8000FDF748F94D4A01088C010020354801081E
:104A900088010020A926010810B50F4B027819786B
:104AA0008A4217D20D4B1B6853F8324003EBC20CFD
:104AB0000B4A94420ED10279DCF804008A4209D2F2
:104AC00053F8324007498C4203EBC20302D15B68C2
:104AD000036610BDFDF71EF98C010020880100203F
:104AE000695701085559010810B50F4B027819781C
:104AF0008A4217D20D4B1B6853F8324003EBC20CAD
:104B00000B4A94420ED10279DCF804008A4209D2A1
:104B100053F8324007498C4203EBC20302D15B6871
:104B2000836510BDFDF7F6F88C0100208801002098
:104B3000CD5701085559010810B50D4904466822A2
:104B40000078FDF747F80B4B22791B780A49416042
:104B500093420BD9094B0A491B6853F832408C42E7
:104B600003EBC20302D15B68036110BDFDF7D2F80D
:104B7000394B01088C010020ED4801088801002014
:104B8000A926010810B5184B93F800C003786345B7
:104B900028D2164A116851F8334001EBC302144B76
:104BA0009C421FD15268836813661BB982F85C303F
:104BB000936510BD43685366037B634512D201EBD6
:104BC000C30451F833100B4B99420BD10369616850
:104BD00082F85D30436982F85E30062382F85C30EB
:104BE000916510BDFDF796F88C010020880100202A
:104BF000394B01080926010838B5057A032D1BD861
:104C00000F49044620220078FCF7E4FF0D4B0E49C3
:104C10001A78237941609A420CD90C4A126802EB47
:104C2000C30152F833200A4B9A4203D14B6885776F
:104C3000836138BDFDF76EF82920FBF707FB00BF45
:104C4000F94B01088C010020AD47010888010020C4
:104C5000DD22010870B5502204461B490078FCF79C
:104C6000B9FFA368194A4260BBB1012B25D1184A8C
:104C7000217912788A421ED9164A174D126852F8C5
:104C80003160AE4202EBC10215D152680375E36890
:104C90000261012B14D8837570BD0D4A21791278F9
:104CA0008A4208D90B4A0D4D126852F83160AE4263
:104CB00002EBC102E9D0FDF72DF82B20FBF7C6FA75
:104CC0002A20FBF7C3FA00BF554C0108F54701083D
:104CD0008C01002088010020A9260108DD2201089E
:104CE00038B5057A052D1ED81249044650220078A1
:104CF000FCF770FF104B11491A78237941609A42F2
:104D00000FD90F4A126802EBC30152F833200D4B42
:104D10009A4206D14B6803611B7CDB0706D54575BB
:104D200038BDFCF7F7FF3020FBF790FA2F20FBF798
:104D30008DFA00BFE14C01088C01002031490108C7
:104D400088010020DD22010808B53120FBF77EFA3A
:104D500010B5124B02781B7893421AD9104B1149A7
:104D60001B6853F832408C4203EBC20311D15A68DE
:104D70000379117899420ED353708368C3F11F03EE
:104D8000DBB20120591E00FA01F19370D07051601E
:104D900010BDFCF7BFFFFFF7D7FF00BF8C0100205D
:104DA00088010020B958010810B5134B02781B7810
:104DB00093421DD9114B12491B6853F832408C4263
:104DC00003EBC20314D15B680022DA701978027910
:104DD00091420FD9C2EBC20203EB82030433021DDE
:104DE000183052F8041F43F8041F8242F9D110BD55
:104DF000FCF790FFFFF7A8FF8C010020880100203E
:104E0000B958010810B5134B02781B7893421DD98D
:104E1000114B12491B6853F832408C4203EBC2031A
:104E200014D15A680023D3701178037999420FD9AD
:104E3000C3EBC30102EB810101338468CC61C3EB96
:104E4000C30302EB8302C368536010BDFCF762FF2B
:104E5000FFF77AFF8C01002088010020B958010873
:104E600038B5144B02781B78934220D9124B134962
:104E70001B68044653F83200884203EBC20316D184
:104E80005D682846FBF7B0F96368AB60A368EB6028
:104E900003B938BDE3682B6123696B6162692A77C6
:104EA00000236B772846BDE83840FBF7DBB9FCF7F9
:104EB00031FF00BF8C01002088010020F94B010860
:104EC00038B5144B02781B78934221D9124B134901
:104ED0001B68054653F83200884203EBC20317D122
:104EE0005C682046FBF780F9002323756A6802B9E5
:104EF00038BDE260C4F81630A37672B6084AE3689B
:104F0000526813442046A360FBF7ACF962B638BD83
:104F1000FCF700FF8C01002088010020B549010842
:104F2000001000E038B5144B02781B78934220D96A
:104F3000124B13491B68054653F83200884203EBB5
:104F4000C20316D15C682046FBF74EF90023637557
:104F50006A6802B938BDE260A361237772B6094A74
:104F6000E368526813442046A360FBF77BF962B6FE
:104F700038BDFCF7CFFE00BF8C0100208801002067
:104F8000554C0108001000E038B5154B02781B782D
:104F9000934222D9134B14491B68054653F832003B
:104FA000884203EBC20318D15C682046FBF71CF96A
:104FB000002323766A6802B938BDE260C4F81A306B
:104FC000A377636172B6094AE368526813442046C6
:104FD000A360FBF747F962B638BDFCF79BFE00BF44
:104FE0008C01002088010020014A0108001000E027
:104FF00038B5154B02781B78934222D9134B1449CC
:105000001B68054653F83200884203EBC20318D1EF
:105010005C682046FBF7E8F8002323766A6802B94B
:1050200038BDE260C4F81A30A377636172B6094AEA
:10503000E368526813442046A360FBF713F962B695
:1050400038BDFCF767FE00BF8C01002088010020FE
:105050004D4A0108001000E038B5174B02781B7864
:10506000934227D9154B16491B68054653F8320061
:10507000884203EBC2031DD15C682046FBF7B4F8FD
:1050800000236373636169682161D4E9080279B11F
:1050900012040261A36284F82C3072B6094A2369B3
:1050A000526813442046A360FBF7DCF862B638BDB3
:1050B000026138BDFCF72EFE8C0100208801002023
:1050C00069570108001000E038B5154B02781B78CD
:1050D000934222D9134B14491B68054653F83200FA
:1050E000884203EBC20318D15C682046FBF77CF8CA
:1050F000002222776B68E36003B938BDC4F81E2034
:1051000084F8222072B6094AE368526813442046A4
:10511000A360FBF7A7F862B638BDFCF7FBFD00BF44
:105120008C01002088010020CD570108001000E00C
:1051300038B5164B02781B78934224D9144B154985
:105140001B68054653F83200884203EBC2031AD1AC
:105150005C682046FBF748F8237D23F001032375A4
:105160006B6803B938BD0022E360C4F81620A2764C
:1051700072B6094AE368526813442046A360FBF7FD
:1051800071F862B638BDFCF7C5FD00BF8C01002088
:1051900088010020394B0108001000E038B5134B9E
:1051A00002781B7893421FD9114B12491B680446A1
:1051B00053F83200884203EBC20315D15D682846DC
:1051C000FBF712F800232B75A26802B938BD62689C
:1051D000AA60A268EA602B77E268AA75AB612846EC
:1051E000BDE83840FBF73EB8FCF794FD8C01002089
:1051F00088010020E14C010810B5164B01781B789E
:105200008B4284B023D9144B144A1B6853F83100E5
:10521000904203EBC1031AD1586872B6104A8369F1
:105220005268C4699B68234062B6448D029490F82A
:105230002CC0B3FA83F35B090CEB83030193038D5A
:10524000009308480023FBF723F904B010BDFCF7D6
:1052500061FD00BF8C010020880100206957010812
:10526000001000E04884010810B5164B01781B7847
:105270008B4284B023D9144B144A1B6853F8310075
:10528000904203EBC1031AD1586872B6104A036901
:10529000526844699B68234062B6048C029490F87B
:1052A00022C0B3FA83F35B090CEB83030193C38B36
:1052B000009308480023FBF7EBF804B010BDFCF79F
:1052C00029FD00BF8C01002088010020CD57010876
:1052D000001000E04884010810B50E4B01681B78EF
:1052E000CAB2934213D90C4B0C481B6853F8324096
:1052F000844203EBC2030AD15B68094893F85C203F
:105300005B6EBDE81040C2F38002FBF7C1B8FCF74A
:1053100001FD00BF8C01002088010020394B0108ED
:1053200058840108F0B51B4B02781B78934287B074
:105330002DD9194B19491B68044653F8320088428D
:1053400003EBC20323D15D68154E2869B923ADF87C
:105350001430022205AB01217768FDF72DFD9DF881
:105360001520736822F08002202A0ED8288B21781D
:105370000290A87E02EB820C60440190EC8A0948FE
:105380000094DB1B3A46FBF783F807B0F0BDFCF74F
:10539000C1FC00BF8C01002088010020B549010834
:1053A000001000E0488401082DE9F0432A4B0478FE
:1053B0001B78A34285B04CD9284B294A1B6853F867
:1053C0003410914203EBC40343D15B68057993F831
:1053D000158086681869B8F1020F1DD0DFF8849037
:1053E00033462A460121D9F80470FDF7E5FCD9F8C7
:1053F0000420D31BB3F5616F94BF2B460023B8F193
:10540000010F08BF1746184800963A462146FBF799
:105410003FF805B0BDE8F083083003C804AA02E9EC
:105420000300039A120402610E4A50684830516822
:10543000411A0029FBDA72B6DDE9021008615768EB
:1054400062B6012118692A463346FDF7B5FC2B46A2
:10545000D9E7FCF75FFC00BF8C0100208801002029
:10546000E14C0108001000E050840108F0B52B4B1E
:1054700001781B788B4287B04DD9294B294A1B688C
:10548000064653F83100904203EBC10343D15C68F8
:10549000237D8BB1012B25D00020034605462A46EB
:1054A000658B0295257F28440190248B1E4800942B
:1054B000FAF7EEFF07B0F0BDAF23ADF814301B4F85
:1054C00020697D6805AB02220121FDF775FC9DF87E
:1054D00015207B68317802F01F0202EB42025B1B51
:1054E0005000DCE7114F2F228DF8142004AA7D68AC
:1054F00020690092194605AAFEF79AFFFEF7F4FE0E
:105500009DF810207F68317802F01F0000EB40000A
:105510007B1B4000C3E7FCF7FDFB00BF8C010020B4
:1055200088010020554C010848840108001000E063
:10553000F0B5284B02781B78934289B048D9264BA6
:1055400026491B68054653F83200884203EBC20324
:105550003ED15C680DF11B0101233A2220698DF8D0
:105560001820009106AA1946FEF762FFFEF7BCFE5E
:105570009DF81B30DB0602D5A38B0133A383184FA4
:10558000206972238DF8143007AB7E68009305AA5A
:1055900002230121FEF74CFFFEF7A6FE9DF81CC07A
:1055A000A28B7B689DF81D0002924FEA0C2C297893
:1055B000A57F0CF4F85C40EA0C0028440190648B51
:1055C000084800949B1B3246FAF762FF09B0F0BD11
:1055D000FCF7A0FB8C01002088010020014A010893
:1055E000001000E048840108F0B5284B02781B78D1
:1055F000934289B048D9264B26491B68054653F883
:105600003200884203EBC2033ED15C680DF11B01FE
:1056100001231B2220698DF81820009106AA194643
:10562000FEF706FFFEF760FE9DF81B301B0702D059
:10563000A38B0133A383184F206970238DF8143096
:1056400007AB7E68009305AA02230121FEF7F0FE56
:10565000FEF74AFE9DF81CC0A28B7B689DF81D00DA
:1056600002924FEA0C2C2978A57F0CF4F85C40EAF2
:105670000C0028440190648B084800949B1B324620
:10568000FAF706FF09B0F0BDFCF744FB8C010020DF
:10569000880100204D4A0108001000E048840108FC
:1056A000F0B52C4B02781B78934287B04FD92A4B28
:1056B0002A491B68054653F83200884203EBC203AF
:1056C00045D15C68237D9B0727D4254F20697E68E0
:1056D00005AB009318230DF113028DF8133001214F
:1056E0000223FEF7A5FEFEF7FFFDBDF814C0208BD8
:1056F0007B68297802909CFA9CFCA07ECCF34E0C2F
:105700000CF0040C60440190E48A164800949B1B42
:105710003246FAF7BDFE07B0F0BD72B6104A236DEF
:105720005268616D9B680B4062B6218B0291A17E2D
:105730000C48B3FA83F35B0901EB83030193E38A1B
:10574000297800930023FAF7A3FE07B0F0BDFCF719
:10575000E1FA00BF8C01002088010020394B0108CC
:10576000001000E04884010870B50546154900782E
:10577000642284B0FCF72EFA2B79134941605A1E3B
:10578000032A1CD8037302AE0446A96830460122DE
:1057900001F0BEFB96E8030004F1180383E8030060
:1057A0000022E968684601F085FBDDE9000104F1AB
:1057B000200383E80300626A026104B070BD2E20FA
:1057C000FAF744FD695701085548010870B51449B6
:1057D00005465C22007882B0FCF7FCF9114B0022F0
:1057E000027729791B7804468B420F48606015D9EF
:1057F0000E4B0F481B6853F83160864203EBC10320
:105800000CD15B68A968A361684601F081FBDDE902
:105810000001103484E8030002B070BDFCF77AFA8E
:10582000CD5701088C010020A548010888010020FF
:10583000DD22010870B51B4904466822007882B059
:10584000FCF7C8F9184B194A1978237942608B4242
:1058500025D2174A174D126852F83360AE4202EB58
:10586000C3031CD15B68036123788B4217D202EB20
:10587000C30C52F833300B4A934210D1A168DCF8C4
:1058800004406846012201F043FBDDE900010222E9
:1058900004F1500383E80300227502B070BDFCF7E9
:1058A00039FA00BF394B01088C010020ED4801088E
:1058B00088010020A9260108F8B5104B0278197854
:1058C00004799142C4EBC40315D90D4F98003B688D
:1058D00053F83210D60071B90A490D885DB90A49EA
:1058E00043F832100830FCF75BF93B6833445860EA
:1058F0000470C570F8BD0B20FAF7A8FC8C010020DD
:105900008801002048000020B958010810B590F81F
:105910003030044613F001000FD09B070ED494F8EA
:10592000343094F833209A420AD3A268A169013333
:105930000A4484F83430A260012010BD002010BD5C
:1059400094F83210206A0231C9B2FDF781F994F857
:105950003430EAE710B51249044644220078FCF7D7
:1059600039F900230F4A80F830300361A0F8333052
:1059700011782279914211D90B49096801EBC204CF
:1059800051F83210094A914208D162680264C0E9B4
:105990000933C0E90E33C362C36010BDFCF7BAF926
:1059A000555901088C01002088010020B9580108D0
:1059B0002DE9F047714C80460D46082602272B063C
:1059C00069D4002F40F08F8000276268D8F8243017
:1059D0006D00EDB21A4463689B1A002BFBDBDFF805
:1059E000A091D8F810004A46002352F8041F8842BC
:1059F0006AD00133072BF8D10020EFF3108A72B67A
:105A00000122002101F010F98AF310886268D8F8A9
:105A100024301A4463689B1A002BFBDB98E80300D0
:105A2000002201F019FA013EC9D1002F72D053496A
:105A3000D8F824304A681A444B689B1A002BFBDBC9
:105A4000D8F81010002359F8042F914278D0013370
:105A5000072BF8D1EFF3108472B6012200213046F3
:105A600001F0E2F884F31088D8E9062343499468EA
:105A7000D8F824004A681C4002444B689B1A002B4B
:105A8000FBDB98E80300002201F0E6F9201E18BFB6
:105A90000120BDE8F087012F14D0D8F81800384A4B
:105AA000002352F8041F814225D00133072BF8D17F
:105AB0000020EFF3108772B60122002101F0B4F844
:105AC00087F31088012780E7D8F81420002A92FA7B
:105AD000A2F2B2FA82F24FF0100108BF4FF0FF328B
