:020000040801F1
:100000000000022099660108AD660108AD6601088E
:10001000AD660108AD660108AD660108AD66010870
:10002000AD660108AD660108AD660108AD66010860
:10003000AD660108AD660108AD660108916801086A
:10004000AD660108AD660108AD660108AD66010840
:10005000AD660108AD660108AD660108AD66010830
:10006000AD660108AD660108AD660108AD66010820
:10007000AD660108AD660108AD660108AD66010810
:10008000AD660108AD660108AD660108AD66010800
:10009000AD660108AD660108AD660108AD660108F0
:1000A000AD660108AD660108AD660108AD660108E0
:1000B000AD660108AD660108AD660108AD660108D0
:1000C000AD660108AD660108AD660108AD660108C0
:1000D000AD660108B1660108084909488B68094AFC
:1000E0004FF0000C1A4480F808C003F55B03064883
:1000F00003F53A4382608B60012070471C000020AA
:100100002800002000BADB8010000020002070478B
:100110000E4B1888B8B110B40D4A0E4B146893F802
:1001200000C0013810D02346002219460132634432
:1001300082420B60F9D10CFB0242074B0021116097
:100140001C6010BC704770472246F6E7480000204C
:1001500044000020400000203C00002010B48268D1
:10016000D0E90034EFF3108172B6DBB2012B0CD072
:10017000022B04D1226081F3108810BC7047D2B2E8
:10018000227081F3108810BC704792B2228081F3F4
:10019000108810BC704700BF704700BF816982683B
:1001A000CB6810B4C4696340CB6090F8303083F002
:1001B0000103D9074CBFC168016980F830305B0783
:1001C0000A4403D4826010BC012070474369D11AED
:1001D0000029F7DB034A42601A46826010BC012006
:1001E000704700BF4D030108EFF3108C72B614493D
:1001F0000B68834202D110E083420BD01A461B6881
:10020000002BF9D14B68834204BF0E4B4B608CF33B
:100210001088704703681360F4E70B4B026800B561
:10022000D0F808E0C3F808E01A600B604B6883421E
:1002300004BF044B4B608CF310885DF804FB00BFD7
:10024000280000201C0000200400002008B5014602
:1002500072B6014807F0BCF9B800002008B50420C8
:10026000FFF7F4FF10B58168EFF3108E72B6174CEC
:1002700023689A688A1A002A0BDB9C461B689A68D6
:100280008A1A002AF9DA0360CCF800008EF310888D
:1002900010BD0F4A52688A1A002A11DB0D4A934298
:1002A00008BF1B68036091604FF0E0230A491060AB
:1002B00022604FF0806000225A619A614860E5E751
:1002C000A27A002AEAD10320FFF7C0FF280000200D
:1002D000001000E00400002000ED00E070B50E4DBD
:1002E000296891B90D4E047833680D4803EBC40CAE
:1002F00084454FEAC4020BD898183060184607F0BE
:100300006FF9084A2860147070BD0A20FFF79EFF3D
:100310001120FFF79BFF00BF88010020B0000020E4
:1003200000FE01208C01002008B50820FFF78EFF99
:1003300008B5054A937A23B1022B1CBF00239372A0
:1003400008BD0220FFF782FF28000020836A70B5F5
:10035000002B00F092809A68196881624A49866988
:10036000C4690D68002A14BF4FF0010C4FF0000C57
:1003700022D1240434611D600B6090F83030856A0E
:1003800003F01004C3F3001383F00103B2FA82F107
:10039000DBB2490999422BD0036A4BB381684CF018
:1003A000040C0B44002D3ED14CEA040C436180F850
:1003B00030C08360012070BD34611D600B60436AF2
:1003C0009342DAD9056A866A8168D5B10D44002E58
:1003D00047D190F83030456103F0100343F0070334
:1003E00080F8303011444B1B002B38DA436A13E09D
:1003F0005DBB4CEA0404002380F83040436118469A
:1004000070BD90F8304004F010047EBB44F003044B
:100410004661114480F830401C4C9B1AC0E90141F0
:10042000C0E90323C6E76D685B1B002B28DB90F84F
:100430003030456103F0100343EA0C031CF0020F57
:1004400080F83030CED12B46B3E76D6845614CF073
:10045000040C44EA0C0480F830402B46A9E7856080
:10046000A8E72B464FF0070C7568DDE77568456116
:1004700044F0070480F83040B4E71520FFF7E6FEAB
:100480001320FFF7E3FE00BF3C0000209D010108A0
:100490000FB42DE9F04FDFF8349285B099F80040A1
:1004A0000E9FE4B224B105B0BDE8F04F04B0704730
:1004B000874E012389F8003033780FAD0395DBB206
:1004C000DFF810A29AF800805FFA88F843450ED34F
:1004D0008AF80040B8783470602840F2D480002355
:1004E00089F8003005B0BDE8F04F04B07047B87827
:1004F00008EB00016029024640F2CA80C91A60294F
:10050000EDD88AF800403178C9B2734BA8EB0108E6
:1005100042461944184606F0D5FF034634705FFA88
:1005200088F28AF800206D4A42F2AC01D160B878B6
:1005300003EB08010246052874D93A8805388C1C5B
:100540007F2A04EB0006F8787F6804D9D40964F0A8
:100550007F048C70CC1C02F07F0204F8012B002871
:100560005DD007EB000B2246CDF800805C462846A4
:1005700001938B4617E0063B012B00F2A380054652
:10058000134655F8081BB21A8A4228BF0A4603F8D8
:10059000012B41681846904607F0A2F800EB0802CC
:1005A0002846A74236D09642C0F08C8017F8013B0F
:1005B000052B71D0DFD850F8043B03F120017F29CF
:1005C00022D903F58051B1F5804F18D303F50021EE
:1005D000B1F5001F0ED303F18061B1F1805F04D348
:1005E000190F61F07F0102F8011B590D61F07F01C5
:1005F00002F8011B990B61F07F0102F8011BD90978
:1006000061F07F0102F8011B03F07F03A74202F8AB
:10061000013BC8D1DDF80080019B14465946641A9D
:10062000E21CD0B203F808002D4B1B784B70D31E90
:1006300045D0CE180D464FF6FF7415F8017B674084
:1006400087EA0717FFB2240A4FEAC70C44EA0724D7
:100650008CEA17177C40B54227B2EED1240AFFB2CC
:10066000CC54114440447E2301F8027C01F8013C43
:10067000C0B21A4B8AF8000042F2AC02DA600023E2
:1006800089F800302EE7144BA0460246194652E77F
:10069000114B03EB08014EE750F8045B2B78511C1B
:1006A0002BB909E001F8013B15F8013F0BB18E426F
:1006B000F8D88B1A013BDBB213700A4671E7FF27AB
:1006C0003C46CDE70620FFF7C1FD00BFB400002087
:1006D000AD000020AC0000204C000020003801409C
:1006E00000000020000000002DE98048A54BDFF845
:1006F00098B25C68DFF8949295B0A54991F90830FA
:10070000002B00F0E4859F4B5A6872B691F90830CF
:10071000002B40F0038762B69A4B5B689B1A234418
:1007200004939C4B9A491B780122DBB20A72D3B125
:10073000994FDFF86882974A3878924D00231370FA
:10074000D8F80030FF240134E1B203EBC10107E027
:100750000A4652F8086B5E4500F02B8411460134BE
:10076000E4B28442F4D38E4B1B78DBB2CBB18A4F18
:10077000DFF828828A4A387800231370D8F80030CE
:10078000FF240134E1B203EBC10107E00A4652F84D
:10079000085B4D4500F02D8411460134E4B28442DB
:1007A000F4D3804B1B78DBB2D3B17B4FDFF8EC8105
:1007B0007C4A3878D8F800607B4C00231370FF2502
:1007C0000135EAB206EBC20207E0134653F8081BF4
:1007D000A14200F027841A460135EDB2A842F4D8B0
:1007E000724B1B78DBB2D3B16B4FDFF8B0816F4A2D
:1007F0003878D8F800606E4D00231370FF24013460
:10080000E2B206EBC20207E0134653F8081BA94206
:1008100000F042841A460134E4B2A042F4D8654B99
:100820001B78DBB2D3B15C4FDFF87081614A387856
:10083000614D00231370D8F80030FF240134E1B279
:1008400003EBC10107E00A4652F8086BAE4200F024
:10085000058411460134E4B2A042F4D8574B1B780A
:10086000DBB2DBB1DFF834814B4F544A3978D8F82A
:100870000000534D00231370FF24C2460134E2B23E
:1008800000EBC20207E0134653F8086BAE4200F0DB
:100890001D841A460134E4B2A142F4D8494B1B78B6
:1008A000DBB2D3B13C4FDFF8F480464A3D78464E88
:1008B000D8F8007000231370FF240134E2B207EB74
:1008C000C20207E0134653F8081BB14200F05781FB
:1008D0001A460134E4B2AC42F4D33C4B1B78DBB291
:1008E000DBB13A4ADFF8B4802B4F394D0023137047
:1008F000FF24C2463878DAF800300134E1B203EB65
:10090000C10107E00A4652F8086BAE4200F043818D
:1009100011460134E4B28442F4D32E4B1B78DBB28F
:10092000D3B12C4A1C4FDFF874802B4D0023137079
:10093000FF243878D8F800300134E1B203EBC1016C
:1009400007E00A4652F8086BAE4200F04B821146AF
:100950000134E4B28442F4D3204B1B78DBB2002B89
:100960004BD01E4A0C4FDFF834801D4D002313700E
:10097000FF243878D8F800300134E1B203EBC1012C
:1009800038E000BF001000E01129010871270108BC
:1009900028000020580100208C0100208801002040
:1009A0005C0100206001002021400108640100205A
:1009B0003D43010868010020C54201086C01002088
:1009C0005D51010870010020194F010874010020D9
:1009D000B951010878010020654F01087C01002011
:1009E000B14F01080A4652F8086BAE4200F032825D
:1009F00011460134E4B28442F4D37F4B1B78DBB25E
:100A0000FBB17E4FDFF8F8817B4ADFF8F8A10023C5
:100A1000CDE902871370FF231C46039B1878029BC5
:100A20001B680134E1B203EBC10107E00A4652F84A
:100A3000085B554500F00A8111460134E4B2844256
:100A4000F4D3714B1B78DBB2D3B16F4A6B4FDFF835
:100A5000B0816E4D00231370FF243878D8F8003031
:100A60000134E1B203EBC10107E00A4652F8086B1A
:100A7000AE4200F0658111460134E4B28442F4D301
:100A8000634B1B78DBB2DBB15C4FDFF87481604AEB
:100A90003978D8F80000DFF87CA100231370FF2418
:100AA0000134E2B200EBC20207E0134653F8085BE0
:100AB000554500F011821A460134E4B2A142F4D83F
:100AC000554B1B78DBB223B1534A0023137005F05A
:100AD000D1FB524A524B4AF6AA2111605A6872B6AB
:100AE00050490B689B1A002BB8BF0A6062B64E4B88
:100AF0001A78D2B21546002A00F0AD834B4B1C7811
:100B0000E10719D4042A40F2A68349490E78731FDD
:100B10003B2B00F281834B7823F00F01102907D182
:100B2000B242C0F09883434FB95D7E2900F06085E2
:100B30003E4B44F001041C703D487E2106F070FEDF
:100B400030B13B4BC01A394B04F0FE041C70451CFD
:100B5000A30706D4354A44F0020313703648FFF762
:100B600097FC202D07D1354931482A4606F08AFDE9
:100B7000002800F031852E464FF0FF3752E35068D1
:100B800000283FF4AAAE037DDB077FF596AE214631
:100B900005F0CEFA91E64E68002E3FF4BEAE727DAF
:100BA000D1077FF5AAAEF37D2F2B40F28084317DF3
:100BB000002900F0D084012900F0488506F11D08C5
:100BC0003023328B337721461D48CDF80080FFF764
:100BD0005FFCF37D328B303BDBB2002101322F2BE7
:100BE0003177F375328340F22284164B1972164A1C
:100BF000012313707EE600BF800100208C010020DD
:100C000088010020015D010884010020AD5D01081C
:100C1000900100209D500108940100200030004008
:100C2000001000E098010020600200209C010020DC
:100C3000A00100209F010020A8860108C0780108BB
:100C4000B886010828000020740100204D68002D9E
:100C50003FF4F7AE6A7B002A3FF4E3AE05F12003D0
:100C600093E80300D5E906C72B7B059307AA82E822
:100C70000300944A03F117064FF00008BE4672B60F
:100C8000DDE90707C3687B40C36051681C315368C6
:100C90005B1A002BFBDBC3687B40C360DCF80800F9
:100CA00000EA0E00003818BF012062B651681C31FE
:100CB00053685B1A002BFBDB013E40EA4808DED29A
:100CC000059B72B60022697B6A7362B6012228FA1C
:100CD00003F602FA03F3300203F1FF3348BF46F094
:100CE0007F4633EA080300F0C0834FF000438026BC
:100CF0006B61002318461946002261F3070260F376
:100D00000F2263F3174295F82C30E9180433DBB255
:100D100066F31F622F2BC1F82D2085F82C307FF64B
:100D20007CAE05F12D012A8D674800912146FFF721
:100D3000AFFB002385F82C302B8D01332B856CE61F
:100D40004E68002E3FF49CAE327F002A3FF488AEFE
:100D500007AB4FF0000AADF81CA083F802A0B06901
:100D60000322012102F016F986F81CA09DF81D301F
:100D70009DF81C209DF81EA0B06D1B0243EA0243A3
:100D800043EA0A0A190248BF4AF07F4A78B190F84C
:100D90003030DA070BD54B4A0021526842615B07BD
:100DA00080F8341000F10584514605F003FE96F8F2
:100DB0002230F2180433DBB22F2BC2F823A086F8BE
:100DC00022307FF64AAE06F12301F28B3E480091B5
:100DD0002146FFF75DFB002386F82230F38B0133B9
:100DE000F3833AE64E68002E3FF4B6AD327ED1076B
:100DF0007FF5A2ADF38A2F2B40F29B820DF11C0AE6
:100E0000742352468DF81C3006F11F0A302301214D
:100E10003069CDF800A003F0BDFD03F017FDF28AA4
:100E200029483023303AB377F2822146728BCDF8CD
:100E300000A0FFF72DFB738B01337383F38A00222D
:100E40002F2BB27740F29582204B1A72204A012351
:100E500013706EE54E68002E3FF4CFAD327ED207A0
:100E60007FF58AADF38A2F2B40F293820DF11C0A95
:100E7000722352468DF81C3006F11F0A30230121DF
:100E80003069CDF800A003F085FD03F0DFFCF28AA5
:100E90000D483023303AB377F2822146728BCDF879
:100EA00000A0FFF7F5FA738B01337383F38A0022F6
:100EB0002F2BB27740F28D82044B1A72054A012320
:100EC000137056E5001000E0B886010828000020E5
:100ED000780100207C0100205568002D3FF4F0AD22
:100EE0002B7DDE077FF5DCAD4FF0180328698DF808
:100EF000183007AB0293009306AA0223012103F0E6
:100F000049FD03F0A3FCBDF81C305BBA9BB272B67E
:100F10002A7D22F001022A7562B6190745D5AB7EFB
:100F20002869029A039303F11B062E444FF0000137
:100F300002238DF81C100096012103F02BFD03F015
:100F400085FCB31C0121029A2869009302238DF8C5
:100F50001C1003F01FFD03F079FCAB7E95F85C10CC
:100F60000433DBB24A07AB761CD5039A2A44D07E01
:100F7000F27842EA0062707842EA0042B07842EACF
:100F80000022B2F1805F80F062829E484668880746
:100F900000F19882286E824200F29D8201F0FD01EC
:100FA00085F85C102F2B00F2B6813978D8F8000054
:100FB00076E5496800293FF4D6AB91F82020560722
:100FC0007FF5C1AB686872B691F8202091F82130A6
:100FD00022F0040681F8206062B6009002F001025F
:100FE00089482146FFF754FA3878D8F80030FFF7DF
:100FF000AABB4A68002A3FF4D4AB92F82A5092F870
:101000002B108D427FF4BDAB72B692F82A1092F885
:101010002B308B4200F05E8162B63878D8F8003011
:10102000FFF7AFBB516800293FF4DAAB0B7FFF2B12
:101030007FF4C6AB72B68B7C002B00F05A814A7FDE
:101040000A7762B6CA7E7148133100912946FFF7CC
:101050001FFA3878D8F80060FFF7B2BB496800295A
:101060003FF4FCAB91F82020D6077FF5E7AB72B6D2
:1010700091F820308A6823F0010381F82030D1E90B
:10108000063162B6624800912146FFF701FA3878CE
:10109000D8F80030FFF7D2BB5368002B3FF4BFAB4A
:1010A0001A7F12077FF5ABAB72B61A7F22F00802E7
:1010B0001A7762B69A7F57482833D2082146FFF73D
:1010C000E7F93878D8F80060FFF799BB5668002E2A
:1010D0003FF4E4ABF37FDA077FF5D0AB72B6F37F72
:1010E00023F00103F377B368029362B6B37F032B57
:1010F00018D8DFE803F0704C1C020023ADF81C3058
:10110000B06907AB0222012101F044FFBDF81C3099
:10111000029900945ABA1B0A304603F0060392B2B1
:1011200004F0DAFF3978DAF80000FFF7A7BB0121F5
:1011300007910DF11C084346B069032201F02AFF14
:10114000079A434692FA82F80722ADF81C204FEA2C
:10115000182CB069CDF80CC00121022201F01AFF51
:10116000DDF80CC09DF81D30029900940CF0010CC4
:10117000C8F30F2823F003033046424643EA0C032A
:1011800004F0AAFF3978DAF80000FFF777BB0C23E8
:1011900007930DF11C084346B0690422012101F0B8
:1011A000F9FE079A0F21ADF81C104346B06992FA78
:1011B00082F80121022201F0EDFE02999DF81D3016
:1011C0000094304628F07F4204F086FF3978DAF840
:1011D0000000FFF753BB00230793B06907AB04225D
:1011E000012101F0D7FE079A029900943046C2F31C
:1011F000026312BA04F070FF3978DAF80000FFF7E2
:101200003DBB00BF001000E018870108F886010808
:10121000E0860108F08601087E2E7FF489AC012665
:101220004FF0FF370020B04B1C78E4B2A51B40F014
:101230008381EFF3108272B6AB4B1B78DBB29C421A
:1012400040F08681A84B1D7082F31088012F02D1D7
:10125000A648FFF71DF9A64BA64DA74E5C68049B58
:1012600029683268A4EB030A01315244BAF5803F81
:101270002960326043D2A14F0AFB0AFA38680AF1AA
:10128000FF0300EB1323834238BF4FF0FF33DFF837
:1012900070829C48D8F800A03B60A4EB0A0C8445FF
:1012A0007FF62BAA9848FFF7F3F8A24503D9974A8F
:1012B0001368013313609649C8F8004000233B606F
:1012C00033602B6091F90830002B7FF41CAA049442
:1012D000FFF727BA013382F82A30138B526962B6BE
:1012E0008C482146FFF7D4F83878D8F80030FFF75B
:1012F00048BA62B63878D8F80060FFF761BABAF534
:10130000801F7E4F80F0AE8038680AF1FF031B0A11
:101310000AFB0303B7E705F11B01EA8A7E48009147
:101320002146FFF7B5F80023AB76EB8A0133EB8259
:101330003BE672230DF11C0A30698DF8183006AABD
:1013400002230121CDF800A003F024FB03F07EFA74
:101350009DF81C209DF81D30B08A120202F4F8524C
:1013600043EA0201884238BFB1822F29F1823FF758
:1013700047AD337E23F00103337672B65C4B5A6877
:10138000F3681344B3603046FEF76CFF62B6FFF7B4
:10139000D0BA70230DF11C0A30698DF8183006AAF6
:1013A00002230121CDF800A003F0F4FA03F04EFA75
:1013B0009DF81C209DF81D30B08A120202F4F852EC
:1013C00043EA0201884238BFB1822F29F1823FF7F8
:1013D0004FAD337E23F00103337672B6444B5A6827
:1013E000F3681344B3603046FEF73CFF62B6FFF784
:1013F000C0BAAF23ADF81C30306907AB022201211F
:1014000001F0C8FD9DF81D305A0602D5728B0132DD
:101410007283B27D012A00F0D38003F03F0303EB17
:1014200043035B00DBB22F2BF3753FF6C0AB737D3C
:1014300023F00103737572B62D4B5A68F368134499
:10144000B3603046FEF70EFF62B6FFF753BA4FF0B7
:10145000000385F85C3095F85E10A86D01F0E6FC9D
:10146000AB7E9FE54FF0FF3311E78A0703D54FF0BE
:10147000804340263CE46A69002A40F03681286EA9
:1014800070B190F83010CB070AD5194B4F075B6845
:10149000436180F8342000F19980314605F08AFAE2
:1014A000F1B2C6F30720C6F30743360E24E4337DBA
:1014B00000228DF81820002B9BD0012B00F0DD803E
:1014C000F275B4E7686E301A0028FFF66BAD286E2F
:1014D00082427FF663AD95F85D10A86D6E6601F0EF
:1014E000A5FCAB7E00215BE560020020A886010818
:1014F000001000E074020020700200206C02002046
:1015000068020020FF53EA2A58870108640200207D
:101510002800002010870108B88601087A494FF694
:10152000FF730B8162B630BF72B6774B93F9083008
:10153000002BF7D1FFF7EFB8744B81192A1A194421
:10154000184405F0BFFF704A00231372284670E666
:1015500082F3108867E607AB3122184606F040F8A0
:10156000B27D012A14BFA822E8228DF81C20034670
:1015700031223069012106F11D0801F00BFD0DF14A
:101580001D03424620469968D3F800C05C68D3F832
:101590000CE0916010330DF14D018B42C2F80CE06C
:1015A000C2F800C0546002F11002ECD10446FFF70B
:1015B00007BBC369D21A8A42BFF6F6ABFFF7F7BB87
:1015C000980640F18C800023F37530E7C2699B1ABE
:1015D000002BBFF662AF63E74FF000614B689A1EC5
:1015E000A3F1090022F00702904260D005F00CFC44
:1015F000791EA6F1030E013711F806C017F80E1078
:101600004CEA012CBE440FFA8CFC4FF6FF7117F820
:10161000010B484080EA0010C0B2090A4FEAC00836
:1016200041EA002188EA10104140BE4508B2EED1DF
:1016300084457FF47DAA364A24F002041470354AAA
:101640001178994228D03546FFF788BA28238DF8BB
:101650001C30B37D012B04BFA8238DF81C3006F18C
:101660001D083069CDF80080302307AA012103F05E
:1016700091F903F0EBF8FFF7A3BA2F228DF81C20A5
:1016800006AA19463069009207AA03F083F903F00D
:10169000DDF89DF81830B7E6013303F00F0343F08F
:1016A000100330461370012705F078FEBAE553F8B1
:1016B000095C194C194A53F8053C934208BFA542EE
:1016C00094D10B68DA1D22F0070293428ED172B6D4
:1016D0000BA1D1E90001C3E9000105F095FB03F07E
:1016E0001F0303EB43035B009DE6D1B2C2F3072067
:1016F000C2F30743160EFFF7FFBA00BFAFF3008037
:101700009B58A16CFAE3845928000020A001002016
:101710009C0100200000002043616E426F6F742125
:10172000A449A54DA54A21F003012DE988480024CC
:10173000296045F2555040F6FF711060A04B54608F
:1017400091604CF6CC411160D3F8FC109D4A41F0F9
:101750008071C3F8FC10116841F001011160546000
:10176000EFF3108172B64FF0E0222025072083F8B6
:1017700023501061546194614FF080625A6081F38C
:101780001088914805F016FA8F49904B40F23912B3
:101790008A6042F22C02CA6083F825435D60012210
:1017A00072210A2005F062FB22467221092005F011
:1017B0005DFB8748FEF76CFE72B6864805F002FFB7
:1017C00010B962B6FEF790FF72B6834B7D499A7AE4
:1017D000D1F804A0002A00F01882804B8049986854
:1017E0007D4A88607F48116053600B6018604FF03D
:1017F000E021734B0224947200274FF080624F6106
:101800008F615A60784B794E1F70FEF781FC784AE1
:10181000784B15781C684FF0FF0C4FF0110E0CF14F
:101820000101C9B204EBC101634605E00A4652F862
:10183000080BB04215D011460133DBB2AB42F5D3F1
:101840003A468AB192F83030D2E9060113F010031B
:1018500015BF734609040161016182F83030976257
:10186000DDE74A689C46ECE7634E4FF0FF081746F9
:1018700008F10101C9B204EBC101434605E00A4683
:1018800052F8080BB0420CD011460133DBB29D4236
:10189000F5D8384640B1002141633C3000F0B0FC3F
:1018A000E6E748689846F5E7DFF850814FF0FF0912
:1018B000064609F10101C9B204EBC1014B4605E03E
:1018C0000A4652F8080B40451CD011460133DBB2E2
:1018D0009D42F5D83746C7B13846FEF785FC07F17B
:1018E0000C00FEF781FCFB6933B100211A461B682E
:1018F000C2E90011002BF9D10023FB6187F82230E7
:101900003B84D6E74F689946E5E7DFF8E4903C4E24
:101910004FF0FF08DFF8DCE0BC46DEF8005099F835
:10192000004008F10101C9B205EBC101434605E0E1
:101930000A4652F8080BB0421FD011460133DBB201
:10194000A342F5D362464AB3136AEFF3108172B62D
:101950001C68E00614D481F3108892F82B30002B19
:10196000DBD00133D16882F82A3053690B445361CC
:1019700093601046FEF776FCCCE74A689846E2E7AB
:101980001C6824F002041C601C6824F010041C6015
:101990009C6824F4A0049C60DB6CDCE7194E4FF0DB
:1019A000FF0C96460CF10101C9B205EBC10163467B
:1019B00030E000BF7F020020B00000200030004077
:1019C00000ED00E0001000E00038014000E100E020
:1019D00078870108B8000020280000201C000020A3
:1019E0000400002010000020B40000207D1F01082A
:1019F0008C01002088010020C91E0108112901085E
:101A000071270108851E01080A4652F8080BB042EA
:101A100010D011460133DBB29C42F5D8774667B14E
:101A20003B7CDA07BED5D7E90212180748BF12047B
:101A30000A61B7E74F689C46F1E7754E4FF0FF0823
:101A400008F10101C9B205EBC101424605E00B46B0
:101A500053F8080BB0420DD019460132D2B294426D
:101A6000F5D83B464BB11A7918680021053301F0CF
:101A700091FAE5E74B689046F4E7664EDFF898E1A7
:101A80004FF0FF0C1F460CF10101C9B205EBC1017B
:101A9000634605E00A4652F8080BB0420DD01146E5
:101AA0000133DBB29C42F5D83A464AB1D368918AF9
:101AB0001960C2F804E09761E5E74A689C46F4E7DC
:101AC000564E4FF0FF08174608F10101C9B205EB69
:101AD000C101434605E00A4652F8080BB0421AD04D
:101AE00011460133DBB29C42F5D8B946B9F1000F7B
:101AF00019D099F81C309B0611D5D9E903010122B0
:101B000005F0D2FA99F81C3003F0300343F00103DA
:101B100089F81C30D8E7D1F804909846E6E7D9E96F
:101B200003321A61EEE73E4EFF27791CC9B205EB7E
:101B3000C1013B4605E00A4652F8080BB0420FD0FF
:101B400011460133DBB29C42F5D84A465AB11369BB
:101B5000D16818049369526908611B041361E4E7B2
:101B60004A681F46F2E72F49FF239146581CC0B22E
:101B700005EBC00005E0024652F8086B8E421DD00E
:101B800010460133DBB29C42F5D8EFF30383C3F375
:101B900008034BB14FF080736FF0060208B402A146
:101BA00002B41FB5104700BF1F4B01229A7262B6E4
:101BB0001E48DA7A5146FEF76BFC02E64268002ABC
:101BC000E3D01069D2F80CB09769166A4FEA004E5C
:101BD000906A4FEA004C106B4FEA0048906BCBF8CC
:101BE00010E0D2F814E03F04CEF81070D769360444
:101BF0003E61566AC6F810C0D66AC6F81080566BA9
:101C00000004306182F80890B0E7D872E5E500BFC3
:101C1000D12B010859400108013801083D43010852
:101C200045440108D94401082800002068870108BC
:101C300000B50A4B0A4A9B7A11880A4A0A48126878
:101C400083B0003B009118BF0123003918BF012168
:101C5000FEF71EFC03B05DF804FB00BF2800002067
:101C6000480000203800002040870108024B03484C
:101C70005968FEF70DBC00BF001000E0488701085E
:101C8000064A0749074B526809681B680648914293
:101C900094BF1946591CFEF7FBBB00BF001000E0C3
:101CA000680200206402002050870108016840F6A5
:101CB000695399420DD8027940F66A5350189842F8
:101CC00002D9C1F16A02D2B2054B06480B44FEF7B5
:101CD000DFBB034B034800220B44FEF7D9BB00BF18
:101CE0003C79010860870108D0E90031EFF31082E8
:101CF00072B6DBB2012B0ED0022B05D1096882F33C
:101D000010880848FEF7C4BB0978C9B282F310886E
:101D10000448FEF7BDBB098889B282F310880148E8
:101D2000FEF7B6BB30870108034602485A681978A7
:101D3000FEF7AEBB3887010838B50A4D0A4B2C6850
:101D4000211899420BD8C31C23F0030302462344F5
:101D5000002120462B6005F043FC204638BD1120B1
:101D6000FEF774FAB000002000FE012038B50D4BDC
:101D700093F800C08445034610D910460A4A1268F9
:101D800052F8334002EBC30544B9084C24882CB9FF
:101D900042F83310FFF7D0FF686038BD0B20FEF724
:101DA00055FA00BF8C010020880100204800002067
:101DB00008B50F20FEF74AFA08B50E20FEF746FADE
:101DC00070B5164E33882BBB154B16491A78032A6B
:101DD0009CBF04221A70144B054618680024034661
:101DE0009C4613448B420FD80134B4F5806FF7D171
:101DF000181AFFF7A1FF0D4B34801860FEF788F921
:101E00000B4B2A681A6070BD6346002CF0D110207D
:101E1000FEF71CFA0D20FEF719FA00BF480000205B
:101E20004000002000FE0120B000002044000020FF
:101E30003800002008B50C20FEF708FA90F82020A2
:101E40000849034642F00402002083F8202008726B
:101E50009A68D3F818C004490120624408709A6057
:101E6000704700BF280000205801002000B503463D
:101E700083B0D3E90012684605F044F903B05DF879
:101E800004FB00BFF0B5054683B00E49007814226C
:101E9000FFF76CFFAF686968B7FA87F2044652092A
:101EA000684605F02FF9DDE9000104F1080383E835
:101EB0000300002F237C0CBF01220922134323744B
:101EC00003B0F0BD851E0108F0B50546274900782E
:101ED00083B04822FFF74AFFEF68002F04462EDD4B
:101EE000042280F844206968684605F00BF9DDE9B2
:101EF000000104F1200383E803000022A96868467A
:101F000005F000F9DDE9000104F1280383E803008E
:101F1000174B4FF04042198822632A69E26100237F
:101F2000C4E90D3301BB134B19780F299CBF102155
:101F30001970002F09DB104B636003B0F0BD0ED1A8
:101F400090F8442002F00402CDE7122AF3D894F866
:101F5000443043F0200384F8443003B0F0BD102334
:101F600080F844300022BEE7FFF726FFC91E0108B3
:101F70004800002040000020ED2C010830B5D0E9D9
:101F800001120446003A83B018BF0122684605F0EA
:101F9000B9F8154920783422FFF7E8FE0346DDE959
:101FA000000103F1180282E803001049E2680D887D
:101FB0000020111AA26818BF0121121A18BF0122AD
:101FC00042EA011283F8302022691A62C3E90A004A
:101FD0003DB9074B1A780B2A9CBF0C221A7003B02C
:101FE00030BDFFF7E9FE00BF7D1F0108480000205B
:101FF0004000002010B50D4B02781B78934210D999
:102000000B4B0C491B6853F832408C4203EBC20364
:1020100007D15B6872B69A6A2AB942685A6262B698
:1020200010BDFFF707FF1420FEF710F98C01002008
:10203000880100207D1F010810B5104B02781B7825
:10204000934218D90E4B0F491B6853F832408C420B
:1020500003EBC2020FD143685168003B18BF012354
:102060005B0072B691F8442022F00202134381F81B
:10207000443062B610BDFFF7DDFE00BF8C010020CA
:1020800088010020C91E010810B5114B02781B7889
:10209000934217D90F4B10491B6853F832408C42BA
:1020A00003EBC2030ED15B68416872B65A695AB934
:1020B00093F84420996022F00802996183F8442043
:1020C00062B610BDFFF7B6FE1620FEF7BFF800BFE0
:1020D0008C01002088010020C91E010810B5184B92
:1020E000027893F800C0624524D2164B1B6853F85F
:1020F000321003EBC20E144A91421BD10179DEF873
:102100000420614516D253F831401048844203EB55
:10211000C1030FD15B6802F13C00EFF3108172B68E
:10212000146C4CB90A4C1464DC69D463D86181F333
:10213000108810BDFFF77EFE1920FEF787F800BF5C
:102140008C01002088010020C91E01081129010806
:102150000122010838B5254B02781B7893423FD9FC
:10216000234B24491B68054653F83200884203EB91
:10217000C20335D15C682046FEF736F8A36A8BBBF4
:102180002A7994F83030D4E90650002A08BF0004B8
:10219000286103F01000C3F30013B2FA82F283F057
:1021A00001034FEA5212DBB214BF012100219A420F
:1021B00001D0236A1BB9014384F8301038BD0E4AA0
:1021C00052680843134440F004000C4A84F830007D
:1021D000C4E9012363612046BDE83840FEF742B8F8
:1021E000FFF728FE1220FEF731F800BF8C01002017
:1021F000880100207D1F0108001000E04D03010848
:10220000F8B504463C38FDF7EFFF227A54F8101C6D
:1022100054F80C3C54F8287C54F8146C002502F057
:10222000340012F0100C44F8345C44F8245C40F0A4
:1022300008004FEA01411BD0DB1B002BC8BF5B42EB
:1022400044F8285C44F80C3C2072316154F8083C96
:102250006BB11148016800E013461A6844F8082C75
:102260001960036054F8082C1946002AF4D1F8BD0F
:10227000A3EB5703002BC8BF5B4244F80C3C54F857
:10228000183C2072520754F81C0C44F828CC58BF54
:102290001B0431610361D9E73C000020F8B5224EF0
:1022A0000278337893423CD9204F21493B68054658
:1022B00053F83200884203EBC20332D15C682046F7
:1022C000FDF792FF6B68A360AB68A3612B7B84F87A
:1022D000253013B32969616184F826306B6932783F
:1022E0001449002B0CBF0223032384F824302B7ED7
:1022F00061609A4215D93A6802EBC30152F8332063
:102300000D4B9A420DD1EB694A6884F8273022625E
:102310002046BDE8F840FDF7A5BF84F824302362CD
:10232000F8BDFFF787FD00BF8C0100208801002069
:10233000A1280108E12E01081129010838B51D4B1B
:1023400002781B78934233D91B4B1C491B68054606
:1023500053F83200884203EBC20329D15C6872B69D
:102360002046FDF741FF04F10C00FDF73DFFE36956
:1023700033B100211A461B68C2E90011002BF9D1C4
:102380000022012384F8222023846B68A360AB68B9
:10239000C4E9063223B9EB6884F8223062B638BD4E
:1023A0002046FDF75FFFEB6884F8223062B638BD47
:1023B000FFF740FD8C010020880100201129010851
:1023C00070B5124B02781B7893421DD9104B1149FE
:1023D0001B68044653F83200884203EBC20313D152
:1023E0005D6872B695F82030DB0701D462B670BD27
:1023F00005F10C063046FDF7F7FE63686B61304669
:10240000FDF730FF62B670BDFFF714FD8C010020B0
:10241000880100201129010838B5234B02781B7868
:1024200093423FD9214B22491B68054653F832009D
:10243000884203EBC20335D15C682046FDF7D4FE29
:10244000236AEFF3108272B61968C9061CD482F3AE
:1024500010886B686361A360AB6823612B7B84F891
:102460002B305A1C84F82A202A69E260D5E905013C
:10247000EA6984F829206083A18303B938BD204626
:10248000BDE83840FDF7EEBE196821F00201196081
:10249000196821F010011960996821F4A001996070
:1024A000DB6CD4E7FFF7C6FC8C010020880100201C
:1024B0007127010838B5284B02781B78934246D91A
:1024C000264B27491B6853F832408C4203EBC2036A
:1024D0003DD15C68EFF3108172B6224A1368002B7D
:1024E00037D01D68156081F3108845685D6082688B
:1024F0009A6072B6A26A0021196022B1E26A136082
:10250000E36262B638BD94F830205107C4E90A335B
:1025100016D442F0040384F83030930765610AD47E
:102520002046FDF761FE104B2046C4E90135FDF75A
:1025300099FE62B638BDA3685B1B002BF9DBEFE7A1
:1025400063695B1B002BE4DA1320FDF77FFEFFF7C6
:1025500071FCFFF72DFC00BF8C01002088010020DA
:102560007D1F01083C0000204D030108D0E908311F
:102570001A6810B5D4063AD5920702D55A6B8A422A
:1025800005D0836803F534638360012010BD1A68A9
:1025900022F002021A601A6822F010021A609A6889
:1025A00022F4A0029A6090F82A2090F82B10DB6C9D
:1025B0008A429BB23CD301229142038380F82A20B5
:1025C00041D8428B9A425ED8828B9A425BD3364B7B
:1025D000002280F8282000221A72344A4369C46815
:1025E00001212344117043618360012010BDC9B2F1
:1025F000122941D009292CD81A6901EB41044FF066
:10260000070C0CFA04FC22EA0C0C0422A24042EA59
:102610000C021A615A6B22F01F020A435A639A682D
:1026200042F001029A609A6842F4A0029A60A8E718
:10263000B0F818C00132D2B263449BB29142038316
:1026400080F82A20BDD98368026913448360012081
:1026500010BDA1F10A02DC6802EB42024FF0070C48
:102660000CFA02FC24EA0C0E4FF0040C0CFA02F2F5
:1026700042EA0E02DA60CDE7DA6D22F0070242F09C
:102680000402DA65C6E790F8283090F82920013373
:10269000DBB29A4280F82830034B9CD89A7A002A01
:1026A00096D11A20FDF7D2FD280000205C01002001
:1026B00008B5134B01781B788B421ED9114B124A77
:1026C0001B6853F83100904203EBC10315D15B68DE
:1026D00072B693F844001A6B5B69C0064CBFD21AFD
:1026E000A2EB530262B6002AB8BF5242BDE80840CE
:1026F000064802F14042FDF7CBBEFFF79BFB00BF4F
:102700008C01002088010020C91E010828870108CB
:1027100010B5134B01781B788B4282B01DD9114B39
:10272000114A1B6853F83100904203EBC10314D1E6
:10273000586872B690F82420C36962B6D0E90340A5
:10274000A4680440003C18BF012408480094C2F368
:102750004002FDF79DFE02B010BDFFF76BFB00BF0E
:102760008C01002088010020A12801082087010891
:1027700070B5404A05460023406802E00133802BD3
:1027800073D012F8011B8842F8D15A11012A68D07F
:10279000022A68D0032A6BD1374E384A03F01F044F
:1027A000D36A6FF3080343F00703D362536943F41A
:1027B00070435361736823F4702323F48073736050
:1027C000B2682F4B134043F46023B360F36A23F4E1
:1027D0007003F3620123B360B36D9906FCD5B36D4A
:1027E00023F08003B365274BD3F8FC20D2010AD431
:1027F000D3F8FC2042F08072C3F8FC20224A136810
:1028000043F00103136020494A6802F5B4624B6843
:102810009B1A002BFBDB0523B360B26812F00402A5
:10282000FBD1FE2819D1194A936843F40003936041
:10283000A2F5FC32D2F8203843F48063C2F8203885
:102840002C2213492878FFF791FA0123114A80F8C6
:102850002A30C0E90864426070BD032104F006FB21
:10286000EEE70D4E99E70D4E97E73920FDF7EEFCA8
:10287000064E92E7C8870108001C02400010024083
:10288000FDF7F1FF00ED00E0001000E0000802405D
:10289000712701086D250108000C02400018024054
:1028A000F8B52822044618490078FFF75FFAD4E902
:1028B00001326F2B26D815490646180951F82050C9
:1028C00005B303F00F0301279F400439002351F89B
:1028D000044FA5420ED00133072BF8D10020EFF3AF
:1028E000108472B6002104F0C1FA84F31088C6E99E
:1028F0000357F8BD97FAA7F11020B1FA81F113FB45
:102900000010ECE704F0AEFAA1280108488801089D
:1029100038B50F4B1A7803789A4216D90D4C2268B5
:1029200052F83310DD0081B90B49098869B90B49A8
:1029300042F833102420FFF7FFF923680849094AB9
:102940002B4458604160026138BD0B20FDF77EFCCE
:102950008C01002088010020480000201129010876
:102960003D1E01081D2F010838B50D4B1A7803785C
:102970009A4212D90B4C226852F83310DD0061B92B
:102980000949098849B9094942F833101420FFF769
:10299000D3F923682B44586038BD0B20FDF756FC53
:1029A0008C0100208801002048000020851E0108BD
:1029B00038B50D4B1A7803789A4212D90B4C22681D
:1029C00052F83310DD0061B90949098849B909494C
:1029D00042F833100C20FFF7AFF923682B445860FE
:1029E00038BD0B20FDF732FC8C010020880100204F
:1029F00048000020B12901082DE9F8432F4B027847
:102A00001B78934251D92E4B2E491B6853F8324004
:102A10008C4203EBC20348D1047A5D68032C49D889
:102A20002B7C13F0060F45D14368C768032B3ED8B3
:102A3000254A03EB430302EB830952F82360304637
:102A400004F0B4F98046A8B12048002319460133A8
:102A500020FA03F2974226D2082BF7D138212B7C9B
:102A60000C4343F0040344F451742B74C5E900642F
:102A7000BDE8F883304604F09DF899F8071099F8FE
:102A80000400012204F0F2F999F8081099F8050001
:102A9000424604F0EBF999F8091099F8060042460D
:102AA00004F0E4F9D0E7C900D9E7FFF7C3F93A2009
:102AB000FDF7CCFB1B20FDF7C9FB00BF8C010020FC
:102AC00088010020851E01089887010800A24A0499
:102AD0002DE9F0473A4A03781278077B9A4269D980
:102AE000384A126802EBC30152F83320364B9A423F
:102AF00060D1D0F804804D68B8F1020F5CD8DFF8DF
:102B0000CC9059F83840204604F050F9064640B1C0
:102B10002B7A2C6043F002037F002B722F71BDE8EB
:102B2000F08709EBC809204604F044F899F804A09E
:102B300099F80580012240F20111504604F096F9FF
:102B4000012240F20111404604F090F94FF0FF32AB
:102B500040F20111404604F089F94FF0FF3240F293
:102B60000111504604F082F9012240F20111504651
:102B700004F07CF9012240F20111404604F076F99C
:102B8000504601224FF4A17104F070F90122404631
:102B90004FF4A17104F06AF94FF400432360482315
:102BA00026604FF4B47263604923E261236201231B
:102BB0002360ADE7FFF73EF93C20FDF747FB00BF80
:102BC0008C01002088010020B129010880870108BC
:102BD00070B5114B02791B7893421AD90F4B1049EB
:102BE0001B68044653F83200884203EBC20310D13D
:102BF000257A0C4920785E6805F10802FFF7B6F8DF
:102C00000571E16806602A460530BDE8704004F0B1
:102C100067BDFFF70FF900BF8C010020880100207D
:102C2000851E0108D12B01080346406B08B9586185
:102C3000704770B502682A4CB0F908105A634268B0
:102C400090F80CC026680660458920601982186BD0
:102C500011441CF00104D96093F8441018BF40429D
:102C600028448E061863986805D5104498605D6105
:102C700034BB012070BD9E6911F0100132445E69C1
:102C80009A6108BF6D009A605D61002EF0D0121A43
:102C90001DD4002CEDD021B112494A68121A002A25
:102CA000FBDBD3E90A14CA680E486240CA60426876
:102CB000D86999680244891A0029B8BF9A60D8E790
:102CC000D3E90A21D3684B40D360012070BD064D83
:102CD000AA42A8BF9860DCDA1820FDF7B7FA00BF57
:102CE0003C000020001000E080CDFDFF30B4D0E9B2
:102CF0000814CA686240144CCA6041696268C469B9
:102D0000CD072244034601F1FF3408D490F8441063
:102D1000C90605D45C61012030BC9A6070477CB163
:102D2000DD689969B3F9100029442844D860881AED
:102D300000289961EEDB5C61012030BC996070472E
:102D400030BC8260FFF770BF001000E038B5334B35
:102D500002781B78934259D9314B32491B6853F89A
:102D600032408C4203EBC20350D15C68EFF3108217
:102D700072B62D4D2B68002B4DD01968296082F357
:102D8000108842685A6002895A81002A40D0C1687E
:102D9000198100221A7372B694F84420C2F34000DD
:102DA00002F00101884205D0197B41F0010182F057
:102DB000010219736169B9B912F0080104D02A68D7
:102DC0001A602B6062B638BD606B84F844201960CD
:102DD000A8B1A26B1360A3632046FFF725FF20462E
:102DE000FDF740FA62B638BD616B84F844200020DC
:102DF000186039B1A26B1360A36362B638BDC4E931
:102E00000D33E9E7C4E90D3362B638BDFFF712F8B8
:102E10001720FDF71BFAFEF7CBFF00BF8C01002047
:102E200088010020C91E01083C000020F8B5EFF31E
:102E3000108772B690F82030DA071CD5044623F0CC
:102E40000503C06984F8211043F004030E4684F89A
:102E5000203050B10025D0E900233146E261C0E9BD
:102E600000559847E0690028F5D1044B00221A72FA
:102E7000034B01221A7087F31088F8BD2800002048
:102E800058010020D0E90332996890F824301142AB
:102E90001CBFDB4303F00103DB070ED410B590F831
:102EA0002630013B13F0FF0411D08368826980F85B
:102EB000264013448360012010BDC269074990F881
:102EC000253080F82630C0E901120120704790F8C3
:102ED0002710006AFFF7AAFF204610BDE12E010867
:102EE00010B4D0E9022301699C6890F82430D0F82E
:102EF00014C00C421CBFDB4303F00103DB07624438
:102F000003D5826010BC01207047034B10BCC26126
:102F10004360FFF7B7BF00BF852E010808B5034621
:102F20000C38997DFFF782FF002008BD30B5154BA6
:102F300005781B78AB4283B022D9134B134A1B6828
:102F400053F83510914203EBC50319D15C6872B692
:102F500001792046FFF76AFF2046FDF745F904F1A5
:102F60000C00FDF741F9002294F8213084F820206C
:102F700062B6074800922946FDF78AFA03B030BDD1
:102F8000FEF758FF8C01002088010020112901085C
:102F9000188701082DE9F04F90F810B01BF0060FCC
:102FA00085B036D01BF0020F1C46064603680F465C
:102FB00032D119684068814204D021F04001196083
:102FC000196818601BF00101019140F00E81224444
:102FD00094420DD2013C511E14F8012F1A739A68C5
:102FE000D207FCD51A7BD2B207B12270A142F3D12D
:102FF0009A6802F08202022AFAD1019B4BB10BF0CF
:103000000809D6E902E1B9F1000F40F0D280CEF80C
:10301000101005B0BDE8F08F197FDFF8E8C198699E
:10302000D3E904A8890756BF4FEA0841CAF81080BF
:10303000CAF81010DCF804500544DCF80410491BF1
:103040000029FADB1BF00101019140F0B680DCF8A9
:103050000410450801EB500CA0EB5000002AD8D01A
:10306000013ACDE902B654FA82FE5146654ABA46A3
:10307000013C0F46197F14F8016F11F001014FF068
:1030800008094CD00021D2F804B0ABEB0C0BBBF11B
:10309000000FF8DBEFF3108B72B6D7F80CC088EA9C
:1030A0000C0CC7F80CC08BF31088D3E902C716F0DC
:1030B000800F08BF3F04CCF81070576876004900B5
:1030C000F6B25FFA81FB07445168C91B0029FBDB9C
:1030D000D3E90478EFF3108C72B6F96881EA08013D
:1030E000F9608CF3108819688F6859680F40002FB9
:1030F0000CBF59464BF001015768B9F1010907EBC4
:10310000050C03D0D3E90478BDE7009CBAF1000FA9
:1031100000D02170744549D0D3E90478AAE700941F
:10312000D2F804B0ABEB0C0BBBF1000FF8DBD3E92A
:1031300002BC340658BF4FEA0C4CCBF810C0EFF37A
:10314000108B72B6D7F80CC08CEA080CC7F80CC00C
:103150008BF310885768009C76004900F6B2C9B21C
:1031600007EB000C5768A7EB0C07002FFADB1F6872
:103170000094BF685C682740002F18BF41F0010130
:10318000D3E904C7EFF3108B72B6DCF80C8087EA42
:103190000807CCF80C708BF310885768B9F1010957
:1031A00007EB050CB1D0D3E90478B9E7DDE902B645
:1031B00023E70904CEF810102BE71BF0080FD6E91F
:1031C00002E10BF0080919D10D04CEF810500D4D95
:1031D0006D6805EB500C4508A0EB5000002A7FF409
:1031E0003FAFB9F1000FE4D111E71BF0080FD6E9AA
:1031F00002E100D10904CEF81010E8E6CEF8101074
:10320000E5E700BF001000E070B5104B04781B78B4
:10321000A34218D90E4B0F4A196851F83450954201
:1032200001EBC4010FD186680579486833462A4608
:103230000121FFF7AFFE33462A4621460648BDE886
:103240007040FDF725B9FEF7F5FD00BF8C010020A9
:1032500088010020851E01080887010870B50C4B05
:1032600002781B78934210D90A4B0B4C196851F81D
:103270003250A54201EBC20107D183680279486848
:10328000BDE870400021FFF785BEFEF7D3FD00BF0B
:103290008C01002088010020851E010870B4867F03
:1032A00084467EB100EBC600634600260122D3E9C6
:1032B00008148D680833254218BF16435100834215
:1032C000CAB2F4D19CF81030B34209D09CF8111066
:1032D00081EA0602D243D2B283EA0600024215D145
:1032E0009CF91C209CF81C308CF81160002A05DB2E
:1032F000013BDBB2FF2B24D08CF81C30DCE902321E
:103300001344012070BCCCF80830704723EA020354
:103310009CF8122031400B43072A8CF81030DFD87C
:10332000511C62448CF812100949D37400230B72AB
:10333000084A8CF811600121FF2311708CF81C30B1
:10334000DCE7034A00211172024A01211170D3E720
:103350002800002060010020D0E9032170B5D36867
:10336000446A4B40D360427F90F81CE0C57F013235
:10337000D2B28EF0010EAA4280F81CE0264605D398
:1033800017E05FFA8CF2AA42264412D200EBD20375
:1033900002F0070193F828300B418EEA0303DB07A4
:1033A00002F1010CEDD5836842773344836001203C
:1033B00070BD8368024A426033448360012070BD5F
:1033C000653B0108D0E9032110B4D368154C4B408C
:1033D000D360437F017F646882680133DBB281F090
:1033E0000101012B01774377016A17D0042B04D820
:1033F0001144816010BC01207047436A1344E41AF1
:10340000A31C48BF631D01EBA30114444162064B9A
:1034100043602144816010BC01207047A41A4462BB
:10342000E6E700BF001000E059330108D0E90921A8
:10343000926803460A4080699968003A18BF0122E1
:1034400000F0010C62455A6918BF0130A2EB01027D
:1034500018BFC3E90601002A04DBDA680A44012028
:103460009A60704710B41A6993F82000094C0A4416
:1034700040F001005A61002283F820002272064ABF
:10348000996801201070DA6810BC0A4401209A6023
:10349000704700BF280000206801002030B500F10F
:1034A0000C0203468C4692E8030085B004AA14334C
:1034B00002E9030093E803001F4ACDE90001082157
:1034C0001CF0800F29D150681C3053681B1A002B48
:1034D000FBDBDDE90205EFF3108472B6C3686B40D5
:1034E000C36084F3108850681C3053681B1A002B8B
:1034F000FBDB4FEA4C0CDDE902045FFA8CFCEFF3D6
:10350000108E72B6C3686340C3608EF310880139B1
:1035100011F0FF01D4D105B030BDDDE90003EFF3B8
:10352000108472B6C5686B40C36084F310886FEA7C
:103530000C0C5FFA8CFCC6E7001000E02DE9F84F98
:1035400017460D4617F801BBD0F800A04668194C85
:103550000BF0F00191468046FFF7A0FF6368A3EBF4
:103560000A039E42FAD84FEA0B1101F0F0014046DF
:10357000FFF794FF012D6468D8F8086016D0A944BD
:103580000C4D17F801AB40460AF0F001FFF786FF3B
:103590006B681B1B9E42FBD84FEA0A1101F0F00139
:1035A0004046FFF77BFF4F456C68EAD1C8F8004002
:1035B000BDE8F88F001000E02DE9F04F00F1140392
:1035C00002460F4693E8030097B00AAE02F11C03CF
:1035D00086E8030093E8030008AD02F1240385E8C0
:1035E000030093E8030006AC02F12C0384E8030017
:1035F00093E803000DF1100E02F134038EE803008E
:1036000093E803000DF1080C8CE8030096E8030032
:103610000DF1500989E8030095E803000DF1480811
:10362000137A88E8030094E803000DF1400A8AE861
:103630000300DDE914B001909EE803000DF1380AA3
:103640008AE803009CE803000DF1300A8AE80300D1
:103650007B40EFF3108A72B6DBF80C1001984840FB
:10366000CBF80C008AF31088D90661D498066CD484
:10367000590677D41B0600F183805E4B58682130D1
:103680005968091A0029FBDBDDE9140BEFF3108AF6
:1036900072B6C16881EA0B01C1608AF310883901F2
:1036A000C9B211725A685348263243689B1A002BDC
:1036B000FBDB81EA070396E8030089E8030095E84D
:1036C000030088E8030094E8030010AA82E80300DE
:1036D0009EE803000EAA82E803009CE803000CAAFF
:1036E00082E80300149C1598EFF3108172B6E2682B
:1036F0004240E26081F31088D8066FD4990662D404
:103700005A0649D41B0653D43A494A6821324B68B9
:103710009B1A002BFBDBDDE91423EFF3108172B65B
:10372000D0684340D36081F3108817B0BDE8F08FB4
:10373000DDE9120BEFF3108A72B6C16881EA0B0162
:10374000C1608AF31088980692D5DDE9100BEFF37B
:10375000108A72B6C16881EA0B01C1608AF31088D1
:10376000590687D5DDE90E0BEFF3108A72B6C168F2
:1037700081EA0B01C1608AF310881B067FF57DAFDB
:10378000DDE90C1AEFF3108072B6CB6883EA0A0306
:10379000CB6080F3108870E7DDE90E14EFF3108042
:1037A00072B6CA686240CA6080F310881B06ABD547
:1037B000DDE90C23EFF3108172B6D0684340D3608B
:1037C00081F31088A0E7DDE91014EFF3108072B6E2
:1037D000CA686240CA6080F3108891E7DDE912147C
:1037E000EFF3108072B6CA686240CA6080F3108836
:1037F00084E700BF001000E008B52120FCF726FD9B
:10380000826903461168C06810B5124C996111892C
:10381000016020681060986922609A8A50B99142CC
:1038200007D0186928B19A680B490244C3E901120C
:10383000012010BD9142406801D01A690AB9986010
:10384000F6E799680A44121A002AF8DA2020FCF7F1
:10385000FDFC00BF3C000020F937010810B5184BF3
:1038600002781B78934228D9164B17491B6853F8E6
:1038700032408C4203EBC2031FD15C680379E27EC5
:103880001A44E27672B6A27C9A4205D80022FE2340
:10389000A274237762B610BDD21AD0B2123304F1EB
:1038A0001202234402EB000C13F8011F02F8011F5F
:1038B0006245F9D1A07462B610BDFEF7BBFA00BF35
:1038C0008C010020880100202140010838B50F4BF1
:1038D00002781B78934217D90D4B0E491B6804469A
:1038E00053F83200884203EBC2030DD15D68F82122
:1038F0002846FFF7D3FD217901B938BDA2682846D3
:10390000BDE83840FFF71ABEFEF794FA8C0100209C
:10391000880100204544010838B50F4B02781B7818
:10392000934217D90D4B0E491B68044653F83200D9
:10393000884203EBC2030DD15D68FA212846FFF7E8
:10394000ADFD217901B938BDA2682846BDE83840EF
:10395000FFF7F4BDFEF76EFA8C010020880100200D
:10396000454401082DE9F843194B02781B7893422E
:103970002CD9184B18491B6853F832408C4203EB82
:10398000C20323D15F68D7E903231B0413610179C4
:10399000D0F808904B1ED7E90025DBB299B109F1A8
:1039A00001060E4C06EB03084B46B14619786368D6
:1039B0009B1A9D42FBD83846FFF7FEFD46456268DC
:1039C00001D00136F0E73A60BDE8F883FEF732FA3D
:1039D0008C01002088010020D9440108001000E07B
:1039E0002DE9F843194B02781B7893422BD9184BD9
:1039F00018491B6853F832408C4203EBC20322D1B2
:103A00005F68D7E903321A610179D0F808904B1E3C
:103A1000D7E90025DBB299B109F101060E4C06EB9E
:103A200003084B46B146197863689B1A9D42FBD840
:103A30003846FFF7C1FD4645626801D00136F0E720
:103A40003A60BDE8F883FEF7F5F900BF8C0100206D
:103A500088010020D9440108001000E038B5044670
:103A6000437F4069D4F818C0856804EBD30003F0A5
:103A700007020121914090F8282015EA0C0F1ABF87
:103A80000A43D2B28A4380F82820A27F0133DBB2F6
:103A90009A4206D9A268616A63770A44A26001204B
:103AA00038BD237F9A060ED4D4E9032111610A4A56
:103AB00003F0300343F00903002023771072074B13
:103AC00001221A7038BD04F10C0393E803000122AF
:103AD00003F0EAFA237FEAE72800002064010020CF
:103AE000D0E9053110B59B68027F0B4004460DD02C
:103AF00042F004020277637F5A1C3F2B62770ED894
:103B0000A368626A13440120A36010BD5107F2D577
:103B1000114A4377BDE810404260FFF79FBF237F03
:103B20000022A2779A0613D504F10C0393E8030050
:103B3000012203F0B9FA237F084A03F0300343F06F
:103B40000903002023771072054B01221A7010BD63
:103B5000D4E903211161EFE75D3A01082800002054
:103B60006401002038B5027F817F044602F0200303
:103B700009B353B9A368606A224A002103EB8003AA
:103B80006177C4E90123012038BD45691E4902F06F
:103B90001002002351F8040FA84225D00133072B4F
:103BA000F8D10020EFF3108572B6002103F05EF922
:103BB00085F31088DEE773B9D0E903311961134B3F
:103BC00002F0300242F00902002022771872104BF6
:103BD00001221A7038BD00F10C03012293E80300A2
:103BE00003F062FA227FEAE7A06990FAA0F10028C8
:103BF000B1FA81F14FF0100008BF4FF0FF3113FB15
:103C00000010CFE7E13A01084488010828000020AD
:103C1000640100202DE9F047714C80460D460826CE
:103C200002272B0669D4002F40F08F80002762689E
:103C3000D8F824306D00EDB21A4463689B1A002B4B
:103C4000FBDBDFF8A091D8F810004A46002352F8B9
:103C5000041F88426AD00133072BF8D10020EFF30C
:103C6000108A72B60122002103F000F98AF310884D
:103C70006268D8F824301A4463689B1A002BFBDB77
:103C800098E80300002203F00FFA013EC9D1002F8B
:103C900072D05349D8F824304A681A444B689B1AAA
:103CA000002BFBDBD8F81010002359F8042F9142A9
:103CB00078D00133072BF8D1EFF3108472B60122CC
:103CC0000021304603F0D2F884F31088D8E90623A7
:103CD00043499468D8F824004A681C4002444B6861
:103CE0009B1A002BFBDB98E80300002203F0DCF9B1
:103CF000201E18BF0120BDE8F087012F14D0D8F88E
:103D00001800384A002352F8041F814225D001339D
:103D1000072BF8D10020EFF3108772B601220021A3
:103D200003F0A4F887F31088012780E7D8F814205F
:103D3000002A92FAA2F2B2FA82F24FF0100108BF02
:103D40004FF0FF3213FB012089E708F1080393E8E5
:103D50000300002203F0A8F968E7D8F81C20002A25
:103D600092FAA2F2B2FA82F24FF0100108BF4FF0BD
:103D7000FF3213FB0120CEE7D8F81800194A3B4662
:103D800052F8041F81421CD00133072BF8D1EFF306
:103D9000108472B601223846002103F067F884F3DC
:103DA000108876E7D8F81420002A92FAA2F2B2FA24
:103DB00082F24FF0100608BF4FF0FF3213FB0626C9
:103DC0007AE7D8F81C20002A92FAA2F2B2FA82F21C
:103DD0004FF0100708BF4FF0FF3213FB0727D6E75D
:103DE000001000E044880108F8B5394E436A726853
:103DF00005460C461A4473689B1A002BFBDB354EB4
:103E0000A8693246002352F8041F814243D001338F
:103E1000072BF8D10020EFF3108772B601220021A2
:103E200003F024F887F310882969002356F8042F3B
:103E30008A423ED00133072BF8D10020EFF31086E1
:103E400072B60122002103F011F886F31088204E8B
:103E50006B6A72681A4473689B1A002BFBDB05F1CE
:103E6000080393E80300002203F01EF972686B6AEE
:103E700017491A444B689B1A002BFBDB95E803009B
:103E8000002203F011F921462846FFF7C3FE01285E
:103E900008BF0320F8BDEA69002A92FAA2F2B2FA3A
:103EA00082F24FF0100108BF4FF0FF3213FB0120E8
:103EB000B1E7696991FAA1F20029B2FA82F24FF0F2
:103EC000100108BF4FF0FF3213FB0120B6E700BF1F
:103ED000001000E0448801082DE9F04F4B4B0478B6
:103EE0001B78A34283B040F28F80494B494A1B683C
:103EF00053F83410914203EBC40340F085805D68B1
:103F00004548D5E9031243685B1A9A42FBD895E805
:103F1000030002AB03E90300AE8A3F4BD5F808C0AB
:103F20005F6805F1160E9EB306EB0E0B1EF8011B23
:103F300008200A0630D55A68D21BB32AFBD972B6BC
:103F4000DDF800A0D3F80480019EDAF80C2072405E
:103F5000CAF80C2062B6A8EB0707BC4545D9490052
:103F60005A68A2EB0802732AFAD972B6DDE9009208
:103F7000D9F80C707A40C9F80C2062B65F685A68AC
:103F8000D21B1C2AFBD901384746D2D1DE45CDD100
:103F9000214B01225B682FE05A68D21BB32AFBD960
:103FA00072B6DDF80090D3F80480DDF804A0D9F8EB
:103FB0000C208AEA0202C9F80C205A68A2EB080217
:103FC0001C2AFAD9D9F80C208AEA0202C9F80C2076
:103FD00062B6A8EB0707BC4507D901384FEA410193
:103FE0004746A6D1DE45A1D1D2E7DDE900130A4A52
:103FF0001B040B61536800220848EB60214603B0A4
:10400000BDE8F04FFCF744BAFDF714FF8C01002027
:1040100088010020FD430108001000E0E886010847
:1040200010B50479082C09D8221D06490078D20061
:10403000FDF79CFE044B8477436010BD2420FCF701
:1040400005F900BF214001089D320108D0E90112A5
:10405000007803F0F7B800BF70B5D0E9021204464B
:10406000007903F0EFF80E49054620222078FDF78D
:104070007DFE0C4A0346D4E9046011880A4CDD60D9
:104080000022C3E906225C609E82186131B9074BA9
:104090001A780B2A9CBF0C221A7070BDFDF78CFE9B
:1040A0005940010848000020013801084000002064
:1040B00038B51A4B02781B78934229D9184B194905
:1040C0001B68054653F83200884203EBC2031FD138
:1040D0005C682046FCF788F86A68A260A868E0601F
:1040E0002A7C00210B4662F3070362F30F234FF48F
:1040F0007E42A1742382A4F81B20EB6863771B0621
:1041000008D400B938BD2046BDE83840FCF7AAB84D
:10411000FDF790FE2220FCF799F800BF8C010020EB
:10412000880100202140010838B5104B02781B7827
:10413000934219D90E4B0F491B68054653F83200BC
:10414000884203EBC2030FD15C682046FCF74CF8B1
:104150006B68A360AA68E260EA682046C4E90423A9
:10416000BDE83840FCF77EB8FDF764FE8C01002006
:1041700088010020C542010838B5234B02781B781E
:1041800093423CD9214B22491B6853F832408C4260
:1041900003EBC20333D15D68EFF3108272B61D4B9F
:1041A0001C68002C2DD02168196082F310884368A8
:1041B00063608368238172B6AB690022226023B1F9
:1041C000EB691C60EC6162B638BDC5E9064462B6B5
:1041D0002846FCF709F8104A69686368914207D0DD
:1041E0000E4A2846C5E90123BDE83840FCF73AB835
:1041F000AA68D21A002AF3DA2020FCF727F8FDF784
:1042000019FEFDF7D5FD00BF8C01002088010020BC
:10421000594001083C000020F93701080138010825
:104220002DE9F041234B02781B78934240D9224B71
:1042300022491B6853F832408C4203EBC20337D14A
:104240005D680679AB7FB3422FD9D0E902326F2B7C
:104250004FEA131027D81A4951F820401CB303F035
:104260000F0301279F400439002351F8040F8442B3
:1042700011D00133072BF8D10020EFF3108872B66C
:10428000002102F0F3FD88F3108805EBC605C5E9AF
:104290000847BDE8F08197FAA7F11020B1FA81F143
:1042A00013FB0010E9E702F0DDFD2320FBF7CEFF52
:1042B000FDF7C0FD8C01002088010020214001088D
:1042C00048880108F8B52C22044619490078FDF702
:1042D0004DFDD4E901326F2B28D81649064618093E
:1042E00051F8205015B303F00F0301279F40043904
:1042F000002351F8044FA54210D00133072BF8D109
:104300000020EFF3108472B6002102F0AFFD84F3B9
:104310001088094B7360C6E90957F8BD97FAA7F1F1
:104320001020B1FA81F113FB0010EAE702F09AFDC8
:10433000C5420108488801082D3401082DE9F04FD5
:10434000064634222B49007883B0FDF70FFD96F81E
:1043500008A07768D6F80C90BAF1000218BF0122C5
:104360006F2F45D824493B0951F82340002C3FD0FA
:1043700007F00F034FF0010808FA03F80546043967
:10438000002351F8040F84422AD00133072BF8D1BF
:104390000020EFF3108B72B6002102F067FD8BF363
:1043A0001088012249466846C5E9054802F0AAFE80
:1043B000DDE9000105F10C0383E80300A7EB090721
:1043C000BAF1000FB7FA87F732692A620CBF0123EE
:1043D00011237F0943EA47132B7703B0BDE8F08F21
:1043E00098FAA8F11020B1FA81F113FB0010D0E780
:1043F00002F038FD3D4301084888010830B5044605
:1044000083B041680022684602F07CFEA3681A046B
:1044100013D49DB205F118020949207892B2FDF734
:10442000A5FC03469DE8030083E80300E2689A6068
:1044300022699D821A6103B030BD2720FBF706FF79
:10444000FD430108F0B5224983B005461C220078DF
:10445000FDF78CFCA96804460022684602F052FE73
:10446000DDE9000104F10C0383E803000022E968A0
:10447000684602F047FEDDE9000104F1140383E819
:10448000030001226968684602F03CFE2046F821DC
:10449000FFF704F820212046FFF700F872B60D4F11
:1044A000002120467E68FEF7F9FF7B6862B6236034
:1044B00029699A1B8A4202D2F01A01446160696933
:1044C0008A4202D2F61A0E44A66003B0F0BD00BFC5
:1044D00045440108001000E0F0B52E4983B00546C0
:1044E0003C220078FDF742FC6968064600226846D7
:1044F00002F008FEDDE9000106F10C0383E8030089
:104500000022A968684602F0FDFDDDE9000106F120
:10451000140383E803000022E968684602F0F2FD14
:10452000DDE9000106F11C0383E80300002229698C
:10453000684602F0E7FDDDE9000106F1240383E8A7
:10454000030000226969684602F0DCFDDDE9000134
:1045500006F12C0383E803000022A969684602F0F3
:10456000D1FDDDE9000106F1340383E8030072B6F2
:10457000094F002130467C68FFF71EF87A6862B662
:10458000EB69111B994202D2A41A1C44746003B057
:10459000F0BD00BFD9440108001000E02DE9F04152
:1045A000244B02781B7893423FD9234B23491B6845
:1045B00053F832408C4203EBC20336D15C68257F4E
:1045C00015F0020801D0BDE8F08106798168077B0B
:1045D0000A2E2CD80A2F2AD8324604F1280005F0DA
:1045E000310503F07DF845F00205FF00F30084F883
:1045F0001D802577E377A7772EB194F8283003F054
:104600003F032A2B0FD0226A0D4B6262636072B6A1
:104610000C4B5B6803F5E1432046A360FBF722FEE9
:1046200062B6BDE8F081084BF0E7FDF703FC2520FA
:10463000FBF70CFE8C010020880100203D4301089F
:1046400059330108001000E0C533010810B5124BC2
:1046500002781B78934219D9104B11491B6853F803
:1046600032408C4203EBC20210D143685468D0E957
:10467000022118040CD4A08A03EB020C844507D84D
:104680001633E018BDE8104003F02AB8FDF7D2FB5E
:104690002620FBF7DBFD00BF8C01002088010020F5
:1046A000FD4301082DE9F04390F81080D0F81490F4
:1046B000B8F1030F85B04BD8294B02781B78934291
:1046C000054648D9274B28491B6853F832008842D1
:1046D00003EBC2033FD1254A254914685F6804F102
:1046E00020038B4239D813600021202202AE2046DD
:1046F00002F076FF69680122304602F02FFD96E84D
:10470000030084E803000022A968684602F0FAFC6E
:10471000DDE9000104F1080383E803000022E968F1
:10472000684602F0EFFCDDE9000104F1100383E8C4
:10473000030084F81C80C4F818903B7C13F0060F2B
:1047400006D143F002033C603B7405B0BDE8F08342
:104750001B20FBF77BFDFDF76DFB1120FBF776FDC2
:104760008C01002088010020851E0108B000002077
:1047700000FE01202DE9F0412F4B02781B78934277
:1047800084B054D92D4B2E491B68054653F832008E
:10479000884203EBC2034AD12A4A2B491468D3F852
:1047A000048004F128038B4243D81360002128229F
:1047B000204602F015FFEB6863622B6901229340EB
:1047C00084F8203002AF6968384602F09BFC97E815
:1047D000030084E8030001226968684602F0BEFC19
:1047E000DDE9000104F1100383E803000122A96858
:1047F000384602F087FC97E8030004F1080383E8D9
:1048000003000122A968684602F0A8FCDDE9000166
:1048100004F1180383E8030098F80830C8F8004052
:1048200043F0010388F8083004B0BDE8F081FDF7DB
:1048300001FB1120FBF70AFD8C01002088010020FC
:10484000B1290108B000002000FE0120013808B5A0
:1048500003280FD8DFE800F00B0805021D20FBF746
:10486000F5FC1E20FBF7F2FC1C20FBF7EFFC1F20E1
:10487000FBF7ECFC08BD00BF2DE9F041414B02788D
:104880001B7893427BD9404B40491B6853F8324018
:104890008C4203EBC20372D15B681A7A1D68D6079B
:1048A000D0E901841BD595F820102846FFF79CFA23
:1048B0000646002861D154FA88F806E014F8011B76
:1048C0002846FFF7A7F9002851D14445F6D12846DC
:1048D00001F0A0FB3046BDE8F041FFF7B7BF2C4F19
:1048E00019797E6806F52F265FFA88F806F548667E
:1048F00033464246284602F061FC08F1FF330128A6
:1049000008BF0320DBB2B8F1000F16D004F1010C90
:104910009C4490B9214611F8013B2B616A69140649
:1049200006D4520521D47A68921B002AF6DB0220B5
:104930008C4502D00C460028ECD040F201231449EB
:104940002B6005E0530514D44A68921B002A12DA42
:104950006A6912F08003F5D11E46002818BF06468A
:104960003046BDE8F041FFF771BF0120E0E70646A1
:10497000ADE70126F1E70226EFE70326A7E7FDF7FB
:1049800059FA00BF8C01002088010020B1290108DC
:10499000001000E02DE9F04F9A46037A046883B0D6
:1049A000DE071546DDF830900A4640F1A880002960
:1049B00040F01C8194F82010204641F00101FFF7DF
:1049C00013FA0746002840F063810AF1FF385FFAC6
:1049D00088F8BAF1000F00F08B80B04D01904FF0D5
:1049E000100ADFF8BCB2A0695A46002352F8041F2F
:1049F000814200F02F810133072BF7D10020EFF324
:104A0000108672B60122002102F030FA86F3108877
:104A100008270026CDF800806A68636A1A446B682C
:104A20009B1A002BFBDB21695B46002053F8042F07
:104A30008A4200F0EF8001300728F7D10020EFF321
:104A4000108872B60122002102F010FA88F3108853
:104A50006A68636A1A446B689B1A002BFBDBD4E913
:104A600006329B687600134094E803000022F6B2F9
:104A7000934218BF46F0010602F016FB013FCBD16E
:104A8000DDF80080B8F1000F40F0D0806A68636AFA
:104A90001A446B689B1A002BFBDB216900235BF82F
:104AA000042F8A4200F0CA800133072BF7D1EFF3BD
:104AB000108B72B601223846002102F0D7F98BF331
:104AC00010886A68636A1A446B689B1A002BFBDBC8
:104AD00008F1FF3894E8030000225FFA88F802F03A
:104AE000E3FAB8F1FF0F09F8016B7FF47AAF019F89
:104AF000204601F08FFA384603B0BDE8F08F674ECC
:104B00000179736803F52F2B41F001080BF5486B11
:104B1000002A3DD141465B465246204602F04EFBFC
:104B20000128074600F0B680002840F0AD800AF169
:104B3000FF32D2B2BAF1000F1BD0584840F2012523
:104B4000636913F4886F04D14368A3EB0B03002B54
:104B5000F6DBEFF3108172B62369012ADBB200F0B5
:104B6000878081F31088013AD2B2FF2A09F8013B0D
:104B7000E6D14A4A05E05368A3EB0B03002B80F211
:104B80008B8063695D06B6D55805F4D50127B2E779
:104B90005B462046009202F011FB009A012807466E
:104BA0002A4408BF03278FB915F8013B23616369C5
:104BB000190607D45B0562D47368A3EB0B03002BC3
:104BC000F5DB0227AA42EED1002FA3D040F2012349
:104BD000324A236006E05B058DD45368A3EB0B03D8
:104BE000002B88DA6369190685D5F4E70091204621
:104BF00094F82010FFF7F8F8C0BB009AAE1805E053
:104C000015F8011BFFF706F800283FD1B5422046F2
:104C1000F6D1CFE6626992FAA2F3002AB3FA83F3DF
:104C200008BF4FF0FF3310FB0A3008E704F1080318
:104C300093E803003A4602F037FA27E76769002F46
:104C400097FAA7F7B7FA87F708BF4FF0FF3713FBBC
:104C50000A772CE7E269002A92FAA2F2B2FA82F20B
:104C600008BF4FF0FF3213FB0A20C8E603273FE7D7
:104C7000256081F31088002209F8013B60E7AA4211
:104C80004FF001078FD19FE702279FE707462FE7E5
:104C900004272DE7042799E702272CE7001000E0FE
:104CA00044880108F0B5164B83B01B780478A34202
:104CB00002AF22D9134B144A1B68014653F8340043
:104CC000904203EBC40318D10D7B5868EB1D03F42D
:104CD000FC73ADEB030D02AE00968A6809792B4692
:104CE000FFF758FEFFF7B2FD084833462A46214633
:104CF000FBF7CEFB0437BD46F0BDFDF79BF800BFC8
:104D00008C01002088010020B129010800870108DA
:104D1000074B00221A72C27F8368D0F80CC0054985
:104D2000634442F00102C27783600120087070473B
:104D3000280000206C010020027D0549034642F056
:104D4000010200201A750872024B01221A70704786
:104D50002800002070010020427D0549034642F0F2
:104D6000010200205A750872024B01221A70704726
:104D70002800002074010020027E0549034642F00D
:104D8000010200201A760872024B01221A70704745
:104D90002800002078010020027E0549034642F0E9
:104DA000010200201A760872024B01221A70704725
:104DB000280000207C010020427B0169D2070346C5
:104DC0000AD5428D032001325A85587389009A68AA
:104DD0000A4401209A607047D0E906209268024098
:104DE000F5D110B4064C012058732272054A107098
:104DF0009A6810BCC9000A4401209A60704700BF3D
:104E00002800002080010020027FC168034642B1D3
:104E1000028C0132890002849A680A4401209A6057
:104E20007047D0E9042092680240F5D110B4064CD6
:104E3000012018772272054A10709A6810BCC900C8
:104E40000A4401209A607047280000208401002055
:104E5000027D0346D00702D5198B013119839107D2
:104E600004D5D3E914018068084208D1074942F00B
:104E7000010200201A750872054A01211170D3E958
:104E800002210A4401209A60704700BF28000020D8
:104E900090010020027D510703460ED5C27D0132EC
:104EA000C275084A002111729A68D3F80CC00649ED
:104EB0000120624408709A60704742F00402027553
:104EC000EFE700BF280000209401002030B5847D6A
:104ED000521A24B1651E0121A9400A44E240017F13
:104EE000FE2A01F1030C01F101045FFA8CFC01F1CF
:104EF000020E0DD8DDB2D2B2C3F3072301444A77C4
:104F00000219557700EB0E02537780F81CC030BDB4
:104F1000FF2201250023F1E710B50D490446502278
:104F20000078FCF723FF0B4B22791B780A4941607C
:104F300093420BD9094B0A491B6853F832408C4203
:104F400003EBC20302D15B68036110BDFCF772FF83
:104F5000194F01088C010020394D010888010020FB
:104F6000851E010810B50D49044654220078FCF74F
:104F7000FDFE0B4B22791B780A49416093420BD905
:104F8000094B0A491B6853F832408C4203EBC203B9
:104F900002D15B68036110BDFCF74CFF654F01084F
:104FA0008C010020794D010888010020B1290108F9
:104FB00010B50D49044654220078FCF7D7FE0B4B80
:104FC00022791B780A49416093420BD9094B0A495F
:104FD0001B6853F832408C4203EBC20302D15B687A
:104FE000036110BDFCF726FFB14F01088C010020C2
:104FF000994D010888010020B129010810B50F4B17
:10500000027819788A4217D20D4B1B6853F8324048
:1050100003EBC20C0B4A94420ED10279DCF8040077
:105020008A4209D253F8324007498C4203EBC2034B
:1050300002D15B68036610BDFCF7FCFE8C0100200A
:1050400088010020015D0108B95F010810B50F4B10
:10505000027819788A4217D20D4B1B6853F83240F8
:1050600003EBC20C0B4A94420ED10279DCF8040027
:105070008A4209D253F8324007498C4203EBC203FB
:1050800002D15B68836510BDFCF7D4FE8C01002063
:1050900088010020AD5D0108B95F010810B50D4918
:1050A000044668220078FCF761FE0B4B22791B78DE
:1050B0000A49416093420BD9094B0A491B6853F8CE
:1050C00032408C4203EBC20302D15B68036110BD26
:1050D000FCF7B0FE9D5001088C010020514E0108E4
:1050E00088010020B129010810B5184B93F800C0C1
:1050F0000378634528D2164A116851F8334001EB12
:10510000C302144B9C421FD15268836813661BB9BB
:1051100082F85C30936510BD43685366037B63453A
:1051200012D201EBC30451F833100B4B99420BD14F
:105130000369616882F85D30436982F85E30062356
:1051400082F85C30916510BDFCF774FE8C01002084
:10515000880100209D5001081129010838B5057A01
:10516000032D1BD80F49044620220078FCF7FEFDD2
:105170000D4B0E491A78237941609A420CD90C4A9A
:10518000126802EBC30152F833200A4B9A4203D152
:105190004B688577836138BDFCF74CFE2920FBF70F
:1051A00055F800BF5D5101088C010020114D010828
:1051B00088010020851E010870B5502204461B4955
:1051C0000078FCF7D3FDA368194A4260BBB1012BFC
:1051D00025D1184A217912788A421ED9164A174DCC
:1051E000126852F83160AE4202EBC10215D152682A
:1051F0000375E3680261012B14D8837570BD0D4AF5
:10520000217912788A4208D90B4A0D4D126852F85A
:105210003160AE4202EBC102E9D0FCF70BFE2B205D
:10522000FBF714F82A20FBF711F800BFB951010869
:10523000594D01088C01002088010020B129010886
:10524000851E010838B5057A052D1ED81249044679
:1052500050220078FCF78AFD104B11491A78237907
:1052600041609A420FD90F4A126802EBC30152F80B
:1052700033200D4B9A4206D14B6803611B7CDB0740
:1052800006D5457538BDFCF7D5FD3020FAF7DEFFB1
:105290002F20FAF7DBFF00BF455201088C010020E8
:1052A000954E010888010020851E010808B53120AF
:1052B000FAF7CCFF10B5124B02781B7893421AD93B
:1052C000104B11491B6853F832408C4203EBC20368
:1052D00011D15A680379117899420ED353708368BB
:1052E000C3F11F03DBB20120591E00FA01F19370D4
:1052F000D070516010BDFCF79DFDFFF7D7FF00BFD8
:105300008C010020880100201D5F010810B5134B9F
:1053100002781B7893421DD9114B12491B6853F830
:1053200032408C4203EBC20314D15B680022DA7076
:105330001978027991420FD9C2EBC20203EB8203C2
:105340000433021D183052F8041F43F8041F824230
:10535000F9D110BDFCF76EFDFFF7A8FF8C0100200E
:10536000880100201D5F010810B5134B02781B78DF
:1053700093421DD9114B12491B6853F832408C429D
:1053800003EBC20314D15A680023D3701178037958
:1053900099420FD9C3EBC30102EB81010133846849
:1053A000CC61C3EBC30302EB8302C368536010BD3F
:1053B000FCF740FDFFF77AFF8C01002088010020F8
:1053C0001D5F010838B5144B02781B78934220D931
:1053D000124B13491B68044653F83200884203EB12
:1053E000C20316D15D682846FAF7FEFE6368AB601B
:1053F000A368EB6003B938BDE3682B6123696B6177
:1054000062692A7700236B772846BDE83840FAF7AF
:1054100029BFFCF70FFD00BF8C0100208801002090
:105420005D51010838B5144B02781B78934221D99D
:10543000124B13491B68054653F83200884203EBB0
:10544000C20317D15C682046FAF7CEFE002323750D
:105450006A6802B938BDE260C4F81630A37672B645
:10546000084AE368526813442046A360FAF7FAFE3C
:1054700062B638BDFCF7DEFC8C01002088010020FC
:10548000194F0108001000E038B5144B02781B7862
:10549000934221D9124B13491B68054653F8320039
:1054A000884203EBC20317D15C682046FAF79CFEE2
:1054B000002363756A6802B938BDE260E375A361D1
:1054C000237772B6084AE368526813442046A36003
:1054D000FAF7C8FE62B638BDFCF7ACFC8C010020C0
:1054E00088010020B9510108001000E038B5154BC3
:1054F00002781B78934222D9134B14491B68054646
:1055000053F83200884203EBC20318D15C6820468E
:10551000FAF76AFE002323766A6802B938BDE260B2
:10552000C4F81A30A377636172B6094AE368526817
:1055300013442046A360FAF795FE62B638BDFCF727
:1055400079FC00BF8C01002088010020654F010814
:10555000001000E038B5154B02781B78934222D931
:10556000134B14491B68054653F83200884203EB7D
:10557000C20318D15C682046FAF736FE0023237672
:105580006A6802B938BDE260C4F81A30A377636173
:1055900072B6094AE368526813442046A360FAF7DA
:1055A00061FE62B638BDFCF745FC00BF8C010020EF
:1055B00088010020B14F0108001000E038B5174BFA
:1055C00002781B78934227D9154B16491B6805466C
:1055D00053F83200884203EBC2031DD15C682046B9
:1055E000FAF702FE00236373636169682161D4E9FD
:1055F000080279B112040261A36284F82C3072B6F9
:10560000094A2369526813442046A360FAF72AFE28
:1056100062B638BD026138BDFCF70CFC8C0100207D
:1056200088010020015D0108001000E038B5154B2D
:1056300002781B78934222D9134B14491B68054604
:1056400053F83200884203EBC20318D15C6820464D
:10565000FAF7CAFD002222776B68E36003B938BD10
:10566000C4F81E2084F8222072B6094AE368526802
:1056700013442046A360FAF7F5FD62B638BDFCF787
:10568000D9FB00BF8C01002088010020AD5D01081E
:10569000001000E038B5164B02781B78934224D9ED
:1056A000144B15491B68054653F83200884203EB3A
:1056B000C2031AD15C682046FAF796FD237D23F0D9
:1056C000010323756B6803B938BD0022E360C4F899
:1056D0001620A27672B6094AE3685268134420463F
:1056E000A360FAF7BFFD62B638BDFCF7A3FB00BFAD
:1056F0008C010020880100209D500108001000E06E
:1057000038B5134B02781B7893421FD9114B1249BD
:105710001B68044653F83200884203EBC20315D1DC
:105720005D682846FAF760FD00232B75A26802B970
:1057300038BD6268AA60A268EA602B77E268AA7541
:10574000AB612846BDE83840FAF78CBDFCF772FB28
:105750008C010020880100204552010810B5164B2D
:1057600001781B788B4284B023D9144B144A1B68F0
:1057700053F83100904203EBC1031AD1586872B656
:10578000104A83695268C4699B68234062B6448D9D
:10579000029490F82CC0B3FA83F35B090CEB8303FB
:1057A0000193038D009308480023FAF771FE04B0BB
:1057B00010BDFCF73FFB00BF8C01002088010020DA
:1057C000015D0108001000E0C086010810B5164B0D
:1057D00001781B788B4284B023D9144B144A1B6880
:1057E00053F83100904203EBC1031AD1586872B6E6
:1057F000104A0369526844699B68234062B6048C6E
:10580000029490F822C0B3FA83F35B090CEB830394
:105810000193C38B009308480023FAF739FE04B0C4
:1058200010BDFCF707FB00BF8C01002088010020A1
:10583000AD5D0108001000E0C086010810B50E4BF8
:1058400001681B78CAB2934213D90C4B0C481B68F1
:1058500053F83240844203EBC2030AD15B68094823
:1058600093F85C205B6EBDE81040C2F38002FAF74B
:105870000FBEFCF7DFFA00BF8C010020880100207A
:105880009D500108D0860108F0B51B4B02781B78AB
:10589000934287B02DD9194B19491B68044653F818
:1058A0003200884203EBC20323D15D68154E28699C
:1058B000B923ADF81430022205AB01217768FDF75A
:1058C00069FB9DF81520736822F08002202A0ED80B
:1058D000288B21780290A87E02EB820C6044019014
:1058E000EC8A09480094DB1B3A46FAF7D1FD07B071
:1058F000F0BDFCF79FFA00BF8C010020880100205A
:10590000194F0108001000E0C08601082DE9F0439E
:105910002A4B04781B78A34285B04CD9284B294ADE
:105920001B6853F83410914203EBC40343D15B6806
:10593000057993F8158086681869B8F1020F1DD0B3
:10594000DFF8849033462A460121D9F80470FDF728
:1059500021FBD9F80420D31BB3F5E15F94BF2B469C
:105960000023B8F1010F08BF1746184800963A46C1
:105970002146FAF78DFD05B0BDE8F083083003C875
:1059800004AA02E90300039A120402610E4A506855
:1059900090305168411A0029FBDA72B6DDE9021035
:1059A0000861576862B6012118692A463346FDF737
:1059B000F1FA2B46D9E7FCF73DFA00BF8C01002035
:1059C0008801002045520108001000E0C886010847
:1059D000F0B5384B02781B78934287B068D9364BC4
:1059E0001B68064653F8324034488442114603EBA4
:1059F000C2035DD15C68237D00228DF81320DBB1EA
:105A0000012B42D0A37D608B012B1546134635D068
:105A100002F03F0202EB42025200D2B21646E27599
:105A20000290207F30440190248B254800942A4620
:105A3000FAF72EFD07B0F0BDAF23ADF81430214FBB
:105A400020697D68022205AB0121FDF7A3FA9DF8CC
:105A500015207F688DF813207B1B5706608B58BF7D
:105A6000317803D5013080B231786083A67D012E74
:105A7000CED1960602D500263246D0E702F01F02AC
:105A800002EB420252001646C9E70E4F2F228DF854
:105A900014200DF113027D6820690092194605AAB1
:105AA000FEF778FFFEF7D2FE7F689DF81320D3E75C
:105AB000FCF7C0F98C01002088010020B9510108D1
:105AC000C0860108001000E0F0B5284B02781B7872
:105AD000934289B048D9264B26491B68054653F89E
